:10000000F015FE1FF5450000A1440000F145000079
:10001000F1450000F1450000F1450000F145000008
:10002000000000000000000000000000F14500009A
:10003000F145000000000000F1450000F14500001E
:1000400089170000BD170000F11700001518000007
:1000500000000000000000000000000000000000A0
:100060000000000000000000000000000000000090
:100070000000000000000000000000000000000080
:100080000000000000000000000000000000000070
:10040000FFFFFFFFFFFDFFFFFCFFFFFFFFFFFFFF01
:10041000FCFFFFFFFFFFFFFFFCFFFF00FFFFFF00F0
:10042000FCFF0F20FFFF0F20FCFF7F40FFFF7F40FE
:10043000FCFF0D40FFFF0D40FFFFFFFFFFFFFFFF31
:10044000FFFFFFFFFFFFFFFFFFFFFFFFFFFFFFFFBC
:10045000FFFFFFFFFFFFFFFFFFFFFFFFFFFFFFFFAC
:10046000FFFFFFFFFFFFFFFFFFFFFFFFFFFFFFFF9C
:10047000FFFFFFFFFFFFFFFFFFFFFFFFFFFFFFFF8C
:10048000FFFFFFFFFFFFFFFFFFFFFFFFFFFFFFFF7C
:10049000FFFFFFFFFFFFFFFFFFFFFFFFFFFFFFFF6C
:1004A000FFFFFFFFFFFFFFFFFFFFFFFFFFFFFFFF5C
:1004B000FFFFFFFFFFFFFFFFFFFFFFFFFFFFFFFF4C
:1004C000FFFFFFFFFFFFFFFFFFFFFFFFFFFFFFFF3C
:1004D000FFFFFFFFFFFFFFFFFFFFFFFFFFFFFFFF2C
:1004E000FFFFFFFFFFFFFFFFFFFFFFFFFFFFFFFF1C
:1004F000FFFFFFFFFFFFFFFFFFFFFFFFFFFFFFFF0C
:1005000010B5054C237833B9044B13B10448AFF34D
:1005100000800123237010BD0004FE1F00000000B6
:100520007072000008B5034B1BB103490348AFF3D9
:10053000008008BD000000000404FE1F707200006F
:1005400070B58CB00021242203A8CDE9011104F07C
:10055000CBF81D491D481E4C1C4D1E4E03F0A4FB3C
:10056000214603A803F072FB94F800C0BCF1070F0A
:100570004FF080034FF0080201A9284608D0BCF1D3
:10058000090F02D0BCF1030FEAD103F0B5FCE7E795
:10059000BDF8183003F47F43B3F5005F09D0B3F51D
:1005A000045F0BD0B3F5085FDAD1002103F044FDFE
:1005B000D6E76246314603F0F3FCD1E762463146A6
:1005C00003F014FDCCE700BF1C6D00003004FE1FDB
:1005D0002404FE1F1C04FE1F022800D0704702499D
:1005E000024803F023BE00BF486D00002804FE1F30
:1005F00008B5FFF7A5FF002008BD00BF1C4B1B88F6
:10060000012B00D0704710B5817FC268838C0469CC
:100610008AB005290CBF4FF0800C4FF0820C121BE2
:10062000042B03928DF806108DF807C011D0052B0E
:1006300018D0032B12D040F2DC53ADF8083090F8FC
:1006400020308DF8043001A9092001F0C7FC0AB060
:1006500010BD40F2DE53ADF80830F0E70023ADF8EE
:100660000830ECE740F2DF53ADF80830E7E700BFB1
:100670004805FE1F154B1B88012B00D0704700B5A5
:10068000837F8BB0042B8DF806301AD0ABB1812359
:100690008DF80730828C012A40F2DC5390F820203C
:1006A0008DF8042008BF002301A90A20ADF8083006
:1006B00001F094FC0BB05DF804FB82238DF8073049
:1006C000E8E780238DF80730E4E700BF4805FE1F08
:1006D00010B5044631B900F01BFDC3050AD54FF42F
:1006E000807010BD00F08CFD204600F0D5FDC0F3F9
:1006F0000A0010BD204600F03FFD00F07F0010BD55
:100700002DE9F0414A4B90F8207033F817309BB236
:10071000022B04460D464DD000F09AFB2946204698
:1007200000F0CEFB2946204600F004FC2946204676
:1007300001F034FC2946204600F062FD6423DFF816
:10074000F88007FB03F305EB850203EB4203434408
:10075000AE005988204600F087FD7319642607FB18
:1007600006F606EB430646442046F18800F0B0FD4D
:100770003189204600F0C4FD2046002100F040FDF4
:100780002946204600F064FE2946204601F0F2FB8F
:100790002946204600F0FEFD2946204600F0F6FBE3
:1007A0002946204600F014FC29462046BDE8F041C9
:1007B00000F030BC1F4B002243F8212002F03CF92E
:1007C00029468046204694F8207000F041FB2946D7
:1007D000204600F075FB2946204600F0ABFB08F1EF
:1007E000FF382946204601F0D9FB1FFA88F8294630
:1007F000204600F005FDB8F1010FDFF83C800DD870
:10080000642307FB03F305EB850203EB4203434438
:10081000AE00598841F4806159809BE764230A2225
:1008200007FB03F302FB05334344AE00598891E70D
:10083000000CFE1F5804FE1F9404FE1F70B5314BC0
:1008400090F8202033F812309BB2022B05460E465A
:1008500003D12D4B002243F821203146284601F0D8
:100860009DFB3146284600F0F3FA3146284600F059
:1008700027FB3146284600F05DFB48F22F034FF47A
:1008800000420021284600F09BF90021284600F094
:1008900061F910F02F04F8D13146284600F0B0FC81
:1008A0002146284600F0E0FC2146284600F010FDD5
:1008B0002146284600F024FD2146284600F0A0FCF1
:1008C0003146284600F0C4FD3146284601F052FB6F
:1008D0003146284600F05EFD3146284600F064FEB1
:1008E0003146284600F07EFE3146284600F04EFB99
:1008F0003146284600F06CFB31462846BDE8704082
:1009000000F088BB000CFE1F5804FE1F70B50122CA
:1009100006460D4600F002FE4FF6FF7429463046AB
:1009200000F006FD013C10F0200FA4B200D170BD14
:10093000002CF3D170BD00BF70B505461646B2B1AC
:1009400064240AE000F05EF8013C284600F074F8E8
:10095000A4B20A2000F010FFDCB13146284600F0B6
:10096000B3F903469A042846ECD5184670BD41EA0F
:10097000030444F4004248F22F03314600F020F90A
:100980000021284600F0E6F800F02F008442F7D15D
:10099000D6E7FF23184670BD02B1704738B543EA69
:1009A0000104114648F22F0344F40042054600F0CA
:1009B00007F90021284600F0CDF800F02F039C42F3
:1009C000F7D138BD30B583B004460D46019200F032
:1009D00009FE29462046019A00F022FE29462046BB
:1009E00003B0BDE8304000F0C1BD00BF38B50446DB
:1009F0000D4600F0D9FD29462046BDE8384000F0FC
:100A0000F1BD00BF094B90F8202033F812309BB2A3
:100A1000022B01D0002070471AB9054B188880B20C
:100A20007047044B188880B2704700BF000CFE1F4F
:100A30000000094000000640094B90F8202033F8E0
:100A400012309BB2022B01D0002070471AB9054B1F
:100A5000988880B27047044B988880B2704700BF76
:100A6000000CFE1F0000094000000640094B90F8F2
:100A7000202033F812309BB2022B01D000207047A7
:100A80001AB9054B188980B27047044B188980B297
:100A9000704700BF000CFE1F000009400000064028
:100AA000094B90F8202033F812309BB2022B01D072
:100AB000002070470029FBD1012A0BBF034B044BD8
:100AC000D88A988A80B27047000CFE1F000006404A
:100AD000000009400D4B90F8200033F810309BB215
:100AE000022B05D0012907D002290BD039B170475C
:100AF0000128FCD00129F7D1054B1A837047044B1C
:100B00009A827047024B9A83704700BF000CFE1F09
:100B1000000009400D4B90F8200033F810309BB2D4
:100B2000022B05D0012907D002290BD039B170471B
:100B30000128FCD00129F7D1054B1A767047044BE8
:100B40001A757047024B1A77704700BF000CFE1FE2
:100B500000000940134B90F8202033F812309BB26C
:100B6000022B1CD1012912D0022907D10E490F4BAB
:100B7000012A18BF0B46188880B2704779B90C4912
:100B80000C4B012A18BF0B46188880B270470A49DF
:100B90000A4B012A18BF0B46188880B27047002301
:100BA0001B88FFDE000CFE1F2C0009402C000640B5
:100BB0002000094020000640280009402800064087
:100BC00010B4174C90F820C034F81C0080B20228F2
:100BD00022D1012919D0022906D112481249BCF1AB
:100BE000010F18BF084606E0B1B910481049BCF122
:100BF000010F18BF084601885DF8044B89B21A40FE
:100C000021EA03031A43028070470A480A49BCF1EB
:100C1000010F18BF0846EEE700231B88FFDE00BF68
:100C2000000CFE1F2C0006402C000940200006404E
:100C300020000940280006402800094010B41B4C41
:100C400090F8200034F810309BB2022B04D1012917
:100C500026D002291ED0B9B1002134F810309BB241
:100C6000022B02D05DF8044B70470B8823F44063DD
:100C70001B041B0C0B80002AF4D00B885DF8044B7E
:100C80009BB21A430A80704709490A4B012818BFD2
:100C90001946E2E70849094B012818BF1946DCE765
:100CA0000749084B012818BF1946D6E7000CFE1F5C
:100CB00020000640200009402C0006402C0009407E
:100CC0002800064028000940134B90F8202033F8F4
:100CD00012309BB2022B1CD1012912D0022907D15C
:100CE0000E490F4B012A18BF0B46188880B2704777
:100CF00079B90C490C4B012A18BF0B46188880B2F1
:100D000070470A490A4B012A18BF0B46188880B25F
:100D1000704700231B88FFDE000CFE1F2E000940D9
:100D20002E00064022000940220006402A00094009
:100D30002A000640144B90F8202033F812309BB262
:100D4000022B1DD1012915D0022905D10F49104BC5
:100D5000012A18BF194605E091B90E490E4B012A28
:100D600018BF19460B886FEA43436FEA53439BB29F
:100D70000B80704709490A4B012A18BF1946F1E751
:100D800000231B88FFDE00BF000CFE1F2E00064064
:100D90002E00094022000640220009402A00064099
:100DA0002A000940154B90F8202033F812309BB2EE
:100DB000022B1FD1012914D0022908D1104B11494F
:100DC000012A18BF0B464FF480421A80704789B938
:100DD0000D4B0E49012A18BF0B464FF480421A8072
:100DE00070470B4B0B49012A18BF0B464FF480424A
:100DF0001A80704700231B80FFDE00BF000CFE1F1F
:100E00002E0006402E000940220006402200094024
:100E10002A0006402A0009400A4B90F8202033F8A7
:100E200012309BB2022B00D0704742B1064AD08EDE
:100E3000012303FA01F1014389B2D1867047034AC5
:100E4000F5E700BF000CFE1F00000640000009404F
:100E50000A4B90F8202033F812309BB2022B00D0BE
:100E6000704742B10648C38E01228A4099B221EAF6
:100E70000201C18670470348F5E700BF000CFE1F62
:100E800000000640000009400A4B90F8202033F88B
:100E900012309BB2022B00D0704742B1064A108F2D
:100EA000012303FA01F1014389B211877047034A14
:100EB000F5E700BF000CFE1F0000064000000940DF
:100EC0000A4B90F8202033F812309BB2022B00D04E
:100ED000704742B10648038F01228A4099B221EA45
:100EE0000201018770470348F5E700BF000CFE1FB1
:100EF00000000640000009400B4B90F8202033F81A
:100F000012309BB2022B00D07047002AFCD1074B55
:100F1000074823F811200123428F03FA01F11143FE
:100F200089B24187704700BF000CFE1F8004FE1F7E
:100F3000000009400A4B90F8202033F812309BB291
:100F4000022B00D0704742B10648438F01228A40ED
:100F500099B221EA0201418770470348F5E700BFD3
:100F6000000CFE1F000006400000094020B9054BA0
:100F7000B3F8400080B27047034BB3F8400080B232
:100F8000704700BF00000940000006400D4B90F87C
:100F9000202033F812309BB2022B00D0704701237F
:100FA00003FA01F132B9084BC943C1F30901A3F8AF
:100FB00046107047054BC943C1F30901A3F8461019
:100FC000704700BF000CFE1F0000094000000640F3
:100FD0000D4B90F8202033F812309BB2022B00D03A
:100FE0007047012303FA01F132B9084BC943C1F339
:100FF0000901A3F848107047054BC943C1F3090123
:10100000A3F84810704700BF000CFE1F0000094005
:10101000000006400D4B90F8202033F812309BB2B0
:10102000022B00D07047012303FA01F132B9084BBB
:10103000C943C1F30901A3F84A107047054BC943DE
:10104000C1F30901A3F84A10704700BF000CFE1F4E
:1010500000000940000006400A4B90F8202033F8B9
:1010600012309BB2022B01D00020704722B9064BF0
:10107000B3F84C0080B27047044BB3F84C0080B218
:10108000704700BF000CFE1F000009400000064032
:1010900020B9054BB3F8540080B27047034BB3F846
:1010A000540080B2704700BF0000094000000640B5
:1010B00020B9054BB3F8560080B27047034BB3F824
:1010C000560080B2704700BF000009400000064093
:1010D00020B9054BB3F8580080B27047034BB3F802
:1010E000580080B2704700BF000009400000064071
:1010F00020B9054BB3F85A0080B27047034BB3F8E0
:101100005A0080B2704700BF00000940000006404E
:101110000A4B90F8202033F812309BB2022B01D0FA
:101120000020704722B9064BB3F85C0080B27047CC
:10113000044BB3F85C0080B2704700BF000CFE1F88
:101140000000094000000640084B90F8202033F8CA
:1011500012309BB2022B00D070471AB9044BA3F88F
:101160005C107047034BA3F85C107047000CFE1F27
:1011700000000940000006400A4B90F8202033F898
:1011800012309BB2022B01D00020704722B9064BCF
:10119000B3F85E0080B27047044BB3F85E0080B2D3
:1011A000704700BF000CFE1F000009400000064011
:1011B000084B90F8202033F812309BB2022B00D05D
:1011C00070471AB9044BA3F85E107047034BA3F89D
:1011D0005E107047000CFE1F000009400000064032
:1011E00020B9054BB3F8600080B27047034BB3F8E9
:1011F000600080B2704700BF000009400000064058
:10120000084B90F8202033F812309BB2022B00D00C
:1012100070471AB9044BA3F864107047034BA3F846
:1012200064107047000CFE1F0000094000000640DB
:101230000A4B90F8202033F812309BB2022B01D0D9
:101240000020704722B9064BB3F8680080B270479F
:10125000044BB3F8680080B2704700BF000CFE1F5B
:101260000000094000000640084B90F8202033F8A9
:1012700012309BB2022B00D070471AB9044BA3F86E
:1012800068107047034BA3F868107047000CFE1FEE
:1012900000000940000006400A4B90F8202033F877
:1012A00012309BB2022B01D00020704722B9064BAE
:1012B000B3F86C0080B27047044BB3F86C0080B296
:1012C000704700BF000CFE1F0000094000000640F0
:1012D000084B90F8202033F812309BB2022B00D03C
:1012E00070471AB9044BA3F86C107047034BA3F86E
:1012F0006C107047000CFE1F000009400000064003
:10130000084B90F8202033F812309BB2022B00D00B
:1013100070471AB9044BA3F86E107047034BA3F83B
:101320006E107047000CFE1F0000094000000640D0
:1013300082B090F82020124B0020ADF8060033F860
:1013400012309BB2022B04D0BDF8060080B202B06E
:10135000704762B181B10B4B03EB41010B889BB22B
:10136000ADF80630BDF8060080B202B0704729B172
:10137000054B03EB4101F1E70449EFE70449EDE7D1
:10138000000CFE1F6E0006406E0009406000064023
:10139000600009400B4B90F8202033F812309BB2CC
:1013A000022B00D0704742B1074B03EB41010B8881
:1013B0009BB243F400530B807047044B03EB410195
:1013C000F5E700BF000CFE1F6E0006406E000940EE
:1013D0000D4B90F8202033F812309BB2022B00D036
:1013E000704742B9094A32F811309BB243F4007396
:1013F00022F811307047064A32F811309BB243F49C
:10140000007322F811307047000CFE1F6E00094077
:101410006E0006400B4B90F8202033F812309BB240
:10142000022B00D070474AB1074B03EB41010B88F8
:1014300023F400731B041B0C0B807047034B03EB5E
:101440004101F4E7000CFE1F6E0006406E000940EB
:10145000174B90F8202033F812309BB2022B00D0AB
:1014600070474AB9D9B9134AB2F860309BB243F415
:101470008073A2F86030704741B90F4AB2F860300B
:101480009BB243F48073A2F8603070470B4A32F885
:1014900011309BB243F4807322F81130E0E7084A20
:1014A00032F811309BB243F4807322F81130704748
:1014B000000CFE1F00000940000006406E000640C0
:1014C0006E000940104B90F8200033F810309BB2AA
:1014D000022B00D0704770B191B10C4B03EB41016E
:1014E0000B8823F003031B041B0C0B800B889BB29F
:1014F0001A430A80704729B1054B03EB4101EFE71E
:101500000449EDE70449EBE7000CFE1F6E000640BE
:101510006E00094060000640600009400E4B90F8E4
:10152000200033F810309BB2022B00D0704748B136
:1015300069B10A4B03EB41010B889BB223EA02021B
:101540000A80704729B1064B03EB4101F4E70549D6
:10155000F2E70549F0E700BF000CFE1F6E000640F1
:101560006E00094060000640600009400B4B90F897
:10157000202033F812309BB2022B00D0704742B1CA
:10158000074A89000A4413889BB243F4007313800E
:101590007047044A89000A44F5E700BF000CFE1FAB
:1015A0008C0006408C0009400B4B90F8202033F84B
:1015B00012309BB2022B00D070474AB1074A890013
:1015C0000A44138823F400731B041B0C1380704718
:1015D000034A89000A44F4E7000CFE1F8C00064011
:1015E0008C0009400B4B90F8202033F812309BB24E
:1015F000022B00D0704742B1074A89000A44138881
:101600009BB243F4807313807047044A89000A44F4
:10161000F5E700BF000CFE1F8C0006408C0009405F
:10162000094B90F8200033F810309BB2022B00D009
:10163000704720B1054B89000B441A807047044B5A
:1016400089000B44F9E700BF000CFE1F8E00064026
:101650008E000940704700BF704700BF154BD3F89C
:10166000002188B9110522D5EFF31081012282F300
:101670001088D3F8002122F40062C3F80021D3F8C7
:10168000003181F310887047D20410D5EFF3108138
:10169000012282F31088D3F8002122F40062C3F8FB
:1016A0000021D3F8003181F310880020704740F208
:1016B000DD507047006F044000B17047F0B42A4B12
:1016C0002A4ED3F800242A4D60F30412C3F80024F4
:1016D00091F90D300A7DF4181201D2B284F800237A
:1016E000244C45F8231003F1C00254F8227060F333
:1016F000104744F8227054F82220BFF35F8F5A0934
:10170000920002F1604202F561424FF0010C03F0D9
:101710001F030CFA03F3C2F88031136091F90C2017
:10172000CB7C16441B01DBB286F8003302F1C00308
:1017300045F8221054F8231060F3104144F82310A8
:1017400054F82330BFF35F8F53099B0003F16043CC
:1017500003F5614302F01F020CFA02F2C3F8802184
:101760001A60F0BC704700BF0000094000E100E0D3
:101770004C0CFE1F00600040012102F063BE00BF60
:101780004FF47A7102F05EBEEFF30383103B5BB25D
:10179000084AC03352F823106FF3104142F8231067
:1017A00052F82330044B1B889BB2012B00D17047A9
:1017B00001F0B2B800600040000CFE1FEFF303839D
:1017C000103B5BB203F1C001074A52F821006FF3EE
:1017D000104042F8210052F82120044A52F82330E8
:1017E000987800F06DBA00BF006000404C0CFE1FFE
:1017F000EFF30383103B5BB2054AC03352F823106A
:101800006FF3104142F8231052F82330704700BFA5
:1018100000600040EFF30383103B5BB2054AC03326
:1018200052F823106FF3104142F8231052F823307E
:10183000704700BF006000402DE9F043012A0CBF53
:10184000784B794BB3F840E0B3F84660B3F8488082
:10185000B3F84A70B3F830C00446D88E1D8F5B8F42
:101860001FFA8EFE1FFA85F91EF47F4F9DB24FF0CE
:101870000003238083B0B6B21FFA88F8BFB21FFA04
:101880008CFC80B20B800ED00EEA0C0313F4804F58
:101890000CD0012A0CBF634B634B4BF6FF72A3F8CD
:1018A00040201223238003B0BDE8F08313F4004FDF
:1018B0000DD113F4005F17D0012A0CBF594B5A4BBE
:1018C0004DF6FF72A3F8402013232380EBE7012A93
:1018D0000CBF544B544B47F6FF72A3F84020112322
:1018E000238003B0BDE8F08313F4805F12D1304051
:1018F00013F480761BD010F0010F18D0012A0CBF12
:10190000484B494B40F2FE32A3F846200123238086
:101910000B80C8E7012A0CBF424B434B4EF6FF72C7
:10192000A3F8402014232380A1F800E0BBE713F4C0
:10193000806C07EA05070ED0FD070CD5012A0CBF05
:10194000384B394B40F2FE32A3F84A2002220123E1
:1019500022800B80A7E713F4007E08EA09050FD068
:1019600015F0010F0CD0012A0CBF2E4B2E4B40F26C
:10197000FE32A3F848200322012322800B8092E745
:101980001B051DD466B1012A0CBF264A264AC34353
:10199000C3F30903A2F8463001232380088082E7BD
:1019A000BCF1000F2DD0012A0CBF1E4A1E4AFB437A
:1019B000C3F30903A2F84A30022323800F8072E7A1
:1019C000104601910092FFF7D1FA009A0199012A7D
:1019D0000CBF144B144B08804FF2FF70A3F840006B
:1019E000152323800B8803F00703062B7FF45BAFDE
:1019F0001046009100F076F90099002323800B80B7
:101A000051E7BEF1000F3FF44EAF012A0CBF054A6B
:101A1000054AEB43C3F30903A2F8483003232380AC
:101A20000D8040E7000006400000094010B5044664
:101A300000F058F92046FFF72BFB0A4B02462046E0
:101A40001A80FFF735FB084B024620461A80FFF745
:101A50003FFB064B024620461A80FFF749FB044B2A
:101A6000188010BDD007FE1FD207FE1FC407FE1F3F
:101A7000C607FE1F08B590F82000FFF777FA00F0C0
:101A80007000A0F13000B0FA80F0400908BD00BF3E
:101A9000704700BF10B5044690F8200000F010F920
:101AA00094F82000BDE8104000F0FAB80B4602227E
:101AB00001461846FFF706BD02220021FFF702BDCE
:101AC0002DE9F041450880460F4614461E4623D0B6
:101AD00002EB450534F8022B39463046FEF7FAFF93
:101AE000AC42F7D118F0010F02D12846BDE8F081D1
:101AF000394630460022FFF7A1F815F8012B394688
:101B00003046FFF707F830464FF480623946FFF75A
:101B100095F82846BDE8F0811546E3E72DE9F04148
:101B200045080746884614461E4617D002EB450571
:101B300041463046FEF7B4FF24F8020BAC42F7D121
:101B4000FB0702D42846BDE8F08141463046FEF747
:101B5000A7FF05F8010B2846BDE8F0811546EFE721
:101B60002DE9F0410446154610460F462146FEF782
:101B7000CDFE21462846FFF76BF921462846FFF7A0
:101B80009FF921462846FFF7D5F921462846FEF75A
:101B90002DFF00212846FEF7DDFF00F00F008442F4
:101BA00023D021462846DFF8548000F0E3F921468F
:101BB0002846FFF7EFFB58F82460A6B10E4B53F808
:101BC0002430336121462846B784FFF7B1FB58F82B
:101BD0002410F0844B681BB1002208461146984738
:101BE000002348F82430BDE8F08100231A46194646
:101BF0002846FEF7D1FED4E7F804FE1F5804FE1F66
:101C000010B5064C238803B910BDFFF723FD6420EF
:101C1000FFF7B2FD0023238010BD00BF5404FE1F58
:101C2000024B01221A80FFF717BD00BF5404FE1FAC
:101C300030B9074A13889BB243F0100313807047F2
:101C4000044A13889BB243F010031380704700BF0F
:101C5000000009400000064038B9054A138823F007
:101C600010031B041B0C13807047024AF6E700BFE9
:101C7000000009400000064030B9074A138E9BB2AD
:101C800043F4804313867047044A138E9BB243F497
:101C900080431386704700BF0000094000000640E3
:101CA00038B9054A138E23F480431B041B0C13869A
:101CB0007047024AF6E700BF0000094000000640F6
:101CC00028B9064B4BF6FF72A3F840207047044B2F
:101CD0004BF6FF72A3F84020704700BF0000094098
:101CE0000000064028B9064B4FF6F772A3F84020D3
:101CF0007047044B4FF6F772A3F84020704700BFBF
:101D0000000009400000064040B9094AB2F86030BE
:101D10009BB243F00403A2F860307047054AB2F862
:101D200060309BB243F00403A2F86030704700BFFC
:101D30000000094000000640F0B9104B1A8892B22A
:101D400042F480621A801A885205FCD50E22C3F82C
:101D5000F0201A8822F020021204120C1A801A882D
:101D600092B24FF480614FF41D4042F001021A809C
:101D70001984198599851886704700BF00000940AD
:101D800088B90C4AB2F8603023F003031B041B0C23
:101D9000A2F86030B2F860309BB231B943F0010371
:101DA000A2F860307047044AECE743F00203A2F85F
:101DB000603070470000094000000640104B90F86A
:101DC00000C033F81C309BB2022B01D000207047BA
:101DD0000C4B1B88012B10D000B50B4B8FB04FF074
:101DE000010E10466A468DF820C0A3F800E000F00E
:101DF0005DF900200FB05DF804FBD520704700BFEF
:101E0000000CFE1FC007FE1FEC07FE1F30B5044686
:101E1000037899B010461F4A8DF8483032F81330D5
:101E20009BB2022B02D0002019B030BD0D4669B123
:101E3000194B1B88012B27D0184B01240AAA2946CD
:101E40001C8000F0EFF8002019B030BD0028EFD161
:101E5000A3880AA8D3B1FFF72FFE04F10C0393E87F
:101E6000030004AB83E8030022788DF804200024EB
:101E70009223082001A90394ADF808408DF807309B
:101E800000F0ACF82046CFE7D520CDE700F080F891
:101E9000E3E700BF000CFE1FC007FE1FEC07FE1F9C
:101EA000C378092B1DD84FEA430C10B55FFA8CF3A9
:101EB0000D4C14F803E00D4CCEEBCE0304EBC30342
:101EC000DA6000781A610A4A83F8200052F82C2060
:101ED000A3F81EE09960BDE8104018465A6000F073
:101EE000E3BB0020704700BF986E0000D009FE1FC2
:101EF0007C01FE1F092900D97047FEF7C5BF00BF4E
:101F0000092901D90020704708B5FFF711FA00F040
:101F1000030008BD09290FD810B541B10446FFF7E9
:101F20006FF92046FFF7B8F9C0F30A0010BDFFF7BC
:101F300023F9C0F30A0010BD00207047092901D918
:101F40000020704710B50446FFF75AF92046FFF706
:101F50006FF900F0100010BD092901D90020704769
:101F600010B50446FFF74CF92046FFF761F900F47D
:101F7000404010BD092900D9704738B50C460546C8
:101F8000FFF726FA21462846BDE83840FFF742BA57
:101F9000092900D970470122FFF794BA092900D90D
:101FA000704738B50C460546FEF7B0FC214628467A
:101FB0000222BDE83840FFF7B1BA00BF08B5FEF70E
:101FC00055FD00F00700013880B2032896BF024B90
:101FD000002033F8100008BDAC6E000030B50F4D86
:101FE0002B78EA1803EBC30C8E4601339070DCB2F9
:101FF000BEE80F0005EB8C0C0CF10C0CACE80F00EC
:10200000BEE80F00ACE80F00092CDEF80030CCF879
:1020100000308ABF00232C702B7030BD5808FE1F83
:1020200000F0F0B81E4B70B5144601221A801D4B0B
:1020300018601D4800222023016011462046FEF74B
:10204000ABFC00212046FEF7ADFE00212046FEF746
:10205000E1FF00212246084600F024FD0128054644
:1020600005D020F00206B6B25EB1284670BD20460B
:102070000021FFF73FFF20460021FFF789FF284698
:1020800070BD31462046FEF737FF31462046FFF748
:1020900031FF20463146FFF77BFF284670BD00BF69
:1020A000C007FE1FF804FE1F2005FE1F38B5104BA9
:1020B000144601221A800F4A10600F4800230D4673
:1020C0001A46194605602046FEF766FC20460021A8
:1020D000FEF768FE20460021FEF79EFE2046002106
:1020E000FFF708FF20460021BDE83840FFF750BF4A
:1020F000C007FE1FF804FE1F2005FE1F38B51A4A50
:102100001A4B0C4605460021204611801980FEF727
:1021100011FF00212046FEF79BFE00212046FEF71E
:10212000CFFE94F82030012B0CBF4FF400624FF427
:10213000806200212046FEF781FD25F00203052B79
:1021400007D0082D0AD094F82000BDE83840FFF7EA
:10215000DBBD2046BDE83840FFF7AEBC204600217D
:10216000BDE83840FEF7D2BBC007FE1FEC07FE1FDC
:1021700000B5084A90F820308BB04FF0010C01A94F
:102180000320A2F800C08DF80430FFF727FF0BB042
:102190005DF804FB4805FE1F00B58BB090F82030B9
:1021A0008DF8043001A90420FFF718FF0BB05DF88B
:1021B00004FB00BF00B58BB090F820308DF80430E0
:1021C00001A90520FFF70AFF0BB05DF804FB00BF73
:1021D000704700BF0A4B1A88012A00D0704700B52B
:1021E0008BB090F820208DF804204FF0000C01A94E
:1021F0000620A3F800C0FFF7F1FE0BB05DF804FB6A
:102200004805FE1F30B5724C94F8513094F85020B8
:102210009A4291B001D111B030BD04EBC30034F843
:10222000332041884068013A80788DF82800142ACC
:1022300011D8DFE802F00B676D10101010101010AD
:102240001010101010105D4F10421E0002A800F078
:1022500009FB94F851305F4A0133DBB2A2FB031251
:10226000D20802EB8202A3EB420384F8513011B092
:1022700030BD11F007055DD1574B1B88012B00F0D5
:102280009280564B1B8813F0600F03F0600200F041
:102290008E80534A534812884280534A53491288C9
:1022A0008280534A0380CB6A1288C28013B102AA8B
:1022B0002946984794F85130CDE701F07002402A42
:1022C00032D02BD8102AC6D102A800F0F1FE94F823
:1022D0005130C0E7454B5B6A02A823B1002211468A
:1022E000019098470198FFF7D5FB94F85130B2E779
:1022F00000F080FF402802A82FD000F003FF94F8E0
:102300005130A8E702A800F0E3FA94F85130A2E7B0
:1023100002A800F0D7FA94F851309CE7602A03D065
:1023200001F05001502996D102A800F02DFF94F839
:10233000513090E701F00503012B31D0052D2FD04E
:10234000264B1B8813F0600FA3D1013D042D38D814
:10235000DFE805F01A140E08200000F0C7FE94F81C
:10236000513078E702A801F05DFB94F8513072E734
:1023700002A801F063F994F851306CE702A801F06B
:10238000F7FA94F8513066E702A801F00FF894F8D4
:10239000513060E702A801F053F994F851305AE740
:1023A000FFF744FBCCE702A8FFF772FB69E7114B8C
:1023B00011491A8002A80A8000F0B8FF94F8513041
:1023C00049E702A90720FFF799FE94F8513042E748
:1023D000F407FE1FCDCCCCCCEE07FE1FD007FE1FAE
:1023E000D207FE1FC807FE1FC407FE1F4C07FE1FB3
:1023F000C607FE1FEC07FE1FC007FE1F38B50F4BB8
:10240000C58B43F825000446FFF734FB012806D0AE
:10241000284622460721FFF7A3FB002038BD2946A6
:102420002046FFF78BFD20B9284600F0C5FB0020B1
:1024300038BD284600F008FB002038BD5804FE1FB8
:1024400010B4064C064B0748002121804FF4FF7260
:102450005DF8044B198002F047B900BF4A07FE1F20
:10246000C207FE1F4C05FE1F044B84464FF4FF724B
:102470000348A3F800C0002102F036B94A07FE1F46
:102480004C05FE1F044BFF2203F1200123F8022F0D
:102490008B421A84FAD170477E07FE1F014B9B685E
:1024A000187970474C07FE1F00B5134B996891F8D7
:1024B00000E091F802C00EEB0102C9784CEA012C51
:1024C000E64514D21FFA8EF34FF0000E517804291E
:1024D00004D19178814208BF92F803E011780B444F
:1024E0009BB263450A44F1D370465DF804FB4FF09C
:1024F000000E70465DF804FB4C07FE1F2DE9F0410D
:10250000244B9B68DD7893F802E01C780EEB052ED7
:102510001FFA8EFE7445234434D20026A2B21E4F09
:10252000B04634461BE0BCF1050F12D1B44210D2C4
:102530009D7893F902C005F00F054FEADC7C05EBAE
:102540000C1508EB040C5FFA8CFC013427F815C05D
:10255000A4B21D782A4492B272452B4412D293F849
:1025600001C0BCF1040FDED19D7885420CD093F8F8
:1025700004C0C4441FFA8CF81D782A44D2B27245B4
:102580002B44ECD3BDE8F081DD788D42EFD11E798C
:10259000F2E700BF4C07FE1F8007FE1F044B1888A0
:1025A00020B1044B9B68D879C0F34010704700BF3E
:1025B0004A07FE1F4C07FE1F024B9B68D879C0F3E9
:1025C000801070474C07FE1F092800D9704738B5A6
:1025D0000446154600F030FB032807D8431E022BA3
:1025E00022D8DFE803F00C02130038BDFF2814D115
:1025F0002A4620461521BDE83840FFF7B1BA2A46E1
:1026000020460421BDE8384000F08EBB2A46204613
:102610000521BDE83840FFF7A3BA2A462046072126
:10262000BDE83840FFF79CBA2A4620460321BDE8A2
:10263000384000F079BB00BF092800D9704770B559
:1026400004460E46154601461046FEF701FC2A4692
:102650003146204600F026FA022813D009D8214638
:102660002846FEF749FC21462846BDE87040FFF7A2
:1026700041BCFF2810D12A4620461521BDE87040F4
:10268000FFF76EBA21462846FEF7C6FB21462846CC
:10269000BDE87040FFF72EBC2A4620460721BDE862
:1026A0007040FFF75DBA00BFC18BC1B10D4B53F84D
:1026B000213010B5044623B1FFF74EFCB0F5404F72
:1026C0000BD12046FFF7D6F9012801D0FF2010BD1D
:1026D0002046BDE81040FFF791BED52010BDFF2079
:1026E000704700BF5804FE1F4A6830B4D2E9005159
:1026F000D468D1B190680E4BC3E90054C3E902100D
:1027000015690C4C0C480D49127D83F83020C3E943
:102710000454C3E906010A4C0A490B48C3E90841BD
:102720000A4930BCC3E90A01704791680846E2E7EC
:102730004C07FE1FBD27000071210000D5210000BD
:1027400099210000B5210000D1210000613B00006B
:102750002DE9F047047894422BD2064617469A4654
:102760004FF000094FF0FF0808E0BCF1050F16D04C
:1027700095F800C06444A4B2A7420DD9351995F864
:1027800001C0BCF1040FF0D195F800C095F8059098
:102790006444A4B2A742F1D84046BDE8F0874A4657
:1027A0005146284600F094FB002818BF4FF000085F
:1027B000DEE74FF0FF084046BDE8F087F0B5274B55
:1027C0001A88012A8DB004460E4635D003AFC02EBC
:1027D000234B24D09D68002D3AD002226A70DB681A
:1027E0001BB107225A7005B9FEE7EB78AA7894F876
:1027F000200002EB032292B2019200F0D1FB019A79
:10280000234631462846FFF7A3FF94F820308DF881
:102810000C3039460120FFF7E1FB0DB0F0BDD3E9E4
:102820000225CAB107215170DB68002BDBD00222E0
:102830005A70002DD8D0D8E7002103AF90F820209F
:102840001980062039468DF80C20FFF7C7FBBEE73C
:10285000DB68002BC5D1C7E72B46E6E74805FE1F1E
:102860004C07FE1FCB0711D5002110B502460446C8
:10287000084600F0E1F9032812D009D8022819D03F
:1028800020460021BDE81040FEF7E2BA00F052BA3F
:10289000FF2815D121460720BDE81040FFF72EBCC8
:1028A00020460021FEF77EFA21460520BDE81040B3
:1028B000FFF724BC20460021BDE81040FFF768BBAD
:1028C00010BD00BFCB0700D5704700F063BA00BF52
:1028D000CB0717D5002110B502460446084600F084
:1028E000E1F8022811D005D820460021BDE81040AB
:1028F000FEF720BBFF2807D121460720BDE8104086
:10290000FFF7FCBB00F072BA10BD20460021BDE805
:102910001040FFF73DBB00BF38B5EFF30383103B1A
:10292000114A124C5BB252F82350A878FFF768F9AD
:1029300094F8500004EBC003C0005D60811CAA78CD
:1029400021441846FEF778FF94F85030084A0133C6
:10295000DBB2A2FB0312D20802EB8202A3EB42031A
:1029600084F8503038BD00BF4C0CFE1FF407FE1F2A
:10297000CDCCCCCC2DE9F0410446154610460F468F
:102980002146FDF7C3FF21462846FEF761FA21469E
:102990002846FEF795FADFF84C8021462846FEF7D8
:1029A000C9FA21462846FEF721F858F82460A6B156
:1029B0000B4B53F82430336128462146B784FEF789
:1029C000B7FC58F82430F08400225D68DC83184698
:1029D0001146A847002348F82430BDE8F08100BF25
:1029E000F804FE1F5804FE1F91F82030114A4FEAE8
:1029F000D00C03EB830303EB83030CF0100C00F00B
:102A00000F0002EB83024CEA000C012303E00A2BC7
:102A100002F10A020BD05189012998B203F1010396
:102A2000F5D1918901F01F018C45F0D17047FF204D
:102A3000704700BF9404FE1F0020704708B5FDF7E3
:102A4000E1FFC0F3C01008BD092800D97047124B40
:102A500070B553F820500446014628462E69FDF70C
:102A600055FF0E4A0E4B42F82460AA6843F8242012
:102A700021462846FEF7CEFA21462846FEF786FA7A
:102A800020462A460021FFF7D7FD21462846BDE80B
:102A90007040FFF77DBA00BF5804FE1FF804FE1F08
:102AA0002005FE1F2DE9F04F092883B057D81546A1
:102AB00050EA010204460E4665D00A46002301464C
:102AC0002846FDF739FFFF2849D021462846FDF763
:102AD000FFFDDFF8DC90074621462846FFF71AFA8B
:102AE00059F82430BB42BB4629D94FF00208214691
:102AF0002846FFF705FADFF8BCA0019021462846DA
:102B0000FDF704FF5AF824202B4631463846FEF7DD
:102B1000D7FF4AF8240059F82400834525D8C01B64
:102B200049F8240028462146FEF774FA019B03F079
:102B30000300012831D0404603B0BDE8F08F43B315
:102B40009FB2B7FBF0F800FB18701FFA80F8B8F1DD
:102B5000000F2AD1002C08BF4FF00208C7E74FF042
:102B6000FF08404603B0BDE8F08F002331462846F9
:102B700049F82430FEF7A8F80304D3D43146284698
:102B8000FEF7D8F8CEE7202311462846FDF7D4FEFD
:102B900099E71F464FF00108A9E728462146FFF7AD
:102BA000F7F9404603B0BDE8F08F4FF001089EE70B
:102BB000F804FE1F2005FE1F092800D970471B4B93
:102BC00070B553F820600446014630463569FDF77C
:102BD0009DFE174B174AB16843F82450002342F872
:102BE0002410304621461A46FDF7D6FE21463046CF
:102BF000FFF790F94DB1B5FBF0F200FB125595B916
:102C000092B221463046FDF7DDFE21463046FFF701
:102C1000BFF921463046FEF7FFF821463046BDE8B1
:102C20007040FFF767B90132EAE700BF5804FE1FA2
:102C3000F804FE1F2005FE1F09282DE9F04734D8AF
:102C4000164604460A468946002301463046FDF7EB
:102C500073FEFF2829D0324FC0F30B0521463046C2
:102C6000FFF758F957F82430AB42AA462DD33CD091
:102C700005B3B5FBF0F300FB135080B2002847D139
:102C80004FF002082846274D334655F82420494680
:102C9000FEF744FF45F8240057F82430A3EB0A035D
:102CA00047F824304046BDE8F0874FF0FF08404623
:102CB000BDE8F08721463046FDF728FE4FF00108B9
:102CC00049463046FEF76EF8E6E721463046FDF706
:102CD0001DFE57F8243047F824509AB292464FF020
:102CE0000308002DECD01546CCE74CB9B5FBF0F34A
:102CF00000FB135080B218B92A464FF00208F0E7E3
:102D000021463046FDF702FE4FF000082A46E8E76C
:102D100021463046FDF7FAFD4FF00108B2E700BF4B
:102D2000F804FE1F2005FE1F092800D97047FFF791
:102D300021BE00BF2DE9F8430124DFF85490074677
:102D40000E46A04602E001340A2C1BD008FA04F318
:102D50001E42A5B2F7D029463846FEF75BF959F86E
:102D6000243029463846002BEDD0FFF7E7F810282D
:102D70003A464FF00001284606D00134FFF724FC04
:102D80000A2CE3D1BDE8F883FFF756FCDBE700BF70
:102D90005804FE1F2DE9F8430124DFF84C908046CB
:102DA0000E46274607FA04F31E42A5B209D059F889
:102DB00024302946404623B1FFF7CEF8B0F5404F06
:102DC00004D001340A2CEDD1BDE8F8834046FEF76B
:102DD00043F910F4004F4246284614BF052107214D
:102DE000FEF7BEFEEDE700BF5804FE1F2DE9F047D9
:102DF0000124DFF8D490DFF8D48006460D4627463C
:102E000007FA04F31D421FFA84FA29D059F8243036
:102E100033B396F8203003EB830304EB43035146AE
:102E200038F81330012B30461AD0FFF769F810F04C
:102E3000020F504638D151463046FEF779FA10F469
:102E4000804F5146504637D196F8203003EB83032C
:102E500004EB4303324628F813700121FFF78AFD83
:102E60000134062CCCD1DFF860904FF0010808FA4D
:102E700004F31D42A7B20ED059F82430394630462B
:102E80004BB1FFF73DF810F0020F3246384607D03D
:102E90000621FEF765FE01340A2CE8D1BDE8F08773
:102EA0000121FFF767FDF6E7324606210134FEF700
:102EB00057FE062CA4D1D6E730460134FEF71CF8A5
:102EC000062C9DD1CFE700BF5804FE1F8004FE1FD3
:102ED00090F801C0BCF1050F0BD110B5C37803F019
:102EE0000303022B1ED0032B07D04FF0000C6046CB
:102EF00010BD4FF0000C6046704790F9023090F81A
:102F000002E0002BF1DA022AEFD191F820302249B9
:102F1000642202FB0312928F002AE6D106221F4C84
:102F2000944613E090F9023090F802E0002B22DB87
:102F30000A2ADAD191F820301749642202FB0312E1
:102F4000528E002AD1D162464FF485440EF00F0E06
:102F500044EA0E0E642402EB820204FB03F303EB4B
:102F60004203CA188088D0800020A2F802E01081B5
:102F70000122CA52BBE70A2AB7D191F8203006498C
:102F8000642202FB0312128D002AAED1042244F205
:102F900010249446DAE700BF9404FE1F1080FFFF60
:102FA0000B4B00EB800000EB800203F15A0000EBBA
:102FB000820003EB820300215A89012A03D159813F
:102FC0009981198259820A338342F5D1704700BF33
:102FD0009404FE1F2DE9F041254F05460124642687
:102FE00002E001340A2C2BD095F8202004EB840356
:102FF00006FB02F202EB4303FB5A012BF1D1002145
:103000002846FDF7A7FD1FFA84F800F00F00804561
:1030100018D001212846FDF79DFD00F00F008045E6
:103020001ED002212846FDF795FD00F00F008045D7
:103030000FD0414628460134FDF762FB0A2CD3D15C
:10304000BDE8F08100231A4619462846FDF7A4FC86
:10305000DFE70023194602222846FDF79DFCE8E73A
:103060000023194601222846FDF796FCD9E700BF48
:103070009404FE1FF8B50D4E05460124642702E0B6
:1030800001340A2C11D095F8202004EB840307FBAF
:1030900002F202EB4303F35A012BF1D1A1B228460D
:1030A0000134FDF7CBFB0A2CEDD1F8BD9404FE1FD3
:1030B00038B504460C4D00F0BDF8FFF7C1F92046C5
:1030C000FEF77CFF6B691BB1014600222046984742
:1030D00020460021FEF738F82B682046D979BDE854
:1030E0003840FEF765B800BF4C07FE1F10B5044618
:1030F0000A20FEF745FB94F82000BDE81040FEF7DB
:1031000097BD00BF2DE9F041054690F820001A4F09
:10311000FEF7A2FD19491A4A00230B8013800124EF
:10312000642601E00A2C19D095F8203004EB8402C3
:1031300006FB03F303EB42031FFA84F8FB5A012B4F
:1031400004F10104EED12A4608214046FEF708FDAD
:1031500041462846FDF772FB0A2CE5D1094BDB6995
:103160001BB100221E212846984795F82000BDE893
:10317000F041FEF755BD00BF9404FE1F4A07FE1F35
:10318000C207FE1F4C07FE1F70B5044690F82000D2
:10319000FEF772FD94F82000FDF7E8FE0546204694
:1031A000FDF74AFC6B0603D500F00300012809D0A7
:1031B00094F82000FEF784FD94F82000BDE87040EC
:1031C000FEF76EBD94F82000FEF72AFD00F034F8FB
:1031D000054B1B6A33B1054920460988BDE870409C
:1031E0000022184770BD00BF4C07FE1FC207FE1F1C
:1031F000FEF762BC70B506463046FDF7B7FE0546E1
:103200000A20FEF7B9FA3046FDF7B0FE04460A2060
:10321000FEF7B2FA3046FDF7A9FE85EA0403444002
:103220001C432306E8D415F0800F14BF4020432030
:1032300070BD00BF704700BF704700BFF8B54022A7
:1032400005460E462548002101F04EFA4FF4FF7264
:103250000021234801F048FA224B234A23492448FD
:1032600000241C605C60234B14801C80224B234A8A
:103270001C80234B0C801C80224B14601C80224B32
:103280001C80224B2827214634221C8001F02CFA76
:103290003A4621461E4801F027FA3A4621461D4883
:1032A00001F022FA1C4B1D491C605C609C60DC60D4
:1032B0001C614FF00E333A460B604B600B8118488F
:1032C000214601F011FA174B174A1C803146284657
:1032D0001480BDE8F840FFF707BA00BF8007FE1F63
:1032E0004C05FE1FC807FE1FF007FE1FD007FE1F7C
:1032F0004C07FE1FD207FE1FC407FE1FD407FE1F88
:10330000C607FE1FC007FE1FEC07FE1F4805FE1F75
:103310002005FE1FF804FE1FD807FE1F5A08FE1FD7
:103320005804FE1FC207FE1F4A07FE1F184B194A0A
:103330001B8803F47F432DE9F041B3F5106F4FF084
:10334000000515800ED0B3F5306F19D1124B9B6A72
:10335000B3B1124A124914882A4631F81410BDE854
:10336000F04118470F4E104F04463088B7F80080E0
:10337000FFF77AF83388434502D0074B9B690BB9B6
:10338000BDE8F08139882A462046BDE8F04118475B
:10339000D007FE1FEC07FE1F4C07FE1FC407FE1FD1
:1033A0004C05FE1FD207FE1F4A07FE1F8B4B1988D4
:1033B00001F47F43B3F5006F02465AD030B583B0B5
:1033C00017D8002B31D0B3F5C06F35D111F01F03E2
:1033D00038D1834B19880B0A013BCCB2062B2BD872
:1033E000DFE813F07800B100A3002A002A00C00033
:1033F0008500B3F5206F1FD101F01F0101291BD1FA
:10340000774B1B88C3B9774B1888012814D1764BAA
:103410001B88FE2B10D8754C754934F813300B708F
:1034200003B0BDE83040FEF7FDBD6D4B1B881BB9F6
:103430006C4C2488022C2FD0104603B0BDE83040DD
:10344000FEF73ABB012BF7D16A48674D6A4B018002
:103450002988634C81806349DB6A24880988448019
:10346000C180002B00F09880002103B0BDE83040FF
:1034700018475D485A4BB0F800C01B8801F01F0088
:1034800043EA0C01014389B219B9564B1888012847
:103490007CD01046FEF710BB584C01F01F010129EB
:1034A000238000F08B80022978D00029C4D14E4BB4
:1034B0001B88002BC0D10190FFF77EF8504B207085
:1034C0001B88019A012B04BF40F0020020704B4979
:1034D0000220A5E7444B1B882343ADD14649414B0D
:1034E000096818880B7883429AD8184698E70190A3
:1034F000FFF7A4FA0128019A9ED13B4B1B88234376
:103500009AD11046FEF75AFD3B4BD3E90213C0286F
:1035100018BF19463348CC788B780088019A03EBA2
:1035200004239BB28342E0D97AE7334B93F83010FF
:10353000A14281D919692B4B51F8241018880B78B6
:103540008342D2D96CE7284B1B8823437FF474AFA6
:103550000190FEF733FD284BD3E90213C02808BFC2
:103560001946D7E70190FFF769FA0128019A7FF41D
:1035700063AF1D4B1B8823437FF45EAF1E49194B7D
:10358000496818880B788342AFD949E71D4B1E491B
:103590001B880B70FEF746BD03B030BD124D2B8863
:1035A0001B0733D190F820000192FDF719FE10F0AF
:1035B000020F019A8BD00123237088E70190FEF758
:1035C00059FA0128019A7FF437AFFEF767FF064BDF
:1035D000019A1B888342FFF47AAF2DE7D007FE1FC4
:1035E000D207FE1FC607FE1FC407FE1F4C05FE1FA5
:1035F0004808FE1FC807FE1F4C07FE1F5008FE1F8D
:10360000C207FE1F4A07FE1F4C08FE1F0190FEF76F
:1036100031FA0128019A7FF40FAF11462888FFF78D
:10362000E3F9FF28019A01463FF406AF1046FEF782
:1036300067FC10F0020F019ABDD148E7FEF73CBAD3
:10364000F0B5AE4D2A8802F47F43B3F5A06F8DB07C
:10365000044600F085801DD9B3F5106F00F090800E
:10366000B3F5306F09D1FEF705FA012805D12B8893
:1036700003F01F03012B00F0BB802046FEF71CFA6D
:103680009F4E3388012B2AD021460020FEF736FDBD
:103690000DB0F0BDB3F5807F46D0B3F5407FECD1DF
:1036A000984B1B88002BE8D112F01F0200F0DE803F
:1036B000022AE2D1944B1B88002BDED1934B188851
:1036C000020707D02146FFF78FF9FF28D5D0214602
:1036D000FEF7ECF900212046FEF75AFCD0E78A4BB2
:1036E0008A4A1B88ADF81A30864B298812881B88B5
:1036F000ADF818100025ADF81C20ADF81E30922250
:1037000094F820308DF80F2003A908208DF80C3094
:103710000595ADF81050FEF761FC2146002035807C
:10372000FEF7ECFC0DB0F0BD764B1B88002BA4D14E
:1037300012F01F0200F08480022A9ED1724B1B8877
:10374000002B9AD1714B1B8813F00F0140F097802A
:103750000191FEF723FC01992046FEF719FC8FE743
:103760006A4B68491B88098802F01F020B431A4301
:1037700092B2002A81D1644B1B887F2BAAD97CE7A7
:10378000D3067FF47AAF624B5F4F9A683B885279D9
:103790009A4202D0002B7FF470AF5C4A594B1688D6
:1037A00019880E43B6B2002E7FF467AF314620462B
:1037B000FEF7EEFB3B88002B3FF462AF554A1288C0
:1037C0009A423FF45DAFFEF75DFEFEF767FE0746E7
:1037D00038B1304601360021FEF790FEB0B2874284
:1037E000F8D82046FFF746FC2046FFF7F3FB47E7F3
:1037F000464EFEF753FE33889842FFF43EAF414AEF
:103800001788002F7FF439AF1846FEF74DFE3E4B68
:103810001B889842FFF431AF328839463E4FDBB205
:1038200027F812302046FEF7B3FBFEF72BFE308858
:1038300037F81010FEF762FE2046FFF7CBFB1FE7BC
:10384000314B1B88012B7FF418AF304B1E88002EA4
:103850007FF413AFFEF7A2FE01287FF40EAF2F4BCB
:10386000314620461E80FEF793FB09E7264B1B8856
:10387000012B5DD0022B2BD0FFF7BAFC00E70146ED
:103880001846FFF7B1F8FF2806463FF4F6AE0146AA
:103890002046FEF735FB01283146204659D0FEF779
:1038A0007DFB31462046FDF7D3FD00212046FEF783
:1038B0006FFB1B4B33F81620012A7FF4E1AE002288
:1038C00023F81620174B11461B6820469847D7E669
:1038D000FEF774FBC0287FF4D0AE0C4B1B88A3F519
:1038E000804211047FF5C9AE0F4A012111800F4AB1
:1038F000002120461380FEF74BFBC1E6D007FE1FD8
:10390000EC07FE1FC607FE1FD207FE1FC407FE1FDF
:103910004C07FE1F4A07FE1F4C05FE1FC207FE1F75
:10392000D807FE1FD407FE1FEE07FE1FF007FE1F7D
:103930000D4B1E88002E7FF4A0AEFEF72FFE01284F
:103940007FF49BAE094B314618802046FEF720FBE2
:1039500096E6FCF7DBFF31462046FDF779FD314660
:103960002046FEF715FBA0E7C407FE1FC207FE1F97
:1039700070B5274E338803F47F43B3F5006F8AB0E8
:10398000044606D013D9B3F5206F02D0B3F5406FCB
:1039900012D1204D00212046FEF7FAFA2B88012B88
:1039A00011D021460020FEF7A9FB0AB070BD002B04
:1039B000EFD0B3F5C06FECD0164D2046FEF77CF883
:1039C0002B88012BEDD1144B144A1B88ADF8123013
:1039D000134B318812881B88ADF810100026ADF803
:1039E0001420ADF81630922294F820308DF807207C
:1039F00001A908208DF804300396ADF80860FEF7A1
:103A0000EDFA214600202E80FEF778FB0AB070BD4B
:103A1000D007FE1FEC07FE1FD207FE1FC407FE1FC4
:103A2000C607FE1F70B5204E338803F47F43B3F5FD
:103A3000E06F8AB004460BD01C4DFEF73DF82B8892
:103A4000012B0CD021460020FEF758FB0AB070BDB8
:103A5000164D0021FEF79CFA2B88012BF2D1144B56
:103A6000144A1B88ADF81230134B318812881B881A
:103A7000ADF810100026ADF81420ADF816309222E3
:103A800094F820308DF8072001A908208DF8043023
:103A90000396ADF80860FEF7A1FA214600202E80BB
:103AA000FEF72CFB0AB070BDD007FE1FEC07FE1F0F
:103AB000D207FE1FC407FE1FC607FE1F30B5034610
:103AC0008BB00C460068596804AB03C32046002144
:103AD000FEF75EFA002594F820308DF8043092222B
:103AE00001A908208DF807200395ADF80850FEF7CE
:103AF00075FA044B214628461D80FEF7FFFA0BB0ED
:103B000030BD00BFEC07FE1F30B503468BB00C463E
:103B10000068596804AB03C320460021FEF738FA59
:103B20000D4ABDF81630116894F820208DF8042055
:103B3000922000255B1A8DF8070001A90820039345
:103B4000ADF80850FEF74AFA044B214628461D807E
:103B5000FEF7D4FA0BB030BDF804FE1FEC07FE1FD1
:103B600010B50346008800F0600020288CB001D01A
:103B7000402806D105295DD8DFE801F02E194E193D
:103B800055341868596892F820204FF0920C06AB13
:103B90008DF80FC003C3002303A907208DF80C2064
:103BA0000593ADF81030FEF719FA0CB010BD186887
:103BB000596892F820408DF80C4006AB03C30022F0
:103BC000922303A907200592ADF810208DF80F303D
:103BD000FEF704FA0CB010BD1A491B4A00230B80F3
:103BE0001380E2E718685968019206AB03C392F8A4
:103BF00020008DF80C000024922303A907200594CF
:103C0000ADF810408DF80F30FEF7E8F9019A204624
:103C10001146FEF773FAC8E7114618460CB0BDE826
:103C20001040FFF74BBF114618460CB0BDE81040DE
:103C3000FFF76ABF114607200CB0BDE81040FEF741
:103C40005DBA00BFC007FE1FEC07FE1F70B50E2354
:103C5000144D0B700E460446FEF7E2F96B782A7895
:103C60009A421CD003EBC30E05EB8E0E0EF10C0E28
:103C7000A446EC18BEE80F00ACE80F00BEE80F0049
:103C8000ACE80F00A478DEF80030CCF800303470D7
:103C90006B780133DBB2092B88BF00236B700020E7
:103CA00070BD00BF5808FE1FF8B540B30C4631B3D5
:103CB0008A780270CB7803F07F03C370096A816150
:103CC000012A054617D8617802291BD921780129D4
:103CD00011D1112B0FD801FA03F313F45D3F0AD071
:103CE0004C4EB35C012B48D140F2DD5605E0237801
:103CF000012B00F0838040F2E2563046F8BD0126E9
:103D00003046F8BD112BF6D801A050F823F000BFC3
:103D1000593D0000F73C0000F73C0000F73C000074
:103D2000593D0000F73C0000593D0000593D00009E
:103D3000593D0000593D0000EF3C0000F73C0000F9
:103D4000EF3C0000EF3C0000EF3C0000593D00005C
:103D5000EF3C0000EF3C00002378022BCBD1002980
:103D6000C9D060680028C6D00229C4D0294EB15CF1
:103D70000129B9D0284921F812304FF4BA72002134
:103D80002648274F00F0B0FC2B7826480122F25439
:103D9000254A002122F813104FF40C7247F8231023
:103DA00000F0A2FC2378012B01D10026A5E728789A
:103DB000FDF754FC064600289FD121462846FFF710
:103DC0003DFA21462878FDF777FC2878FDF7B4FF07
:103DD0002878FFF70FFA402814D02378012BE4D07D
:103DE0002B7857F8232042F0010247F8232057F898
:103DF000232042F0020247F823207EE702293FF405
:103E00007AAF6DE70A20FDF7BBFC2878FDF710FFBD
:103E1000E3E700BF040CFE1F000CFE1F5808FE1F46
:103E2000CC09FE1FD009FE1F5408FE1F70B5037891
:103E30002F4A012B05468EB032F813003DD80C46B0
:103E40000621A1702B4932F8130051F823100029E4
:103E50003ED032F813208DF8203093B2012B02D1DE
:103E600000200EB070BD002626706846FEF7A6F84A
:103E7000802831D0C0280ABF02236670637028787A
:103E8000FDF774F800F07003202B2ED00FD9302BE3
:103E900028D02F2B03D80020E0700EB070BD602B0F
:103EA00002D00ED9702BF6D10423A370F3E7B3B17F
:103EB000102BF0D10123A370EDE740F2E2500EB0D9
:103EC00070BD00F060004028EED00020E070E4E714
:103ED00040F2DC500EB070BD01236370CFE70623C3
:103EE000A370D8E70323A370D5E70223A370D2E71A
:103EF000000CFE1FCC09FE1F00283FD070B5264ED7
:103F0000044600780D4636F8101089B2022984B0B4
:103F10002CD036F8101089B2022904BF03F07F03B9
:103F2000E37005B30192F2B1012823D8E37803F0DE
:103F3000F70101291ED0A3F10D0102291AD9174951
:103F400051F82000012101FA03F3034212D003A922
:103F50002046FFF76BFF9DF80E30019A032B0FD020
:103F600040F2DC5000E0012004B070BD83F080011D
:103F70001229CED940F2E25004B070BD0120704742
:103F800029462046FDF78CFF0028EDD0D528E7D143
:103F900040F2DD50E8E700BF000CFE1FCC09FE1F19
:103FA000F0B583B0D0B10E46C1B101A917460446A1
:103FB000FFF73CFF054660B99DF80630032B08D19A
:103FC0003A4631462046FDF7F9FED5280AD0FF28AB
:103FD00001D140F2DC55284603B0F0BD012528464A
:103FE00003B0F0BD40F2DD55F5E700BFF0B583B09A
:103FF000D0B10E46C1B101A917460446FFF716FF1E
:10400000054660B99DF80630032B08D13A46314683
:104010002046FDF7FBFED5280AD0FF2801D140F24B
:10402000DC55284603B0F0BD0125284603B0F0BD9D
:1040300040F2DD55F5E700BF70B582B0B8B10E466D
:1040400001A90446FFF7F2FE054618B99DF80630AF
:10405000032B04D040F2DC55284602B070BDB1B24B
:104060002078A180FDF78CFE284602B070BD0125A6
:10407000284602B070BD00BF0388002B79D02DE91F
:10408000F04FDFF8F490DFF8F4B083B007464FF05C
:1040900000087B68374E4FEAC805591940F20242C2
:1040A000898891424FF000044FF0010A09D0013491
:1040B000032C26D07B6836F8022B59198988914247
:1040C000F5D15B5999F8BB2403F0B853B3F1807F65
:1040D0000AFA04F3D9B21CD013423BD104F12003F5
:1040E0001BF81320D209E2D01BF813206FF3C7127C
:1040F0000BF813200121C820013400F0A3F9032C90
:10410000D8D13B8808F101084345C2D803B0BDE8C7
:10411000F08F134210D004F120031BF81320D209B2
:10412000C5D11BF8132042F080020BF813200121A7
:10413000C82000F087F9BAE70120019100F010FAD9
:1041400099F8BB340199194389F8BB14012000F098
:10415000D7F9E0E70120019100F002FA99F8BB34A9
:10416000019923EA010189F8BB14012000F0C8F984
:10417000B4E77047B66E000000E001400040044024
:10418000F8B50446FFF778FFEFF31082012383F3BD
:104190001088234E33681BB92249CB704023CB7063
:1041A00033680133336082F3108825882DB3626849
:1041B0001D4C013DADB202F1080101EBC50500E067
:1041C00008311068928810F4803F4FEA12235FFA9A
:1041D00082FC0CEB031E09D054F82E7020F48032C0
:1041E0006FF3104744F82E7044F82E201B016344EF
:1041F0008D4244F823000A46E2D1EFF310820123F6
:1042000083F31088336813B13368013B336033683C
:104210001BB904498020CB70C87082F31088F8BDA8
:10422000480CFE1F000D04400008044068B161B155
:1042300008B54B686BB1084B02689A4207D003601F
:104240000846FFF79DFF002008BD012070470E20A3
:1042500008BD012008BD00BF54524F50064B07490E
:1042600093F826001A6A51F820300549C2F3026219
:10427000D3400B60704700BF00E00140E403FE1F25
:10428000D80DFE1F38B53B4B3B493C4C3C4A3D4D9D
:104290004AF20350A3F8FE030020A1F800013A49B6
:1042A00093F826006160394922604FF40042C4E966
:1042B00002213749C4E90421196A54F82020C1F3C6
:1042C0000261CA402A602021092283F8131483F86E
:1042D000A22093F88024002A44D0264A00230621F5
:1042E00082F8813482F8803482F8A51082F8323066
:1042F00092F83C301907FBD500234FF41C5111856F
:1043000082F82A301B4B93F83C209206FBD51A4AC0
:10431000022182F81C111F491962052183F8261019
:1043200093F8261054F821001C6AC4F30264E0409C
:104330002860012160244FF4254083F8301083F871
:10434000521083F8531083F82440A3F8FE03A2F818
:104350000411B2F804319BB2002BFAD10123A2F868
:10436000003138BD012183F8801440F2C44000F0D0
:1043700069F8B2E700E0014000C00140E403FE1F1D
:10438000002D3101D80DFE1F00127A00001BB7006E
:10439000001C4E0E2112012138B5244C002584F852
:1043A00028500121C82000F04DF884F8245094F8DA
:1043B0002430002BFBD194F824301C4A43F0020334
:1043C00084F8243092F82430C3F340009B07F9D4DA
:1043D00082F8220092F84030144960F3C71382F843
:1043E000403091F84030DB09FBD191F842000F4A90
:1043F00063F3C71081F8420092F84230DB09FBD129
:1044000092F84400094963F3C71082F8440091F818
:104410004430DC09FBD1012000F0A2F8044B01205C
:1044200083F8BB44BDE8384000F06AB8004004405F
:1044300000E0014000BEFEE7A0F101000028FBD132
:10444000704700BF30B5144D144A00FB01F14FF422
:104450007A732868B2FBF0F2A1FB03C44FF0FF307F
:104460004FF0000E60457EEB040407D3BCFBF2F076
:10447000800878B1BDE83040FFF7DEBF9200B1FBA5
:10448000F2F1A1FB031388427EEB0303F2D308464B
:104490000028EFD130BD00BFD80DFE1F00CA9A3BE7
:1044A0000B4B70B5B3F840510A4E0024ADB225FA5B
:1044B00004F3DB07E0B203D556F8243003B1984784
:1044C0000134102CF3D1024BA3F8305170BD00BF62
:1044D00000600040080CFE1F10B4074A074C002380
:1044E00003F1C001013332F8020F44F82100602BC0
:1044F000F6D15DF8044B7047D66D000000600040B7
:10450000EFF31081012383F31088124B33F810204E
:1045100092B22AB133F81020013A92B223F8102057
:1045200033F810309BB293B90B4A10B4B2F8FE3393
:104530000A4C9BB234F8100043F4254323EA0003ED
:10454000A2F8FE3381F310885DF8044B704781F3C5
:1045500010887047CC0DFE1F00E00140BC6E0000CB
:1045600030B4EFF31081012383F310880E4A32F840
:1045700010309BB26BB90D4C0D4DB4F8FE3335F8CD
:1045800010C09BB243EA0C0343F425439BB2A4F84A
:10459000FE3332F8103001339BB222F8103081F331
:1045A000108830BC704700BFCC0DFE1F00E00140FA
:1045B000BC6E00000B4A08B50346106840B10333D7
:1045C000094923F0030303448B4204D8136008BD58
:1045D00006481060F3E700F073F80C2303604FF017
:1045E000FF3008BDD40DFE1FF011FE1FF00DFE1FA1
:1045F00000BE704708B500F003F8FBF7F9FFFEE7CF
:10460000234B70B54FF47002224DC3F88820002070
:104610009D60FBF7E1FFFFF735FE0120FBF7DCFFB4
:104620001D4B29681D481E4D00244FF425429C80D7
:104630001A80A1F580629A601A4AD9604FF48056B8
:104640000121A5F82061121A9980214600F04CF84A
:104650001548164A1649174D121A00F037F8164B2E
:104660005B1BA34206DD9E1055F8043B01349847BE
:10467000A642F9DCFFF7F2FDFFF78EFE0220FBF702
:10468000ABFFFFF729FFBDE87040002000F016B82F
:1046900000ED00E000000000000D00400004FE1FDF
:1046A00000600040EC0DFE1F0000FE1FE403FE1F33
:1046B00074720000DC03FE1FE003FE1F704700BFA2
:1046C000014B1868704700BF0C02FE1F0A4491425C
:1046D00000F1FF3300D1704710B511F8014B03F81A
:1046E000014F9142F9D110BD02440346934200D1DB
:1046F000704703F8011BF9E72DE9FF4755EC104B14
:10470000002D0E4619462B46BBBF05F100431D4642
:1047100000232D230B700D9BDDF830A0914623F074
:104720002008BCBF22461446B8F1460F05D0B8F1A8
:10473000450F00D10136022100E0032103AB0193B4
:1047400002AB009345EC104B5346324600F0ACFBF5
:10475000B8F1470F074602D119F0010F22D0B8F186
:10476000460F07EB060910D13B78302B0AD1002207
:1047700000232046294602F021FA18B9C6F10106A5
:10478000CAF80060DAF8003099440022002320467D
:10479000294602F013FA08B1CDF80C903022039BA1
:1047A0004B4507D3039B0E9ADB1B3846136004B0BE
:1047B000BDE8F087591C03911A70F0E7F7B503467E
:1047C0000029B8BF494203F8022BB4BF2D222B2287
:1047D000092942702ADD0DF10704A4460A27A646DE
:1047E0000A4691FBF7F607FB16153035632A04F1EC
:1047F000FF340EF8015C3146F1DC3031AEF10205D8
:1048000004F8011C441C294661450AD30DF1090234
:10481000A2EB0E02654588BF00221344181A03B0AC
:10482000F0BD11F8012B04F8012FEDE730233031F2
:104830008370C170031DF1E72DE9F04F2DED028B60
:104840008DB00C46DDF8608016461F46054601F027
:1048500019F9D0F800A0504600F091FA00230A930D
:1048600023680593D8F8003094F818B0073323F084
:10487000070303F10802C8F80020D3E90023C4E9C4
:104880001223D4E9128929F000430793CDF8188048
:1048900008EE100A9F4BDDE906014FF0FF3202F0EF
:1048A000BFF988BBDDE906019A4B4FF0FF3202F0F9
:1048B00099F948BB002200234046494602F088F996
:1048C00010B12D2384F84330934B9448BBF1470F2C
:1048D00094BF9846804603232361059B23F004027E
:1048E00022604FF00009009733460BAA2146284664
:1048F00000F0D8F9013040F090804FF0FF300DB05B
:10490000BDEC028BBDE8F08F42464B46404649461F
:1049100002F086F940B14B46002BBCBF2D2384F832
:1049200043307F487F4BD1E763680BF0DF0206928C
:104930005A1C3FD106236360059B616843F4806283
:10494000002303930AABCDE901B309AB49EC108B0B
:10495000009322600DF123032846FFF7CDFE069B4E
:104960000999472B804608D1C81C02DB636899422D
:1049700041DDABF1020B5FFA8BFBBBF1650F20D879
:1049800001395A4604F150000991FFF717FF0A9ABE
:104990001318012A8146236102DC2268D20701D55F
:1049A000013323619DF82330002B9CD02D2384F804
:1049B000433098E7069A472ABED1002BBCD1012389
:1049C000B9E7BBF1660F18D1002963680BDD2161DF
:1049D00013B92268D00702D501330B442361A165C6
:1049E0004FF00009DEE713B92268D20701D5023380
:1049F000F4E70123F2E74FF0670B0A9B994205DBCE
:104A000023682161D807EAD54B1CE7E70029D4BF0A
:104A1000C1F1020201221344E0E723685A0507D4DA
:104A20002369424631462846B84701302CD164E715
:104A3000BBF1650F40F2E080D4E9120100220023AF
:104A400002F0BCF8002834D0374A0123314628460A
:104A5000B84701303FF451AFDDE909239A4202DB48
:104A60002368D80710D518EE103A5246314628462A
:104A7000B84701303FF441AF4FF0000804F11A0984
:104A80000A9B013B434509DC23689B0700F1058134
:104A9000E0680B9B9842B8BF184630E701234A46AE
:104AA00031462846B84701303FF427AF08F10108E6
:104AB000E6E7099B002B39DC1B4A012331462846D7
:104AC000B84701303FF419AFDDE90923134302D1A0
:104AD0002368D907D8D518EE103A524631462846F1
:104AE000B84701303FF409AF4FF0000904F11A0A4A
:104AF000099B5B424B4501DC0A9B92E7012352462E
:104B000031462846B84701303FF4F7AE09F10109B4
:104B1000EEE700BFFFFFEF7FC46E0000C86E00002D
:104B2000D06E0000CC6E0000D46E00000A9AA36D17
:104B30009A42A8BF1A46002A914637DC4FF0000B74
:104B400029EAE97904F11A02A36D0593A3EB09039D
:104B50005B4533DCDDE909239A423BDB2368DA0756
:104B600038D40A9B059A09999A1AA3EB0109914531
:104B7000A8BF9146B9F1000F35DC4FF0000829EAD3
:104B8000E97904F11A0ADDE909239B1AA3EB090369
:104B900043457FF779AF0123524631462846B8474F
:104BA00001303FF4AAAE08F10108ECE713463146A4
:104BB00042462846B8470130C0D19EE6012331461F
:104BC00028460592B84701303FF497AE059A0BF19D
:104BD000010BB9E718EE103A524631462846B8475D
:104BE0000130BED189E6059A4B46424431462846FB
:104BF000B8470130C1D180E60A9A012A01DCDB07FF
:104C000038D50123424631462846B84701303FF4A3
:104C100074AE18EE103A524631462846B847013075
:104C20003FF46BAED4E912010022002301F0C6FF6D
:104C3000D8B90A9B08F10102013B31462846B84722
:104C400001300ED159E60123524631462846B84775
:104C500001303FF452AE08F101080A9B013B434585
:104C6000F1DC4B4604F15002DCE64FF0000804F1A1
:104C70001A0AF2E701234246DFE701234A4631469A
:104C80002846B84701303FF438AE08F10108E36820
:104C90000B995B1A4345F0DCFAE64FF0000804F18B
:104CA0001909F4E72DE9F047164699468A680B6919
:104CB000DDF820809342B8BF1346336091F843205B
:104CC00007460C460AB1013333602368990642BF98
:104CD000336802333360256815F0060506D104F108
:104CE000190AE36832689B1AAB4226DC94F8432029
:104CF000131E226818BF012392062BD404F143022D
:104D000049463846C04701301ED02368E5683268FE
:104D100003F00603042B08BFAD1AA36822690CBF79
:104D200025EAE57500259342C4BF9B1AED180026BD
:104D30001A34B5421AD1002008E0012352464946F0
:104D40003846C047013003D14FF0FF30BDE8F0874F
:104D50000135C6E7E1185A1C302081F8430022448F
:104D600094F8451082F843100233C7E70123224626
:104D700049463846C0470130E6D00136D9E70346F8
:104D800013F8012B002AFBD1181A013870472DE9BE
:104D9000F74F03690C69A3420746C0F28180013CCA
:104DA00001F1140800F1140505EB8403019358F890
:104DB000243055F8242001339A424FEA840B08EB43
:104DC0008409B2FBF3F631D34FF0000E4046AC46F7
:104DD000F24650F8042B93B206FB03E34FEA134E5E
:104DE0009BB2AAEB0303DCF800A0120C13FA8AF3BF
:104DF00006FB02E20093009B4FEA124E92B2C2EB16
:104E00001A4202EB2342BDF80030814543EA0243D7
:104E10004CF8043B4FEA224ADBD255F80B302BB951
:104E2000019B043B9D421A462ED33C61384601F05B
:104E3000B7F8002824DB013628464FF0000C58F85C
:104E4000042BD0F800E093B2ACEB0303120C13FA7E
:104E50008EF3C2EB1E4202EB23429BB243EA0243B3
:104E6000C14540F8043B4FEA224CE8D255F82420D3
:104E700005EB840322B9043B9D421A460AD33C61E8
:104E8000304603B0BDE8F08F1268043B002ACCD155
:104E9000013CC7E71268043B002AF0D1013CEBE774
:104EA0000020EEE7FFFFFFFF2DE9F04F2DED048B13
:104EB00057EC106B93B0456ADDF88080069110EED8
:104EC00010AA044609920C93BB4675B9102000F055
:104ED000DDFD0246606220B9A74BEA21A748FFF733
:104EE000A9FAC0E901550560C560636A196851B146
:104EF0005A684A60012393408B60204600F00EFE02
:104F0000636A00221A603B1EAABF002323F0004BF5
:104F1000C8F800309A4BBCBF0122C8F8002033EA21
:104F20000B031BD10C9A42F20F731360CBF31303E4
:104F3000334300F09285219B63B9924B22E0924B60
:104F400001930833219A1360019813B0BDEC048BD0
:104F5000BDE8F08F8B4B01930333F3E7002200236E
:104F60005046594601F02AFE4BEC19AB804658B129
:104F70000C9A01231360219B002B00F06B85834862
:104F80001860431E0193DFE74BEC10AB10AA11A988
:104F9000204601F0ABF8CBF30A5508EE100A002DBD
:104FA00000F0848019EE903AC3F3130343F07F5767
:104FB000564647F44017A5F2FF35CDF83880744BBC
:104FC00000223046394601F0D9F965A3D3E9002320
:104FD00001F08CFB64A3D3E9002301F0D1F906466C
:104FE00028460F4601F018FB61A3D3E9002301F026
:104FF0007DFB02460B463046394601F0C1F90646B4
:105000000F4601F023FE002200900023304639466F
:1050100001F0DEFD50B1009801F0FEFA32463B4649
:1050200001F0CCFD10B9009B013B0093009B162BB7
:105030005AD8009A574B03EBC203D3E9002351EC33
:10504000190B01F0C5FD002850D0009B013B0093D7
:1050500000230B93109B5D1B6B1E059345BFC5F191
:1050600001030493002300234CBF05930493009B8A
:10507000002B3DDB059B009A0A9213440593002305
:105080000793069B092B00F28980052BC4BF043BC4
:105090000693069BA3F10203CCBF00250125032B39
:1050A00000F28780DFE803F02D3A3859DDE910532C
:1050B0001D4405F23243202BC1BFC3F1400305F26A
:1050C00012400BFA03F326FA00F0DABFC3F1200313
:1050D00006FA03F0184301F08FFA01230646A1F106
:1050E000F877013D0E936AE70123B2E70B90B1E731
:1050F000049B009A9B1A04935342079300230A933C
:10510000BFE700230893099B002B55DC0123CDE961
:1051100002331A4609920CE00123F3E70023099AAF
:105120000893009B134402930133012B0393B8BFF0
:105130000123606A00224260042202F114069E42AA
:1051400041683DD9204600F0A9FC019000283BD1E0
:10515000114B02464FF4D571C0E60123DFE700BFD3
:1051600061436F63A787D23FB3C8608B288AC63F6D
:10517000FB799F501344D33FE36E0000FA6E0000AA
:105180000000F07FDF6E0000D66E0000D56E0000DC
:105190000000F83F30700000786F00000125002308
:1051A000069308954FF0FF33CDE902330022122316
:1051B000B0E701230893F5E7099BCDE90233B8E78F
:1051C000013141605200B8E7636A019A1A60039B9B
:1051D0000E2B00F29D80002D00F09A80009B002B8A
:1051E00032DDB74A03F00F0302EBC303D3E90089B2
:1051F000009BD8054FEA231716D5B24B51EC190B7B
:10520000D3E9082301F09CFB07F00F0782468B4689
:105210000325AC4E57B942464B465046594601F01D
:105220008FFB82468B4628E00225F2E7F90708D576
:1052300040464946D6E9002301F058FA0135804638
:1052400089467F100836E5E700F09B80009B9D4F64
:105250005E429B4B06F00F0203EBC203D3E900232F
:1052600051EC190B01F042FA361182468B460023AD
:105270000225002E7AD1002BD3D10B9B002B00F0FE
:105280008280914B00225046594601F0A1FC002833
:1052900079D0039B002B76D0029B002B36DD009B40
:1052A000504659465F1E0022884B01F01FFA029EAD
:1052B00082468B460135284601F0AEF952465B46E0
:1052C00001F014FA824B002201F05AF8D046D94678
:1052D0008246A1F1507B002E58D17E4B00224046E1
:1052E000494601F04BF852465B468046894601F03C
:1052F0008DFC002840F0958252460BF10043404659
:10530000494601F065FC002840F089825BEC19AB4E
:10531000119B002BC0F24881009A0E2A00F34481B1
:10532000674B03EBC203D3E90089099B002B80F292
:10533000D580039B002B00F3D18040F06F82654B3A
:1053400000224046494601F0D1F952465B4601F041
:1053500053FC039E3746002840F04582019D3123CF
:1053600005F8013B009B0133009340E2F20705D5AD
:10537000D7E9002301F0BAF9013501237610083787
:1053800077E7022579E7009F039E94E701994C4B4C
:1053900031440D91089903EBC60353E90223002918
:1053A00043D04D49002001F0CBFA52465B4600F055
:1053B000E5FF019D82468B464946404601F046FC8A
:1053C000064601F029F902460B464046494600F0E0
:1053D000D5FF303605F8016B52465B46804689465C
:1053E00001F0F6FB002863D142464B4636490020C7
:1053F00000F0C4FF52465B4601F0EAFB002840F093
:10540000B5800D9B9D4281D0304B002250465946BD
:1054100001F06CF92D4B82468B46404649460022EE
:1054200001F064F980468946C6E75046594601F0C6
:105430005DF90D9B019D0F9382468B464946404680
:1054400001F004FC064601F0E7F8303602460B4650
:105450004046494600F092FF05F8016B0D9B9D42C6
:10546000804689464FF0000224D11B4B50465946D6
:1054700000F086FF02460B464046494601F0C6FB57
:10548000002873D152465B461349002000F076FF96
:1054900002460B464046494601F09AFB00283FF47D
:1054A00035AF0F9D6B1E0F9315F8013C302BF8D0D4
:1054B000009749E0054B01F019F980468946BDE7A0
:1054C00030700000087000000000F03F0000244031
:1054D00000001C40000014400000E03F019D5646C3
:1054E0005F4642464B463046394601F029FA01F004
:1054F000ADFB824601F090F842464B4601F0F6F8CB
:1055000002460B46304639460AF1300600F036FFB7
:1055100005F8016B019E039FAE1BB74202460B4686
:1055200035D100F02DFF42464B4606460F4601F0AE
:105530006DFBD0B942464B463046394601F03EFB42
:1055400010B11AF0010F10D1204618EE101A00F019
:10555000E5FA002300982B700C9B01301860219B0A
:10556000002B3FF4F1AC1D60EEE4009F2B461D467E
:1055700013F8012D392A06D1019A9A42F7D10199DF
:10558000302201370A701A7801321A7090E7A64B60
:10559000002201F0ABF80022002306460F4601F07E
:1055A0000DFB00289DD0CFE7089A002A00F0D78095
:1055B000069A012A00F3BA800E9A002A00F0B280FF
:1055C00003F23343079E049D049A1A440492059AF9
:1055D00001211A442046059200F058FB0746002D91
:1055E0000CDD059B002B09DDAB42049AA8BF2B46BE
:1055F000D21A0492059AED1AD31A0593079B1BB38E
:10560000089B002B00F0AF80002E13DD3946324698
:10561000204600F0FBFB18EE102A01460746204604
:1056200000F04AFB18EE101A8046204600F076FA89
:1056300008EE108A079B9A1B06D018EE101A204617
:1056400000F0E4FB08EE100A0121204600F01EFBEA
:105650000A9B002B064640F388801A4601462046E6
:1056600000F0D4FB069B012B064640F381804FF0EF
:105670000008336906EB8303186900F0B7FAC0F13C
:105680002000059B184410F01F0000F09280C0F12C
:105690002003042B40F38A80C0F11C00049B0344C8
:1056A0000493059B034405440593049B002B07DDED
:1056B00018EE101A1A46204600F002FC08EE100AF6
:1056C000059B002B05DD31461A46204600F0F8FB0D
:1056D00006460B9B002B6ED018EE100A314600F0E8
:1056E0005FFC002867DA009B013B18EE101A00935C
:1056F0000A220023204600F033FA089B08EE100A25
:10570000002B00F0B181002339460A22204600F028
:1057100027FA029B002B074600F38E80069B022B84
:1057200051DC89E0109BC3F136034BE7039B5E1EFF
:10573000079BB342BFBF079B0796F21A0A9BB6BFEF
:105740009B189E1B0A93039BB8BF0026002BB7BF74
:10575000DDE90323DDE903359D1A002334E7079EC5
:10576000049D089F3BE7079A67E7069B012B18DC1F
:10577000BAF1000F15D1CBF3130393B92BF000430B
:105780001B0D1B0583B1049B01330493059B01335F
:1057900005934FF001080A9B002B7FF46AAF0120AC
:1057A0006FE74FF00008F6E79846F4E73FF47DAF67
:1057B00018461C3072E7039B002B37DC069B022B3C
:1057C00034DD039B0293029B6BB9314605222046D0
:1057D00000F0C6F90146064618EE100A00F0E0FB9C
:1057E00000283FF7BBAD099B019DDB4300934FF0C1
:1057F00000083146204600F091F9002F3FF4A4AE96
:10580000B8F1000F05D0B84503D04146204600F05E
:1058100085F93946204600F081F995E6002637469D
:10582000E1E70097374699E500002440089B002BEC
:1058300000F0CA80039B0293002D05DD39462A46FD
:10584000204600F03DFB0746B8F1000F5BD07968B9
:10585000204600F023F9054628B9874B024640F25E
:10586000EA21FFF73BBB3A690232920007F10C01D3
:105870000C30FEF72BFF01222946204600F020FBCA
:10588000019B03F10109DDE90123134405930AF0AB
:105890000103B84604930746314618EE100AFFF795
:1058A00076FA4146029000F1300A18EE100A00F034
:1058B00077FB3A4603903146204600F08DFBC268E4
:1058C00009F1FF3B054602BB014618EE100A00F045
:1058D00067FB024629462046079200F01FF9DDE9E2
:1058E000063243EA0201049B0B434D460FD1BAF145
:1058F000390F2AD0039B002B02DD029B03F1310AF2
:105900008BF800A075E73846BAE70122E2E7039B6F
:10591000002B04DB06990B4304990B4322D1002A88
:10592000EEDD18EE101A0122204600F0C9FA3146C9
:1059300008EE100A00F034FB002803DCE0D11AF076
:10594000010FDDD0BAF1390FD7D139238BF80030F0
:105950002B461D46013B15F8012C392A71D0013226
:105960001A7046E7002A07DDBAF1390FEDD00AF1C7
:1059700001038BF800303CE7059B09F801AC994521
:1059800047D018EE101A00230A22204600F0E8F84B
:10599000B84508EE100A4FF000034FF00A024146E6
:1059A000204606D100F0DCF88046074609F10109DF
:1059B00072E700F0D5F83946804600230A222046D7
:1059C00000F0CEF80746F1E7039B0293019D18EE25
:1059D000100A3146FFF7DBF900F1300A019B05F8A8
:1059E00001ABEA1A029B934209DD18EE101A00235C
:1059F0000A22204600F0B4F808EE100AE7E7029BFE
:105A0000002BC8BF1D46019BD8BF01251D444FF088
:105A1000000818EE101A0122204600F051FA314613
:105A200008EE100A00F0BCFA002891DC02D11AF04E
:105A3000010F8DD12B461D4613F8012D302AFAD0C7
:105A4000D7E6019A9A4284D1009B01330093312317
:105A50001370CEE6094BFFF795BA219B002B7FF41C
:105A60006EAA074BFFF78EBA029B002BAEDC069B9B
:105A7000022B3FF7A8AEA9E7786F0000D46E0000B4
:105A8000D66E0000004870476003FE1F024B0146BF
:105A9000186800F0BDBB00BF0C02FE1F70B5466A5F
:105AA00004460D4676B91020FFF7F0FF024660620B
:105AB00020B9184B18486621FEF7BCFCC0E9016606
:105AC0000660C660666AF36883B1636ADB6853F890
:105AD0002500B8B9012101FA05F6721D9200204691
:105AE00000F060FB60B1C0E901560EE02122042104
:105AF000204600F057FB636AF060DB68002BE4D1BE
:105B0000002070BD026843F825200023C0E903335C
:105B1000F7E700BFE36E0000896F000070B5466ACA
:105B200005460C4676B91020FFF7B0FF02466862C2
:105B300020B9094B09488A21FEF77CFCC0E90166BF
:105B40000660C6603CB16B6A6268DB6853F822107D
:105B5000216043F8224070BDE36E0000896F0000B1
:105B60002DE9F0410D6907460C461E4601F1140C63
:105B70000020DCF8003099B202FB01611E0C0B0C16
:105B800002FB063389B2013001EB034185424CF838
:105B9000041B4FEA1346ECDC0EB3A368AB4219DCDE
:105BA000616838460131FFF779FF804628B902461F
:105BB0000C4B0D48B521FEF73DFC2269023204F181
:105BC0000C0192000C30FEF781FD21463846FFF7AC
:105BD000A5FF444604EB850301355E61256120463F
:105BE000BDE8F081786F0000896F0000030C1B0492
:105BF000D3B90004102310F07F4F04BF0002083314
:105C000010F0704F04BF0001043310F0404F04BF88
:105C100080000233002805DB10F0804F03F1010300
:105C200008BF2023184670470023E4E7036813F0F9
:105C3000070201460BD0DA0723D4980749BF5B0857
:105C40009B0801200B605CBF0B600220704798B27C
:105C5000A8B91B0C1020DAB20AB908301B0A1A07BF
:105C600004BF1B0904309A0704BF9B080230DA07FF
:105C700003D45B0800F1010005D00B6070471046AB
:105C8000E9E70020704720207047FFFF10B50C4661
:105C90000121FFF703FF024628B9054B05484FF4E1
:105CA000A071FEF7C7FB01234461036110BD00BF73
:105CB000786F0000896F00002DE9F04F91460A6966
:105CC000D9F810309A42B8BF0B460C46BCBF4C46C0
:105CD00099462769D9F810A0A368616807EB0A06FE
:105CE000B34285B0B8BF0131FFF7D8FE30B90246E4
:105CF000444B454840F25D11FEF79CFB00F1140552
:105D000005EB86082B460022434521D304F11403FA
:105D100003EB870709F1140303EB8A0202923A1B93
:105D2000153A22F00302043204F115018F4238BF04
:105D300004220192029A03939A420CD8002E03DDAA
:105D400058F8043D002B5AD0066105B0BDE8F08F2D
:105D500043F8042BD8E7B3F800A0BAF1000F24D021
:105D600004F1140EA9464FF0000C5EF8042BD9F88C
:105D700000101FFA82FB89B20AFB0B114FEA124B8B
:105D8000D9F8002061444FEA124C0AFB0BC202EB27
:105D9000114289B241EA0241774549F8041B4FEAB2
:105DA000124CE2D8019A45F802C0039AB2F8029068
:105DB0000433B9F1000F20D0296804F1140CAE4669
:105DC0004FF0000ABCF800B0BEF8022009FB0B221D
:105DD000924489B241EA0A414EF8041B5CF8042B54
:105DE000BEF80010120C09FB021101EB1A416745C5
:105DF0004FEA114AE6D8019AA95004359AE7013EC4
:105E00009CE700BF786F0000896F00002DE9F84320
:105E1000154612F0030206460F4607D0254C013AFC
:105E2000002354F82220FFF79BFE0746AD103DD01B
:105E3000746A7CB91020FFF729FE0246706228B907
:105E40001D4B1E484FF4D771FEF7F4FAC0E9014428
