S01B00004652454552544F535F44454E454D455F3030312E73726563A2
S31500000000D80CFE1FAD11000095100000A9110000CC
S31500000010A9110000A9110000A9110000A9110000F2
S31500000020000000000000000000000000A50700001E
S31500000030A911000000000000BD070000190800001B
S31500000040FFFFFFFFFFFFFFFFFFFFFFFFFFFFFFFFBA
S31500000050FFFFFFFFFFFFFFFFFFFFFFFFFFFFFFFFAA
S31500000060FFFFFFFFFFFFFFFFFFFFFFFFFFFFFFFF9A
S31500000070FFFFFFFFFFFFFFFFFFFFFFFFFFFFFFFF8A
S31500000400FFFFFFFFFFFDFFFFFCFFFFFFFFFFFFFFFB
S31500000410FCFFFFFFFFFFFFFFFCFFFF00FFFFFF00EA
S31500000420FCFF0F20FFFF0F20FCFF7F40FFFF7F40F8
S31500000430FCFF0D40FFFF0D40FFFFFFFFFFFFFFFF2B
S31500000440FFFFFFFFFFFFFFFFFFFFFFFFFFFFFFFFB6
S31500000450FFFFFFFFFFFFFFFFFFFFFFFFFFFFFFFFA6
S31500000460FFFFFFFFFFFFFFFFFFFFFFFFFFFFFFFF96
S31500000470FFFFFFFFFFFFFFFFFFFFFFFFFFFFFFFF86
S31500000480FFFFFFFFFFFFFFFFFFFFFFFFFFFFFFFF76
S31500000490FFFFFFFFFFFFFFFFFFFFFFFFFFFFFFFF66
S315000004A0FFFFFFFFFFFFFFFFFFFFFFFFFFFFFFFF56
S315000004B0FFFFFFFFFFFFFFFFFFFFFFFFFFFFFFFF46
S315000004C0FFFFFFFFFFFFFFFFFFFFFFFFFFFFFFFF36
S315000004D0FFFFFFFFFFFFFFFFFFFFFFFFFFFFFFFF26
S315000004E0FFFFFFFFFFFFFFFFFFFFFFFFFFFFFFFF16
S315000004F0FFFFFFFFFFFFFFFFFFFFFFFFFFFFFFFF06
S3150000050010B5054C237833B9044B13B10448AFF347
S3150000051000800123237010BD2800FE1F000000008C
S315000005203832000008B5034B1BB103490348AFF34B
S31500000530008008BD000000002C00FE1F38320000BD
S3150000054038B50D4D0D4C6B6D9B074FF001024FF406
S315000005504371204605D400F0C9FA42F2107001F04A
S3150000056021FE00224FF44371204600F0BFFA01201D
S3150000057001F018FEE7E700BF000804400C01FE1F6B
S3150000058008B50B4C4FF4967001F00CFE012240F2B8
S315000005900B31204600F0AAFA4FF4967001F002FEE5
S315000005A0002240F20B31204600F0A0FAEAE700BF35
S315000005B00C01FE1F022800D07047024B0248596802
S315000005C000F0E0BB302900000C01FE1F00B583B02F
S315000005D0019000F071F8019803B05DF804EBFFF7A5
S315000005E0AFBF00BF30B50E4C0E4923680E4D85B027
S315000005F0581C0322CDE901150C4B009220600C49D2
S315000006000C484FF4807201F099FB0B4B186008B14F
S3150000061005B030BD014605B0BDE8304000F04AB82F
S315000006206401FE1FD80CFE1F4800FE1F182900009B
S3150000063008290000CD0500004400FE1F00B583B068
S31500000640019000F039F8019803B05DF804EBFFF76C
S3150000065097BF00BF30B50E4C0E4923680E4D85B0CE
S31500000660581C0422CDE901150C4B009220600C4960
S315000006700C484FF4807201F061FB0B4B186008B117
S3150000068005B030BD014605B0BDE8304000F012B8F7
S315000006906401FE1FD810FE1FAC00FE1F2C290000AF
S315000006A01C2900003D060000A800FE1F704700BF81
S315000006B0FFF7FCBF00BE704738B5164C4FF0FF3150
S315000006C0206801F0F1F8012803D020680021FFF727
S315000006D0F1FF114B1A7802B138BD01220F4D1A7085
S315000006E0FFF7E6FF2B68013B2B60002BF4D00023BD
S315000006F0194620681A4600F049FF01284FF000010C
S31500000700F0D02068FFF7D6FF2B68013B2B60002B4B
S31500000710EDD138BD1801FE1F1401FE1F6401FE1F36
S315000007200D480E4A002310B50D4C037001214FF4FD
S315000007308070236000F0EEFE0A4B186038B1FFF7B8
S3150000074089FFFFF74FFF01F00BFC002010BD0146AB
S31500000750FFF7B0FFF3E700BF1401FE1F1C01FE1FE9
S315000007606401FE1F1801FE1F044B036010B48023B2
S31500000770034C0C605DF8044B136070476805FE1F60
S315000007806801FE1F044B036010B48023034C0C6009
S315000007905DF8044B13607047C805FE1F6803FE1F13
S315000007A000BEFEE71EF0040F0CBFEFF30880EFF368
S315000007B009800149084700003D0800000D4B1968F3
S315000007C0EFF309821EF0100F08BF22ED108A22E90E
S315000007D0F04F0A604FF0100080F31188BFF34F8F7F
S315000007E0BFF36F8F01F01CFD4FF0000080F31188FE
S315000007F000F002B8D806FE1F064801680A68B2E88B
S31500000800F04F1EF0100F08BFB2EC108A82F3098871
S3150000081070470000D806FE1F10B5EFF311841023B1
S3150000082083F3118801F0ECFC18B1034B4FF08052B2
S315000008305A6084F3118810BD00ED00E008B58369A5
S3150000084013F8023C022B02D0032B04D808BDBDE8E6
S315000008500840FFF7D1BF034B034A044840F2054165
S3150000086000F0E2FBBC290000BC2A0000D0290000F1
S3150000087010B44FF08071074C40F8041C22F00102BE
S315000008806FF0020140E9034240E909135DF8044BA9
S3150000089044387047A107000008B5EFF31181102313
S315000008A083F311880A4A13680133012B136000D0C1
S315000008B008BD084A084B11605B68C3F30803002BA8
S315000008C0F6D0064B064A074840F2F64100F0ACFB6C
S315000008D03406FE1F2806FE1F00ED00E0F829000082
S315000008E0942A0000D0290000094A08B513683BB1D4
S315000008F0013B13601BB9074B1B6883F3118808BDC6
S31500000900054B064A064840F2FF4100F08DFB00BF4A
S315000009103406FE1F2806FE1F402A0000802A00001B
S31500000920D0290000E8B1174A938918B2002899B275
S3150000093018DBBFF34F8F30BFBFF36F8F62B6BFF3C5
S315000009406F8F72B600280CDA0E4AB2F8FE339BB2ED
S315000009504AF2025043F42543A2F8FE039181A2F81D
S31500000960FE337047B2F8FE334AF2025C9BB2A2F83D
S31500000970FEC343F425434FF0000CA2F80CC0A2F8C6
S31500000980FE33D6E700E0014008B572B601F02EFB53
S315000009900120FFF7C7FF62B6BDE8084001F02EBB95
S315000009A00B4B0C4A1B68A2FB03239B09013BB3F1CB
S315000009B0807F0BD24FF0E022074853614FF0F00CD6
S315000009C00021072380F823C091611361704700BF9F
S315000009D08406FE1FD34D621000ED00E010B5264BD5
S315000009E0264C1A78264882B0FF21D2B28DF8032011
S315000009F019701B78DBB20193019B019AC3F30013B4
S31500000A00072112062370016048BF06220BD5019B01
S31500000A105B000193019B1B06114602F1FF32F6D4DF
S31500000A20032907D00160174B174A184840F2A24124
S31500000A3000F0FAFA9DF80330154A0F4C4FF4407156
S31500000A400160DBB2F021237082F82210FFF7A8FFC5
S31500000A50104A536B43F04043536362B6BFF36F8F44
S31500000A60EFF3148C2CF0040C8CF31488BFF36F8F07
S31500000A7002DF00BEFDE700BF00E400E02C06FE1F1B
S31500000A803006FE1F542A0000A82A0000D0290000C4
S31500000A9000ED00E000EF00E0002303601846704719
S31500000AA00B0A1B01044853FA81F150F82130C3F3B5
S31500000AB0400300201370704700080440090A4901EA
S31500000AC001F1804101F5802100204B6813807047B9
S31500000AD0090A490101F1804123EA020001F580215A
S31500000AE01A4042EA00428A6000207047C8B20123D9
S31500000AF083404AB91A040B0A5B0103F1804303F5EC
S31500000B00802300209A6070479AB2F4E7090A4901E7
S31500000B1001F1804101F5802110B40C6802EA03005E
S31500000B20204362EA030202405DF8044B0A6000209B
S31500000B30704700BF090A490101F1804101F5802192
S31500000B4000204B68C3F30F431380704710B40B0AA1
S31500000B505B0103F1804303F58023C8B25C68012181
S31500000B6081408BB201EA1441C91AB1FA81F14909EF
S31500000B7000205DF8044B1170704700BF090A490157
S31500000B8001F1804123EA020001F580211A4042EA80
S31500000B900042CA60002070470B0A5B0103F18043E4
S31500000BA0012A03F580230AD0D868C9B24FF48032EF
S31500000BB08A400243120C1204DA6000207047C8B261
S31500000BC0D96882400A4392B2DA600020704700BFBB
S31500000BD00388002B79D02DE9F04FDFF8F490DFF889
S31500000BE0F4B083B007464FF000087B68374E4FEAF3
S31500000BF0C805591940F20242898891424FF0000413
S31500000C004FF0010A09D00134032C26D07B6836F850
S31500000C10022B591989889142F5D15B5999F8BB2461
S31500000C2003F0B853B3F1807F0AFA04F3D9B21CD0AB
S31500000C3013423BD104F120031BF81320D209E2D062
S31500000C401BF813206FF3C7120BF813200121C820DD
S31500000C50013400F0F1F9032CD8D13B8808F10108E2
S31500000C604345C2D803B0BDE8F08F134210D004F15B
S31500000C7020031BF81320D209C5D11BF8132042F01C
S31500000C8080020BF813200121C82000F0D5F9BAE73D
S31500000C900120019100F05EFA99F8BB3401991943DD
S31500000CA089F8BB14012000F025FAE0E70120019144
S31500000CB000F050FA99F8BB34019923EA010189F84A
S31500000CC0BB14012000F016FAB4E77047062B0000AB
S31500000CD000E0014000400440F8B50446FFF778FF05
S31500000CE0EFF31082012383F31088234E33681BB978
S31500000CF02249CB704023CB7033680133336082F3D3
S31500000D00108825882DB362681D4C013DADB202F1F5
S31500000D10080101EBC50500E008311068928810F45F
S31500000D20803F4FEA12235FFA82FC0CEB031E09D0C8
S31500000D3054F82E7020F480326FF3104744F82E706A
S31500000D4044F82E201B0163448D4244F823000A46D2
S31500000D50E2D1EFF31082012383F31088336813B1D5
S31500000D603368013B336033681BB904498020CB707C
S31500000D70C87082F31088F8BD7806FE1F000D044087
S31500000D800008044008B50346034A1A600846FFF700
S31500000D90A3FF002008BD00BF54524F5008B50846B7
S31500000DA0FFF79AFF002008BD70B584B002AB01269C
S31500000DB068460C461546ADF80C100292ADF8006078
S31500000DC00193FFF705FFEFF3108286F310881D49A4
S31500000DD00B681BB91C48C3704023C3700B680133F2
S31500000DE00B6082F31088EA034FEA1423E4B219D4A5
S31500000DF01B01164A234442F82350EFF310820123C5
S31500000E0083F310880B6813B10B68013B0B600B680A
S31500000E101BB90D498020CB70C87082F31088002062
S31500000E2004B070BD04EB0310084A52F820606FF35B
S31500000E30104642F8206025F4803642F820601B01F7
S31500000E40D7E700BF7806FE1F000D044000080440E7
S31500000E50064B074993F826001A6A51F820300549CF
S31500000E60C2F30262D3400B60704700BF00E001404E
S31500000E700C00FE1F8406FE1F38B53B4B3B493C4C1D
S31500000E803C4A3D4D4AF20350A3F8FE030020A1F868
S31500000E9000013A4993F826006160394922604FF40F
S31500000EA00042C4E902213749C4E90421196A54F809
S31500000EB02020C1F30261CA402A602021092283F85A
S31500000EC0131483F8A22093F88024002A44D0264ADB
S31500000ED00023062182F8813482F8803482F8A51036
S31500000EE082F8323092F83C301907FBD500234FF4D4
S31500000EF01C51118582F82A301B4B93F83C20920630
S31500000F00FBD51A4A022182F81C111F4919620521D4
S31500000F1083F8261093F8261054F821001C6AC4F3AF
S31500000F200264E0402860012160244FF4254083F8E4
S31500000F30301083F8521083F8531083F82440A3F836
S31500000F40FE03A2F80411B2F804319BB2002BFAD1C9
S31500000F500123A2F8003138BD012183F8801440F244
S31500000F60C44000F069F8B2E700E0014000C001406B
S31500000F700C00FE1F002D31018406FE1F00127A00B0
S31500000F80001BB700001C4E0E2112012138B5244C5F
S31500000F90002584F828500121C82000F04DF884F877
S31500000FA0245094F82430002BFBD194F824301C4AAA
S31500000FB043F0020384F8243092F82430C3F340004F
S31500000FC09B07F9D482F8220092F84030144960F366
S31500000FD0C71382F8403091F84030DB09FBD191F815
S31500000FE042000F4A63F3C71081F8420092F842307C
S31500000FF0DB09FBD192F84400094963F3C71082F874
S31500001000440091F84430DC09FBD1012000F0A2F83D
S31500001010044B012083F8BB44BDE8384000F06AB8B1
S315000010200040044000E0014000BEFEE7A0F10100E0
S315000010300028FBD1704700BF30B5144D144A00FBA1
S3150000104001F14FF47A732868B2FBF0F2A1FB03C4F6
S315000010504FF0FF304FF0000E60457EEB040407D3DF
S31500001060BCFBF2F0800878B1BDE83040FFF7DEBF88
S315000010709200B1FBF2F1A1FB031388427EEB03035E
S31500001080F2D308460028EFD130BD00BF8406FE1F0C
S3150000109000CA9A3B0B4B70B5B3F840510A4E002478
S315000010A0ADB225FA04F3DB07E0B203D556F82430D7
S315000010B003B198470134102CF3D1024BA3F83051F9
S315000010C070BD00BF006000403806FE1F10B4074A1E
S315000010D0074C002303F1C001013332F8020F44F834
S315000010E02100602BF6D15DF8044B70470A2B0000F7
S315000010F000600040EFF31081012383F31088124B48
S3150000110033F8102092B22AB133F81020013A92B285
S3150000111023F8102033F810309BB293B90B4A10B461
S31500001120B2F8FE330A4C9BB234F8100043F4254360
S3150000113023EA0003A2F8FE3381F310885DF8044B1E
S31500001140704781F3108870477C06FE1F00E001405F
S31500001150CC2B000030B4EFF31081012383F3108809
S315000011600E4A32F810309BB26BB90D4C0D4DB4F8E7
S31500001170FE3335F810C09BB243EA0C0343F4254313
S315000011809BB2A4F8FE3332F8103001339BB222F83A
S31500001190103081F3108830BC704700BF7C06FE1FFC
S315000011A000E00140CC2B000000BE704708B500F0FF
S315000011B003F8FFF7B5FAFEE7234B70B54FF470025C
S315000011C0224DC3F8882000209D60FFF7F3F9FFF752
S315000011D053FE0120FFF7EEF91D4B29681D481E4DF1
S315000011E000244FF425429C801A80A1F580629A6003
S315000011F01A4AD9604FF480560121A5F82061121AC7
S315000012009980214601F044FB1548164A1649174DA8
S31500001210121A01F02FFB164B5B1BA34206DD9E1034
S3150000122055F8043B01349847A642F9DCFFF710FE57
S31500001230FFF7ACFE0220FFF7BDF9FFF747FFBDE859
S315000012407040002000F016B800ED00E0000000003D
S31500001250000D00402800FE1F00600040D408FE1F5D
S315000012600000FE1F0C00FE1F3C3200000400FE1FA3
S315000012700800FE1F704700BF00F108034FF0FF3162
S315000012800022C0E90131C0E903330260704700BFA4
S3150000129000230361704700BF30B40D686B1C10D08B
S315000012A000F108031C465B681A68AA42FAD902686C
S315000012B04B60013299608C606160086130BC0260ED
S315000012C0704704696368F2E7036910B4D0E9011254
S315000012D05C688A608442516008BF5A601A685DF88B
S315000012E0044B0021013A01611A601868704700BF7B
S315000012F0036C70B5856B044673B1164682B91A46FF
S31500001300406801F0B7FA6368216CA2680B44934207
S31500001310636024BF236863600135A563002070BD48
S315000013201A46C06801F0A6FA226CE36851429B1A7D
S315000013302268E360934202D2A3680B44E360022E64
S31500001340EAD1012D38BF0125E7E700BF70B5054694
S31500001350FFF7A2FA95F845305CB2002C14DD05F1D2
S31500001360240603E0631EDAB25CB26AB16B6A3046E9
S3150000137053B100F0F1FF0028F4D001F0B3F8631E7A
S31500001380DAB25CB2002AF1D1FF2385F84530FFF7C7
S31500001390ABFAFFF781FA95F844305CB2002C14DD05
S315000013A005F1100603E0631EDAB25CB26AB12B697E
S315000013B0304653B100F0D0FF0028F4D001F092F887
S315000013C0631EDAB25CB2002AF1D1FF2385F84430FD
S315000013D0BDE87040FFF788BA70B5002848D0C36BE7
S315000013E00446002B3DD0056CA5FB0335002D38D1F6
S315000013F00E46FFF751FAD4E90F232168A56303FBD4
S3150000140002F2D31A0A44A2600B44FF2284F8442055
S315000014106160E36084F84520BEB923691BB9FFF714
S3150000142063FA012070BD04F1100000F095FF00285A
S31500001430F5D0134B4FF080525A60BFF34F8FBFF376
S315000014406F8FFFF751FA012070BD04F11000FFF70E
S3150000145013FF04F12400FFF70FFFFFF745FA012001
S3150000146070BD084B084A094840F24511FFF7DCFDFC
S31500001470074B054A05484FF48871FFF7D5FD00BFB5
S3150000148000ED00E0102C0000D02E0000DC2B000048
S31500001490082C000010B582B01BB3D8B11C4682B12F
S315000014A0C1B148230193019B482B21D1019B2260A6
S315000014B0C4E90F0101212046FFF78EFF204602B046
S315000014C010BD39B948230193019B482B10D1019BCC
S315000014D02246ECE70A4B0B4A0B484FF4C171FFF763
S315000014E0A3FD0A4B074A084840F25911FFF79CFD35
S315000014F0074B044A044840F26B11FFF795FD00BF05
S31500001500602C0000B42E0000DC2B0000342C000000
S31500001510442C000030B583B0B0B188420D4613D3D9
S315000015201446FAB148230193019B482B13D100239B
S3150000153022600121C2E90F031046019BFFF74CFF11
S315000015402046A56303B030BD0A4B0B4A0B484FF447
S315000015503E71FFF769FD0A4B0A4A084840F26B11D3
S31500001560FFF762FD084B074A044840F25911FFF79E
S315000015705BFD00BF6C2C0000902E0000DC2B0000F1
S31500001580442C0000B42E0000342C00002DE9F04756
S3150000159084B00192002800F0A88089461F460446C0
S315000015A0002900F08880022F03D1E36B012B40F065
S315000015B0A38000F09DFF0546002851D00025DFF8E6
S315000015C054A14FF0000807E0FFF78EF92046FFF719
S315000015D0BDFE00F013FD0125FFF75EF9A36BE06B7E
S315000015E083424BD3022F49D0019E002E6ED0002D90
S315000015F040D0FFF779F900F0F9FCFFF74DF994F8C0
S315000016004430FF2B08BF84F8448094F84530FF2B04
S3150000161008BF84F84580FFF767F901A902A800F022
S3150000162017FF002858D1FFF737F9A26BE36B9A42F0
S31500001630CAD1FFF759F9019904F1100000F038FEFC
S315000016402046FFF783FE00F0D9FC0028C3D14FF0F7
S315000016508053CAF80430BFF34F8FBFF36F8FBAE7DA
S31500001660019B002BABD0284B284A294840F2333146
S31500001670FFF7DAFC02A800F0DFFEBAE73A46494671
S315000016802046FFF735FE636A33B958B9FFF72CF9E0
S31500001690012004B0BDE8F08704F1240000F05CFEF0
S315000016A00028F3D01B4B4FF080525A60BFF34F8F88
S315000016B0BFF36F8FEAE7036C002B3FF474AF164B52
S315000016C0124A134840F22F31FFF7AEFCFFF70CF930
S315000016D0304604B0BDE8F0872046FFF737FE00F03D
S315000016E08DFC002004B0BDE8F0870C4B074A084883
S315000016F040F22E31FFF798FC094B044A04484FF498
S315000017004C71FFF791FC00BF1C2D00007C2E0000E1
S31500001710DC2B000000ED00E0742C0000082C00001B
S31500001720CC2C00002DE9F04385B00192002800F092
S31500001730A7800E460446002972D000F0D9FE002884
S315000017405BD0FFF7A9F8A56B002D73D1019B002B89
S3150000175038D002A800F070FEDFF844912F4604F15D
S315000017602408FFF7C1F800F041FCFFF795F894F85C
S315000017704430FF2B08BF84F8447094F84530FF2BA3
S3150000178008BF84F84570FFF7AFF801A902A800F07A
S315000017905FFEE8B9FFF780F8A36B33BBFFF7A4F849
S315000017A00199404600F084FD2046FFF7CFFD00F08A
S315000017B025FC60B3FFF770F8A56B002D3AD1019BAD
S315000017C0002BCED1FFF790F8002005B0BDE8F083DE
S315000017D02046FFF7BBFD00F011FCFFF75DF8A36B99
S315000017E0002BEFD0FFF780F8E4E7FFF77DF82046FF
S315000017F0FFF7ACFD00F002FCDCE7019B002BA0D05C
S31500001800234B244A244840F25A51FFF70DFC4FF06F
S315000018108053C9F80430BFF34F8FBFF36F8FC9E70A
S31500001820036C002B89D01D4B1A4A1B4840F25551B8
S31500001830FFF7FAFB226C52B1E168A36811449942A2
S31500001840E16024BF2168E160304601F013F8013DF4
S31500001850A56323692BB9FFF747F8012005B0BDE85A
S31500001860F08304F1100000F077FD0028F3D00C4B54
S315000018704FF080525A60BFF34F8FBFF36F8FEAE786
S31500001880084B044A044840F25151FFF7CDFB00BF14
S315000018901C2D00006C2E0000DC2B0000FC2D00002F
S315000018A000ED00E0F02D00002DE9F04184B001913B
S315000018B0002800F09C80036C0446002B40F09080CA
S315000018C000F016FE002869D0FEF7E6FFA56B002D96
S315000018D05AD1019B002B38D002A800F0ADFDDFF8ED
S315000018E028812E4604F12407FEF7FEFF00F07EFB5A
S315000018F0FEF7D2FF94F84430FF2B08BF84F844600B
S3150000190094F84530FF2B08BF84F84560FEF7ECFFDE
S3150000191001A902A800F09CFDE8B9FEF7BDFFA36B84
S3150000192033BBFEF7E1FF0199384600F0C1FC2046C3
S31500001930FFF70CFD00F062FB002839D0FEF7ACFF84
S31500001940A56B0DBB019B002BCED1FEF7CDFF002072
S3150000195004B0BDE8F0812046FFF7F8FC00F04EFB2E
S31500001960FEF79AFFA36B002BEFD0FEF7BDFFE5E76E
S31500001970FEF7BAFF2046FFF7E9FC00F03FFBFEF753
S315000019808BFFA56B002DDDD0013DA5632369C3B98F
S31500001990FEF7AAFF012004B0BDE8F081019B002BF1
S315000019A092D0164B164A174840F2EC51FFF73CFB13
S315000019B04FF08053C8F80430BFF34F8FBFF36F8FDB
S315000019C0BCE704F1100000F0C7FC0028E0D00E4B85
S315000019D04FF080525A60BFF34F8FBFF36F8FD7E738
S315000019E00A4B074A074840F2E751FFF71DFB084B31
S315000019F0034A044840F2E351FFF716FB1C2D000092
S31500001A00582E0000DC2B000000ED00E0702D0000D9
S31500001A10F02D000038B530B379B10025154C2B46B2
S31500001A2004EBC3024FEAC30C5268824213D02DB1B5
S31500001A3001330A2BF4D1C5E9001038BD54F8332020
S31500001A4072B101330A2BF8D004EBC3024FEAC30C80
S31500001A5052689042F2D104EB0C05C5E90010ECE7A0
S31500001A6004EB0C05E4E7044B044A054840F6C8219C
S31500001A70FFF7DAFA8806FE1FD42B0000E42E0000DA
S31500001A80DC2B000070B504460E461546FEF704FF33
S31500001A9094F84430FF2B04BF002384F8443094F8B4
S31500001AA04530FF2B04BF002384F84530FEF71CFFAA
S31500001AB0A36B23B12046BDE87040FFF747BC04F195
S31500001AC024002A46314600F011FC2046BDE870404D
S31500001AD0FFF73CBCF8B51C4B1C4E1C68336805462A
S31500001AE0181D0F46FFF7F0FB6B1C17D033686419FF
S31500001AF05C6007D3164B18683168BDE8F8400431BE
S31500001B00FFF7CABB134B186831680431FFF7C4FBF3
S31500001B10114B1A68A24288BF1C60F8BD002FE5D0A1
S31500001B200E4B30685A68316882609068C8603168C8
S31500001B3090680431416030683468196804300131B6
S31500001B40906019606361F8BDD007FE1FD806FE1FBE
S31500001B50E006FE1FDC06FE1F8407FE1FA807FE1F09
S31500001B6080B5134C134E144D144FDFF854904FF0BC
S31500001B7080580EE0FEF790FEF368D8680430FFF751
S31500001B80A3FB2B68013B2B602368013B2360FEF718
S31500001B90ABFE2368002BEDD13B68012B05D9C9F8B4
S31500001BA00480BFF34F8FBFF36F8FFEF7EDFEF0E7B4
S31500001BB04C07FE1FBC07FE1F4807FE1FE406FE1F5C
S31500001BC000ED00E02DE9F04F504B1E68013683B062
S31500001BD01E60002E6FD04E4B0193019B1B689E42E8
S31500001BE060D34C4F3B68186800287CD00020DFF893
S31500001BF04481494DDFF840B18646B246814647E00A
S31500001C00D3E902145A698C6061605168181D8142DB
S31500001C10116808BF54600139C3F814E011609A6A6C
S31500001C207AB1D3E90741A1601E6A5168746003F175
S31500001C301804A142116808BF56600139C3F828E0AC
S31500001C401160D8F80010DA6A8A4202EB820488BF73
S31500001C50C8F8002055F8246005EB840C711C00912F
S31500001C60DCF8041099608E68DE608E6870608860AB
S31500001C70C3F814C0009B45F82430DBF800103B681D
S31500001C80C96A1B688A4228BF4FF00109002B29D078
S31500001C903B68DB68DB685A689245B1D2019B4846CF
S31500001CA01A6000E000201D4B1B68002B18BF0120A6
S31500001CB003B0BDE8F08F174B1A681268FAB9184AD4
S31500001CC0186811681960174910600A6801320A60BD
S31500001CD01A68126862B90E4B01931A464FF0FF3329
S31500001CE013607AE74846019A4FF0FF331360DAE74C
S31500001CF01B68074ADB6801921B6813606DE70A4B95
S31500001D000A4A0B4840F6C721FFF78EF9D007FE1F97
S31500001D108407FE1FDC06FE1FE406FE1FD407FE1F17
S31500001D20E006FE1F8807FE1F2C2F00001031000062
S31500001D30002F00005807FE1FD806FE1F2DE9F043AE
S31500001D4083B01F46DDE90B340A9D002B00F0C180ED
S31500001D50002C00F0D380944660220192019A602AFA
S31500001D6040F0C5800CF1804C0CF1FF3C03EB8C0C71
S31500001D7023630646019B2CF00709002900F08280A8
S31500001D8001F1FF3C01F10F0304F1330E1CF9011FB1
S31500001D900EF8011F09B19C45F8D1002384F84330A1
S31500001DA0042D00F29D8004F10408E5624046FFF729
S31500001DB06FFA04F11800FFF76BFAC5F1050500216B
S31500001DC032463B466164A164E16421656165A165B3
S31500001DD084F85C10A561216B246164624846FEF7B5
S31500001DE047FD2060FEF758FD484A494E1368013307
S31500001DF013603368002B3DD0464F3B68002B31D033
S31500001E00E36A454D454946480A6801320A60026858
S31500001E109A4238BF036003EB830305EB83009B0004
S31500001E204268A2609168E1609168C1F80480C2F8D6
S31500001E300880EA5860610132EA50FEF755FD3B68BA
S31500001E4063B13268E36AD26A9A4207D2354B4FF0E1
S31500001E5080525A60BFF34F8FBFF36F8F204603B097
S31500001E60BDE8F08333682C4DDA6AE36A9A4298BF7C
S31500001E703460C7E734601368012B06D0E36A264D49
S31500001E80244FBFE784F834108AE7234D2F4605F127
S31500001E90640938461437FFF7EFF94F45F9D1DFF8F3
S31500001EA0BC90214F4846FFF7E7F93846FFF7E4F9BB
S31500001EB01E48FFF7E1F91E48FFF7DEF91D48FFF758
S31500001EC0DBF91D4BC3F800901C4B1F60E36A114FF2
S31500001ED098E71B4B1B4A1C4840F24A21FFF7A4F81F
S31500001EE01A4B1B4A184840F29731FFF79DF8194BD9
S31500001EF0144A154840F25321FFF796F8164B114A3B
S31500001F00114840F24B21FFF78FF800BF4807FE1F2C
S31500001F10D806FE1FA407FE1FE406FE1F5407FE1F79
S31500001F205807FE1F00ED00E07007FE1F9007FE1F1A
S31500001F30BC07FE1FA807FE1FDC06FE1FE006FE1FED
S31500001F40A42F00006C310000002F0000FC2F0000C1
S31500001F5054310000E02F0000C42F00005C07FE1F74
S31500001F6030B589B0002407AA06A905A8CDE905441D
S31500001F70FEF7FAFBDDE90503079A13490094CDE95C
S31500001F80013012482346FFF7D9FE78B100F03CFC39
S31500001F9001280FD180F310880D490E4A0E4B4FF0E1
S31500001FA0FF350D6010601C60FEF718FD0B4B1B68BB
S31500001FB009B030BD0130F9D1094B0A4A0A484FF43D
S31500001FC00461FFF731F800BF2C300000611B0000F0
S31500001FD08407FE1FA407FE1FD007FE1F0000FE1F7A
S31500001FE03430000034310000002F0000024A13682C
S31500001FF001331360704700BF5007FE1F2DE9F04FF5
S315000020005A4F3B6883B0002B00F0A880FEF744FCD3
S315000020103B68013B3B60D7F800E0BEF1000F40F0A3
S315000020208D80534B1B68002B00F08880DFF864C15D
S31500002030DCF80030002B00F08E80DFF85CB1DFF8B2
S315000020405C814C4EDFF85891CDF804E0DE46DCF8B2
S315000020500C30DB68D3E907019A6A816048605068F2
S3150000206003F11804A04208BF5160019999621168F2
S3150000207001391160D3E902105A69886041605168DC
S3150000208003F1040A5145116808BF50600139116017
S31500002090DA6AD8F8001002EB820006EB800B8A425F
S315000020A0DBF8041088BFC8F800208D6856F8204079
S315000020B0DD608D6899600134C5F804A0C1F808A0F8
S315000020C0C3F814B046F82040D9F80030DB6A9A42CB
S315000020D024BF0123CEF80030DCF80030002BB6D147
S315000020E0254B1A681268F346002A2FD01A68234B2C
S315000020F0D26812681A60224D2C6894B1012606E057
S31500002100FFF760FD08B1CBF80060013C08D03B68E2
S31500002110002BF5D02B68013C03F101032B60F6D1AF
S315000021202C60DBF800304BB1164B4FF080525A60F2
S31500002130BFF34F8FBFF36F8F012000E000200190A7
S31500002140FEF7D2FB019803B0BDE8F08F0B4B4FF0C2
S31500002150FF321A60CFE7DFF840B0CCE70A4B0B4AF4
S315000021600B4840F6B301FEF75FFF00BF5007FE1FA6
S315000021704807FE1FE406FE1FDC06FE1F8407FE1F3F
S315000021808C07FE1F00ED00E04830000024310000FF
S31500002190002F00009007FE1FD407FE1F5807FE1FE2
S315000021A0D806FE1F08B550B10D4B196881B91A68DB
S315000021B001321A60FFF78EFCFFF720FF38B9094B92
S315000021C04FF080525A60BFF34F8FBFF36F8F08BD39
S315000021D0054B064A064840F24951FEF725FF00BF67
S315000021E05007FE1F00ED00E01030000048310000EF
S315000021F0002F0000014B1868704700BFD007FE1F74
S31500002200054B1B680BB9FFF7DDBC044A13680133A5
S3150000221000201360704700BF5007FE1F8C07FE1F8B
S315000022201B4B1B681BB11B4B01221A607047194AD6
S31500002230194910B5194C1360236803EB8302920009
S3150000224098008A5842B9E3B1013B03EB8302980038
S3150000225051F82220002AF6D0184401EB800C614682
S31500002260DCF804205268CCF8042008318A4208BF02
S3150000227052680B4908BFCCF80420D2680A60236074
S3150000228010BD084B084A094840F60241FEF7CCFE4D
S315000022905007FE1FD407FE1FE406FE1F5807FE1F49
S315000022A0D806FE1F60300000FC300000002F000042
S315000022B010B558B1094B0C4619681831FEF7ECFFFA
S315000022C020460121BDE81040FFF704BC044B054A37
S315000022D0054840F61C41FEF7A7FE00BFD806FE1FC4
S315000022E070300000E4300000002F0000F8B518B38D
S315000022F0154C45688C46002A11462268AE68D561A1
S3150000230022680346166226682268276802F11804C6
S315000023101A6808BF604602F1010CAA6806F11806A1
S31500002320566018BF4FF0FF30AC60BB62C3F800C008
S31500002330BDE8F840FFF7CEBB044B054A054840F61A
S315000023405241FEF771FE00BFD806FE1F7030000036
S31500002350C4300000002F0000F8B5C368DB68002B0E
S3150000236051D0D3E907019A6A81604860506803F149
S315000023701804A04208BF516011682648002501399B
S315000023809D6211600268B2B123494A68DA619068B9
S31500002390186290684460086894600130DA6A99624D
S315000023A008601E4B1B68DB6A93423DBF1C4B012035
S315000023B018600020F8BD9968D8685A698860D8689E
S315000023C0184C416051681E1DB142116808BF50602B
S315000023D00139154811600168DA6A8A4202EB820106
S315000023E004EB810788BF0260786898608900856879
S315000023F0DD60655805F1010C85686E6086605F6179
S3150000240044F801C0CDE7094B094A0A4840F6824123
S31500002410FEF70AFE5007FE1F9007FE1FD806FE1F96
S31500002420D407FE1FE406FE1F5807FE1F7C3000007F
S31500002430A8300000002F0000034A044B12681B68F6
S31500002440C0E90023704700BF8807FE1FD007FE1FA4
S31500002450F0B583B058B30D4681B30446FEF71CFAB7
S315000024602B681A4A591C10681FD0DFF874C0D4E9CB
S315000024700061DCF80070BE420AD0814208D8002311
S315000024802B6001200190FEF72FFA019803B0F0BDF2
S31500002490471ABB42F3D91B1A0B44DCF8001012682A
S315000024A02B600020C4E90012ECE70020EAE7084BA5
S315000024B0084A094840F6FD41FEF7B6FD074B054AB6
S315000024C0054840F6FE41FEF7AFFD00BFD007FE1FF0
S315000024D08C30000080310000002F00009830000092
S315000024E08807FE1F014B01221A607047D407FE1FA2
S315000024F0054B1B6833B1054B1B68002B0CBF022034
S315000025000020704701207047A407FE1F5007FE1FDA
S31500002510F0B5124C83B0FEF7BFF9256825B103B0BC
S31500002520BDE8F040FEF7E0B90D4F0E4E3846FEF717
S31500002530A3FE3046FEF7A0FE0B4A009517600B4A35
S315000025400B4B16600C210B4A0A20FEF7A3FF2060F6
S315000025500028E4D00849FFF75DFAE0E7CC08FE1F43
S315000025605808FE1F6C08FE1FD807FE1FDC07FE1F5B
S315000025708408FE1FE007FE1F9831000070B5044670
S31500002580164605E0934219D8236A204698472946FD
S31500002590A36924615D182CBF01200020B542A6EB7B
S315000025A001026560EED9B14201D90028ECD0074B93
S315000025B0211D1868BDE87040FEF76EBE044B211D54
S315000025C01868BDE87040FEF767BE00BFD807FE1F5B
S315000025D0DC07FE1F104B1B68DB6870B5DC68054620
S315000025E0201D0E46FEF770FE94F824305A0708D4D4
S315000025F023F0010384F824302046236ABDE87040A6
S315000026001847204632462946FFF7B8FF236A204678
S31500002610BDE87040184700BFD807FE1F2DE9F047F8
S31500002620714D724E724C734FDFF8D88184B02B68AF
S31500002630D3F800A0BAF1000F00F0A880DB68D3F849
S3150000264000A0FFF7D3FCFFF7D5FD33688342814630
S3150000265040D88245306040F2B48000222068AAEB60
S315000026600901FFF70FFAFFF7C9FC38B94FF080539D
S31500002670C8F80430BFF34F8FBFF36F8F2068002276
S3150000268001A9FFF74FF80028D1D0019B002BF5DBFD
S31500002690DDF80C90D9F814301BB109F10400FEF7EF
S315000026A013FEFFF7A7FD33689842824624D3019BA9
S315000026B0C6F800A0013B082BE0D8DFE803F025258B
S315000026C04950492525495000DB684FF0FF3118680D
S315000026D0FFF780FF2B681A68002AF5D13A682A604E
S315000026E03B60C6F80090FFF789FCC7E7DB684FF050
S315000026F0FF311868FFF76EFF2B681A68002AF5D1BC
S315000027003A682A603B60D2E799F82400029BD9F820
S315000027101820C9F81090991840F0010C89F824C0C7
S315000027202CBF4FF0010C4FF0000C5145C9F80410B6
S315000027303CD8AAEB03039A4222D8430748D420F098
S31500002740010089F82400D9F820304846984795E7D3
S3150000275099F8243023F0010389F824308EE799F89C
S315000027602420029BC9F8183042F0010289F824207F
S315000027709BB353445345C9F80430C9F810901AD88E
S31500002780386809F10401FEF787FD77E7FFF72EFCAD
S31500002790FFF730FD3368984281469BD33B68C6F805
S315000027A000901A68B2FA82F2520957E7534502D9E5
S315000027B0BCF1000FC1D0286809F10401FEF76CFDD9
S315000027C05CE7FFF71BFC49465046FFF703FF55E75A
S315000027D052464846FFF7D2FEB5E7074B074A084878
S315000027E040F25931FEF720FCD807FE1F8008FE1F75
S315000027F0CC08FE1FDC07FE1FA031000004320000DB
S31500002800C831000000ED00E010B588B0FFF780FE8B
S31500002810114B1B68CBB1002407AA06A905A8CDE970
S315000028200544FDF7AFFFDDE905010323CDE90110FE
S315000028300093079A09490A482346FFF77FFA094B8E
S31500002840186010B1012008B010BD074B074A0848B0
S3150000285040F21911FEF7E8FBCC08FE1FF431000028
S315000028601D260000D008FE1FFC31000020320000AB
S31500002870C83100000A44914200F1FF3300D170478D
S3150000288010B511F8014B03F8014F9142F9D110BD73
S3150000289002440346934200D1704703F8011BF9E74F
S315000028A04275696C7420776974682052656E657329
S315000028B0617320416476616E63656420466C657859
S315000028C069626C6520536F6674776172652050612A
S315000028D0636B6167652076657273696F6E20342E4F
S315000028E0332E3000342E332E300000000000030457
S315000028F0F8B500BFF8BC08BC9E467047F8B500BFE7
S31500002900F8BC08BC9E467047424C5545524544208B
S3150000291054687265616400FF000000005245444C33
S3150000292045442054687265616400FFFF00000000A2
S315000029300C01FE1F3C290000D02A00000F000000F9
S315000029404429000000800000040000000000010689
S315000029500001000000000106010100000000010660
S315000029600201000000000106030100000040000013
S31500002970050100000400000006010000000001003F
S31500002980080100000000010C050200000000010C17
S315000029900702000000000100000300000400000020
S315000029A00B030000040000000C03000004000000FC
S315000029B0000400000000011307040000756353566D
S315000029C0434E756D626572203C3D20330000000069
S315000029D02E2E2F72612F6673702F7372632F726D96
S315000029E05F6672656572746F735F706F72742F7055
S315000029F06F72742E6300FFFF2828285343425F54EA
S31500002A00797065202A2920282830784530303045CD
S31500002A10303030554C29202B20307830443030551A
S31500002A204C2920292D3E4943535220262028307810
S31500002A30314646554C202929203D3D203000FFFFD8
S31500002A407578437269746963616C4E657374696EF7
S31500002A506700FFFF28282875696E74385F7429207F
S31500002A603729202D20756C4D617850524947524FB9
S31500002A70555056616C756529203D3D203400FFFF99
S31500002A8076506F72744578697443726974696361CC
S31500002A906C00FFFF76506F7274456E7465724372F8
S31500002AA069746963616C00FF78506F727453746166
S31500002AB072745363686564756C65720076506F72E4
S31500002AC07453564348616E646C65725F4300FFFF42
S31500002AD0850D0000990A00009D0D0000A90D00005B
S31500002AE04D0B0000990B0000A10A0000ED0A000042
S31500002AF00D0B0000350B00007D0B0000BD0A000029
S31500002B00D10A0000020403040404FFFF00000000D1
S31500002B1000000000000000000000000000000000AF
S31500002B20000000000000000000000000000000009F
S31500002B30000000000000000000000000000000008F
S31500002B40000000000000000000000000000000007F
S31500002B50000000000000000000000000000000006F
S31500002B60000000000000000000000000000000005F
S31500002B70000000000000000000000000000000004F
S31500002B80000000000000000000000000000000003F
S31500002B90000000000000000000000000000000002F
S31500002BA0000000000000000000000000000000001F
S31500002BB0000000000000000000000000000000000F
S31500002BC000000000000000000000000001000200FC
S31500002BD00800100078517565756500002E2E2F725D
S31500002BE0612F6177732F4672656552544F532F4696
S31500002BF072656552544F532F536F757263652F710B
S31500002C00756575652E6300FF70785175657565008D
S31500002C107852657475726E20213D20282028202860
S31500002C202042617365547970655F742029203020D5
S31500002C30292029007078537461746963517565752C
S31500002C40650000007853697A65203D3D2073697AF6
S31500002C50656F66282051756575655F7420290000CB
S31500002C6070784E6577517565756500FF7848616EB9
S31500002C70646C6500212820282070764974656D549F
S31500002C806F5175657565203D3D202828766F69640E
S31500002C90202A29302920292026262028207078510C
S31500002CA0756575652D3E75784974656D53697A65E8
S31500002CB020213D2028205542617365547970655F57
S31500002CC07420292030552029202900002128202879
S31500002CD02078436F7079506F736974696F6E203D09
S31500002CE03D202820282042617365547970655F7401
S31500002CF020292032202920292026262028207078E5
S31500002D0051756575652D3E75784C656E67746820DE
S31500002D10213D2031202920290000000021282028DB
S31500002D2020785461736B4765745363686564756C8A
S31500002D30657253746174652829203D3D202820283A
S31500002D402042617365547970655F742029203020B4
S31500002D50292029202626202820785469636B73545D
S31500002D606F5761697420213D20302029202900FFFA
S31500002D70707851756575652D3E75784974656D5326
S31500002D80697A65203D3D203000000000212820287A
S31500002D9020707851756575652D3E70634865616470
S31500002DA0203D3D202828766F6964202A2930292075
S31500002DB029202626202820707851756575652D3EB8
S31500002DC0752E7853656D6170686F72652E784D75D6
S31500002DD0746578486F6C64657220213D20282876DA
S31500002DE06F6964202A2930292029202900FFFFFF46
S31500002DF028207078517565756520290021282028BE
S31500002E0020282070764275666665722029203D3D31
S31500002E10202828766F6964202A293029202920262F
S31500002E202620282028207078517565756520292D63
S31500002E303E75784974656D53697A6520213D202871
S31500002E40205542617365547970655F74202920307E
S31500002E50552029202900FFFF785175657565536552
S31500002E606D6170686F726554616B65007851756548
S31500002E7075655265636569766500FFFF785175650E
S31500002E80756547656E6572696353656E6400FFFF1D
S31500002E90785175657565437265617465436F756EC6
S31500002EA074696E6753656D6170686F72655374619E
S31500002EB07469630078517565756547656E657269F5
S31500002EC06343726561746553746174696300FFFFDF
S31500002ED078517565756547656E6572696352657388
S31500002EE0657400FF765175657565416464546F526B
S31500002EF06567697374727900785461736B000000BA
S31500002F002E2E2F72612F6177732F4672656552548C
S31500002F104F532F4672656552544F532F536F757238
S31500002F2063652F7461736B732E6300FF282028205E
S31500002F3028202820707844656C6179656454617333
S31500002F406B4C69737420292D3E75784E756D6265DC
S31500002F50724F664974656D73203D3D2028205542A9
S31500002F60617365547970655F7420292030202920AB
S31500002F703F202820282042617365547970655F746C
S31500002F80202920312029203A202820282042617338
S31500002F9065547970655F7420292030202920292006
S31500002FA02900FFFF707578537461636B427566661E
S31500002FB0657220213D202828766F6964202A2930F1
S31500002FC02900000070785461736B427566666572FD
S31500002FD020213D202828766F6964202A293029007F
S31500002FE07853697A65203D3D2073697A656F662856
S31500002FF0205443425F742029000000007578507207
S31500003000696F72697479203C2028352900FFFFFF1B
S3150000301075785363686564756C657253757370650E
S315000030206E646564203D3D203000FFFF49444C45F9
S31500003030000000007852657475726E20213D2028CC
S31500003040202D31202900FFFF75785363686564756C
S315000030506C657253757370656E64656400FFFFFF7F
S315000030607578546F705072696F7269747900FFFFDA
S3150000307070784576656E744C697374007078556E19
S31500003080626C6F636B656454434200FF70785469E9
S315000030906D654F757400FFFF70785469636B7354E8
S315000030A06F5761697400FFFF785461736B52656DE9
S315000030B06F766546726F6D4576656E744C6973748E
S315000030C000FFFFFF765461736B506C6163654F6E52
S315000030D04576656E744C6973745265737472696370
S315000030E074656400765461736B506C6163654F6EF2
S315000030F04576656E744C69737400FFFF7654617390
S315000031006B537769746368436F6E7465787400FFF8
S31500003110785461736B496E6372656D656E7454693C
S31500003120636B00FF785461736B526573756D65410F
S315000031306C6C00FF765461736B53746172745363E5
S31500003140686564756C657200765461736B44656C72
S31500003150617900FF707276496E697469616C697392
S31500003160654E65775461736B00FFFFFF785461739A
S315000031706B43726561746553746174696300FFFF24
S31500003180785461736B436865636B466F7254696DFF
S31500003190654F757400FFFFFF546D725100FFFFFF0E
S315000031A02820707854696D65722D3E7854696D6576
S315000031B072506572696F64496E5469636B73203E21
S315000031C020302029000000002E2E2F72612F6177FB
S315000031D0732F4672656552544F532F46726565527A
S315000031E0544F532F536F757263652F74696D6572F3
S315000031F0732E6300546D72205376630078526574A3
S3150000320075726E0070727650726F63657373526575
S31500003210636569766564436F6D6D616E647300FF07
S315000032207854696D657243726561746554696D653C
S31100003230725461736B00FFFF0000000089
S3110000323C0400000025050000010500004C
S3150100A150FFFFFFFFFFFFFFFFFFFFFFFFFFFFFFFF08
S705000011AD3C
