S01D0000434F4D4D554E49434154494F4E5F574954485F50432E73726563A4
S315000000005009FE1F551000003D0F00005110000062
S315000000105110000051100000511000005110000056
S315000000200000000000000000000000005110000069
S315000000305110000000000000511000005110000097
S31500000040FFFFFFFFFFFFFFFFFFFFFFFFFFFFFFFFBA
S31500000050FFFFFFFFFFFFFFFFFFFFFFFFFFFFFFFFAA
S31500000060FFFFFFFFFFFFFFFFFFFFFFFFFFFFFFFF9A
S31500000070FFFFFFFFFFFFFFFFFFFFFFFFFFFFFFFF8A
S31500000400FFFFFFFFFFFDFFFFFCFFFFFFFFFFFFFFFB
S31500000410FCFFFFFFFFFFFFFFFCFFFF00FFFFFF00EA
S31500000420FCFF0F20FFFF0F20FCFF7F40FFFF7F40F8
S31500000430FCFF0D40FFFF0D40FFFFFFFFFFFFFFFF2B
S31500000440FFFFFFFFFFFFFFFFFFFFFFFFFFFFFFFFB6
S31500000450FFFFFFFFFFFFFFFFFFFFFFFFFFFFFFFFA6
S31500000460FFFFFFFFFFFFFFFFFFFFFFFFFFFFFFFF96
S31500000470FFFFFFFFFFFFFFFFFFFFFFFFFFFFFFFF86
S31500000480FFFFFFFFFFFFFFFFFFFFFFFFFFFFFFFF76
S31500000490FFFFFFFFFFFFFFFFFFFFFFFFFFFFFFFF66
S315000004A0FFFFFFFFFFFFFFFFFFFFFFFFFFFFFFFF56
S315000004B0FFFFFFFFFFFFFFFFFFFFFFFFFFFFFFFF46
S315000004C0FFFFFFFFFFFFFFFFFFFFFFFFFFFFFFFF36
S315000004D0FFFFFFFFFFFFFFFFFFFFFFFFFFFFFFFF26
S315000004E0FFFFFFFFFFFFFFFFFFFFFFFFFFFFFFFF16
S315000004F0FFFFFFFFFFFFFFFFFFFFFFFFFFFFFFFF06
S3150000050010B5054C237833B9044B13B10448AFF347
S3150000051000800123237010BD2000FE1F0000000094
S315000005209C13000008B5034B1BB103490348AFF306
S31500000530008008BD000000002400FE1F9C13000080
S315000005402DE9F843C568D0F80890A9EB0508904551
S315000005500446164609D94068284400F0E1FDBFF379
S315000005605F8F3544E560BDE8F8834068284435442C
S315000005700F464246A5EB090500F0D2FD60682A4603
S3150000058007EB080100F0CCFDBFF35F8FE560BDE827
S31500000590F88300BF2DE9F8430646D0E902048946F0
S315000005A017464FF0000833699C42A0EB040503F19F
S315000005B0FF3224BF03F1FF321218BD4228BF3D4669
S315000005C0121B9542706828BF1546494620442A46A4
S315000005D000F0A6FDB0682C44A844A9447F1BA042A5
S315000005E008BF0024BFF35F8FF460002FDBD14046C5
S315000005F0BDE8F88310B5164CA8220021204600F06D
S315000006009DFD03212161134A61611348A2614FF4E4
S315000006108061E061002321621048A36210216362B9
S31500000620E36222666066A1662367E3666367BFF3DB
S315000006305F8F0B4B5321A3F10F0C184601E013F902
S315000006400119C21A6345A154F9D1BFF35F8F10BDDA
S315000006503C00FE1FC4110000F400FE1FE400FE1F54
S31500000660DE1100002DE9F04FDFF8A8A09AF800305F
S3150000067083B0054689469046002B48D005EB4507D2
S315000006800AEBC7074FEA450BFB6E3E6F9E4220D82A
S315000006909C1B444528BF44461CB9204603B0BDE810
S315000006A0F08F27460BEB05030AEBC3032246596E70
S315000006B04846314400F034FD26443C46002CECD03C
S315000006C05D440AEBC50A2046CAF8706003B0BDE86F
S315000006D0F08FBC6E796E0193A41B444528BF444637
S315000006E031442246484600F01BFDBA6E019B264463
S315000006F0B242A8EB040814BF9B1B0026434528BF43
S315000007004346002BDAD0A144E7181C46CAE7FFF798
S3150000071071FFB3E73C00FE1F38B5204B00EB4004E9
S3150000072003EBC40E0130DEF82C4000EB4000012C38
S315000007308C46154603EBC00005D0022C29D0ACB17F
S315000007400024204638BDDEF82830DEF82420934207
S315000007509CBFDEF820401B19013B9C1AAC4228BF07
S315000007602C462246FFF7ECFE204638BDDEF8283040
S31500000770DEF8242093429CBFDEF820105B18013B74
S315000007809B1A9D42DDD82A466146FFF7D9FE2C46C4
S31500000790D7E7BDE83840FFF7FDBE00BF3C00FE1FAF
S315000007A030B50C4B1B7883B00C4663B1EFF3118563
S315000007B04FF0200181F311882146FFF7ADFF85F345
S315000007C0118803B030BDCDE90002FFF713FFDDE964
S315000007D00002EBE73C00FE1F70B5054682B00846F6
S315000007E00C4600F0B3FC0B4B1B7802466BB1EFF3E3
S315000007F011864FF0200181F3118821462846FFF724
S315000008008BFF86F3118802B070BD0190FFF7F2FEF0
S31500000810019AECE73C00FE1F10B582B0EFF311849D
S315000008204FF0200181F3118801220DF1070100200C
S31500000830FFF718FF84F311880128EFD19DF8070010
S3150000084002B010BD2DE9F041194D1E462B78044625
S31500000850884617462BB3022C26D8EFF311834FF0A8
S31500000860200181F3118854B92046044405EBC405E0
S31500000870069AEA6283F311880020BDE8F081601CC5
S3150000088000EB4000C00004EB440245F8008005EB95
S31500000890C2022844002147601662600091625162DC
S315000008A0E3E7FFF7A7FED6E74FF0FF30E5E700BF27
S315000008B03C00FE1F00B51849184D85B00020FFF713
S315000008C08BFF00244FF47A714FF4967000F008FB0A
S315000008D023462246214600942046FFF7B3FFFFF742
S315000008E09BFF03A90346012220460393FFF758FF07
S315000008F0039B312B4FF001024FF4437128461EBF74
S315000009004FF443712246284600F046F84FF47A71B8
S31500000910084600F0E5FAD4E7E4110000F404FE1FEF
S31500000920022800D07047024B0248596800F080B98F
S31500000930FC110000F404FE1F08B5FFF7BBFF002002
S3150000094008BD00BF00230360184670470B0A1B0151
S31500000950044853FA81F150F82130C3F340030020D4
S315000009601370704700080440090A490101F18041EB
S3150000097001F5802100204B6813807047090A490160
S3150000098001F1804123EA020001F580211A4042EA82
S3150000099000428A6000207047C8B2012383404AB9EA
S315000009A01A040B0A5B0103F1804303F58023002040
S315000009B09A6070479AB2F4E7090A490101F1804149
S315000009C001F5802110B40C6802EA0300204362EAB4
S315000009D0030202405DF8044B0A600020704700BF26
S315000009E0090A490101F1804101F5802100204B6887
S315000009F0C3F30F431380704710B40B0A5B0103F176
S31500000A00804303F58023C8B25C68012181408BB224
S31500000A1001EA1441C91AB1FA81F1490900205DF8C9
S31500000A20044B1170704700BF090A490101F180416A
S31500000A3023EA020001F580211A4042EA0042CA6018
S31500000A40002070470B0A5B0103F18043012A03F57E
S31500000A5080230AD0D868C9B24FF480328A40024354
S31500000A60120C1204DA6000207047C8B2D9688240BE
S31500000A700A4392B2DA600020704700BF0388002B59
S31500000A8079D02DE9F04FDFF8F490DFF8F4B083B0B9
S31500000A9007464FF000087B68374E4FEAC8055919DC
S31500000AA040F20242898891424FF000044FF0010A59
S31500000AB009D00134032C26D07B6836F8022B59194D
S31500000AC089889142F5D15B5999F8BB2403F0B85354
S31500000AD0B3F1807F0AFA04F3D9B21CD013423BD19A
S31500000AE004F120031BF81320D209E2D01BF81320CF
S31500000AF06FF3C7120BF813200121C820013400F050
S31500000B00EFF9032CD8D13B8808F101084345C2D838
S31500000B1003B0BDE8F08F134210D004F120031BF898
S31500000B201320D209C5D11BF8132042F080020BF81E
S31500000B3013200121C82000F0D3F9BAE70120019162
S31500000B4000F05CFA99F8BB340199194389F8BB1493
S31500000B50012000F023FAE0E70120019100F04EFAAF
S31500000B6099F8BB34019923EA010189F8BB140120E5
S31500000B7000F014FAB4E77047CE12000000E001401E
S31500000B8000400440F8B50446FFF778FFEFF3108203
S31500000B90012383F31088234E33681BB92249CB7097
S31500000BA04023CB7033680133336082F31088258885
S31500000BB02DB362681D4C013DADB202F1080101EB97
S31500000BC0C50500E008311068928810F4803F4FEAAE
S31500000BD012235FFA82FC0CEB031E09D054F82E7028
S31500000BE020F480326FF3104744F82E7044F82E201C
S31500000BF01B0163448D4244F823000A46E2D1EFF319
S31500000C001082012383F31088336813B13368013BE4
S31500000C10336033681BB904498020CB70C87082F3F7
S31500000C201088F8BD3C05FE1F000D04400008044076
S31500000C3008B50346034A1A600846FFF7A3FF0020DB
S31500000C4008BD00BF54524F5008B50846FFF79AFF3B
S31500000C50002008BD70B584B002AB012668460C467C
S31500000C601546ADF80C100292ADF800600193FFF73F
S31500000C7005FFEFF3108286F310881D490B681BB938
S31500000C801C48C3704023C3700B6801330B6082F3AA
S31500000C901088EA034FEA1423E4B219D41B01164A5A
S31500000CA0234442F82350EFF31082012383F3108884
S31500000CB00B6813B10B68013B0B600B681BB90D4940
S31500000CC08020CB70C87082F31088002004B070BDFD
S31500000CD004EB0310084A52F820606FF3104642F8FE
S31500000CE0206025F4803642F820601B01D7E700BF5C
S31500000CF03C05FE1F000D044000080440064B074952
S31500000D0093F826001A6A51F820300549C2F30262A8
S31500000D10D3400B60704700BF00E001400800FE1F93
S31500000D204805FE1F38B53B4B3B493C4C3C4A3D4DC4
S31500000D304AF20350A3F8FE030020A1F800013A4945
S31500000D4093F826006160394922604FF40042C4E9F5
S31500000D5002213749C4E90421196A54F82020C1F355
S31500000D600261CA402A602021092283F8131483F8FD
S31500000D70A22093F88024002A44D0264A0023062184
S31500000D8082F8813482F8803482F8A51082F83230F5
S31500000D9092F83C301907FBD500234FF41C511185FE
S31500000DA082F82A301B4B93F83C209206FBD51A4A50
S31500000DB0022182F81C111F491962052183F82610A9
S31500000DC093F8261054F821001C6AC4F30264E0402C
S31500000DD02860012160244FF4254083F8301083F801
S31500000DE0521083F8531083F82440A3F8FE03A2F8A8
S31500000DF00411B2F804319BB2002BFAD10123A2F8F8
S31500000E00003138BD012183F8801440F2C44000F05F
S31500000E1067F8B2E700E0014000C001400800FE1F8D
S31500000E20002D31014805FE1F00127A00001BB70095
S31500000E30001C4E0E2112012138B5244C002584F8E1
S31500000E4028500121C82000F04BF884F8245094F86B
S31500000E502430002BFBD194F824301C4A43F00203C3
S31500000E6084F8243092F82430C3F340009B07F9D469
S31500000E7082F8220092F84030144960F3C71382F8D2
S31500000E80403091F84030DB09FBD191F842000F4A1F
S31500000E9063F3C71081F8420092F84230DB09FBD1B8
S31500000EA092F84400094963F3C71082F8440091F8A8
S31500000EB04430DC09FBD1012000F0A0F8044B0120EE
S31500000EC083F8BB44BDE8384000F068B800400440F1
S31500000ED000E00140A0F101000028FBD1704700BFEF
S31500000EE030B5144D144A00FB01F14FF47A732868AB
S31500000EF0B2FBF0F2A1FB03C44FF0FF304FF0000E3F
S31500000F0060457EEB040407D3BCFBF2F0800878B1A1
S31500000F10BDE83040FFF7DEBF9200B1FBF2F1A1FB66
S31500000F20031388427EEB0303F2D308460028EFD171
S31500000F3030BD00BF4805FE1F00CA9A3B0B4B70B57B
S31500000F40B3F840510A4E0024ADB225FA04F3DB078C
S31500000F50E0B203D556F8243003B198470134102C7B
S31500000F60F3D1024BA3F8305170BD00BF00600040C2
S31500000F70FC04FE1F10B4074A074C002303F1C0010E
S31500000F80013332F8020F44F82100602BF6D15DF8E8
S31500000F90044B7047D212000000600040EFF310814E
S31500000FA0012383F31088124B33F8102092B22AB132
S31500000FB033F81020013A92B223F8102033F810309B
S31500000FC09BB293B90B4A10B4B2F8FE330A4C9BB2EB
S31500000FD034F8100043F4254323EA0003A2F8FE3355
S31500000FE081F310885DF8044B704781F310887047D1
S31500000FF04005FE1F00E001409413000030B4EFF3FB
S315000010001081012383F310880E4A32F810309BB208
S315000010106BB90D4C0D4DB4F8FE3335F810C09BB2CC
S3150000102043EA0C0343F425439BB2A4F8FE3332F89B
S31500001030103001339BB222F8103081F3108830BC97
S31500001040704700BF4005FE1F00E0014094130000FA
S3150000105000BE704708B500F003F8FFF76DFCFEE729
S31500001060234B70B54FF47002224DC3F88820002040
S315000010709D60FFF755FCFFF755FE0120FFF750FC7A
S315000010801D4B29681D481E4D00244FF425429C80A7
S315000010901A80A1F580629A601A4AD9604FF4805688
S315000010A00121A5F82061121A9980214600F046F820
S315000010B01548164A1649174D121A00F031F8164B04
S315000010C05B1BA34206DD9E1055F8043B013498478E
S315000010D0A642F9DCFFF712FEFFF7AEFE0220FFF78D
S315000010E01FFCFFF747FFBDE87040002000F016B870
S315000010F000ED00E000000000000D00402000FE1F93
S31500001100006000404C05FE1F0000FE1F0800FE1F89
S31500001110A01300000000FE1F0400FE1F704700BF62
S315000011200A44914200F1FF3300D1704710B511F81F
S31500001130014B03F8014F9142F9D110BD0244034619
S31500001140934200D1704703F8011BF9E7034613F8F1
S31500001150012B002AFBD1181A013870474275696CB9
S315000011607420776974682052656E657361732041D7
S315000011706476616E63656420466C657869626C6549
S3150000118020536F667477617265205061636B616787
S31500001190652076657273696F6E20342E332E3000AB
S315000011A0342E332E3000000000000304F8B500BFD3
S315000011B0F8BC08BC9E467047F8B500BFF8BC08BC32
S315000011C09E4670475465726D696E616C00FFFFFF45
S315000011D00000000000005454522052454747455332
S315000011E000FFFFFF0D0A4150504C49434154494FFF
S315000011F04E20535441525445440D0A00F404FE1F38
S3150000120008120000981200001100000010120000E1
S31500001210008000000400000000000106000100003C
S3150000122000000106010100000000010602010000A5
S315000012300000010603010000004000000501000057
S315000012400400000006010000000001000801000083
S315000012500000010C050200000000010C070200005E
S315000012600000010000030000040000000B03000062
S31500001270040000000C03000004000000000400004D
S315000012800000010501040000000001050204000041
S315000012900000011307040000310C0000450900009E
S315000012A0490C0000550C0000F9090000450A000031
S315000012B04D09000099090000B9090000E109000084
S315000012C0290A0000690900007D09000002040304E0
S315000012D00404FFFF00000000000000000000000002
S315000012E000000000000000000000000000000000F8
S315000012F000000000000000000000000000000000E8
S3150000130000000000000000000000000000000000D7
S3150000131000000000000000000000000000000000C7
S3150000132000000000000000000000000000000000B7
S3150000133000000000000000000000000000000000A7
S315000013400000000000000000000000000000000097
S315000013500000000000000000000000000000000087
S315000013600000000000000000000000000000000077
S315000013700000000000000000000000000000000067
S315000013800000000000000000000000000000000057
S31500001390000000000100020008001000000000002C
S30D000013A025050000010500000F
S3150100A150FFFFFFFFFFFFFFFFFFFFFFFFFFFFFFFF08
S7050000105595
