S01C0000464C415348574152455F44454E454D455F3030332E737265636C
S31500000000B007FE1FED1F0000D51E0000E91F00000F
S31500000010E91F0000E91F0000E91F0000E91F0000BA
S31500000020000000000000000000000000E91F0000C2
S31500000030E91F000000000000E91F0000E91F0000A2
S31500000040B913000029130000491400009914000098
S31500000050000000000000000000000000000000009A
S31500000060000000000000000000000000000000008A
S31500000070000000000000000000000000000000007A
S31500000080000000000000000000000000000000006A
S31500000400FFFFFFFFFFFDFFFFFCFFFFFFFFFFFFFFFB
S31500000410FCFFFFFFFFFFFFFFFCFFFF00FFFFFF00EA
S31500000420FCFF0F20FFFF0F20FCFF7F40FFFF7F40F8
S31500000430FCFF0D40FFFF0D40FFFFFFFFFFFFFFFF2B
S31500000440FFFFFFFFFFFFFFFFFFFFFFFFFFFFFFFFB6
S31500000450FFFFFFFFFFFFFFFFFFFFFFFFFFFFFFFFA6
S31500000460FFFFFFFFFFFFFFFFFFFFFFFFFFFFFFFF96
S31500000470FFFFFFFFFFFFFFFFFFFFFFFFFFFFFFFF86
S31500000480FFFFFFFFFFFFFFFFFFFFFFFFFFFFFFFF76
S31500000490FFFFFFFFFFFFFFFFFFFFFFFFFFFFFFFF66
S315000004A0FFFFFFFFFFFFFFFFFFFFFFFFFFFFFFFF56
S315000004B0FFFFFFFFFFFFFFFFFFFFFFFFFFFFFFFF46
S315000004C0FFFFFFFFFFFFFFFFFFFFFFFFFFFFFFFF36
S315000004D0FFFFFFFFFFFFFFFFFFFFFFFFFFFFFFFF26
S315000004E0FFFFFFFFFFFFFFFFFFFFFFFFFFFFFFFF16
S315000004F0FFFFFFFFFFFFFFFFFFFFFFFFFFFFFFFF06
S3150000050010B5054C237833B9044B13B10448AFF347
S3150000051000800123237010BDD800FE1F00000000DC
S31500000520E040000008B5034B1BB103490348AFF395
S31500000530008008BD00000000DC00FE1FE040000057
S315000005402DE9F8432DED028B00F1FF3807464446AE
S31500000550C11D4346002613F8012F0A2A01D002B115
S3150000056001368B42F7D1EEB19FED118BB146B04407
S31500000570002614F9015FE3433B4403EB090001F055
S31500000580EDFEB0EE480AF0EE680A41EC110B02F0FF
S3150000059053F951EC100B01F04BFF303D444505FB80
S315000005A00066E6D1BDEC028B3046BDE8F88300BF9D
S315000005B00000000000002440084A08B582424FF0BF
S315000005C000038B4106D302460B460448002101F086
S315000005D057FF08BD0248002108BD00BF40420F007A
S315000005E0C0D40100FFFFFFFF31280FDD08B540F240
S315000005F0E7339842A8BF184601F0B0FE06A3D3E938
S31500000600002303F0F7F801F053FF08BD4FF0FF3069
S3150000061001467047AFF300808B63B32BA6380640C4
S31500000620022800D07047024B0248596801F0E6B82C
S31500000630BC3D00006801FE1F704700BF024605482A
S3150000064022B101224FF4437100F08CBF4FF4437185
S3150000065000F088BF6801FE1F2DE9F04F83B000F05F
S3150000066081FBB34EB34D3060FFF7E8FF00F0EEFAC2
S315000006703060FFF7E3FF00F0FDFA3060FFF7DEFFC2
S315000006804FF47A71FA2001F0F7FB00F079FB306045
S31500000690FFF7D4FF4FF47A71084601F0EDFB40F600
S315000006A0D7200021FFF788FF00F0B0FA044600F0DB
S315000006B0F5FA204600F0FEFA9F4B01939F4BA04FA0
S315000006C0DFF8988203F1010A2A4640F20B114046F0
S315000006D000F022FF4FF47A713060322001F0CCFB3B
S315000006E02B78012B40F0CD803B68022B00F0D080A8
S315000006F000F056FB4FF47A7104460A2001F0BCFB69
S31500000700204600F037FAB0F1FF3F8146DCD00146C3
S31500000710204600F091F9834600F05EFB894B0146C6
S315000007201860204600F038FA204600F06DF9B9F15D
S31500000730010F0ADD0346814A09F1FF30184413F818
S31500000740011F02F8011F8342F9D17C4A032302F8F4
S31500000750093058464A46514600F002F90028B3D0FF
S31500000760204600F089F9044600F0CAF9431CABD0D4
S315000007700328A9D8DFE800F03B292102204600F033
S31500000780EDF9714B0446186000289DD100F088F9F8
S31500000790FFF7D6FE6D4B1B688342814694D0002836
S315000007A092D0FFF721FFB1F1FF3F08BFB0F1FF3F45
S315000007B040F0878000F096FA86E73968204600F018
S315000007C007FA00F0FBFA30607EE74FF47A713220C8
S315000007D001F052FB5E4800F0F1FA3060002869D063
S315000007E001224FF44371404600F0BCFE6CE7204600
S315000007F000F0A8F9574B0446186000287FF464AF50
S3150000080000F04EF9FFF79CFE534B1B68834281466E
S315000008103FF45AAF00283FF457AFFFF7E5FEB1F1BA
S31500000820FF3F08BFB0F1FF3F7CD03C60FFF7C4FE3E
S3150000083000F0ECF900F032FA00F078FA012801D065
S3150000084000F05CFA444BC3F8009000F03DF900F06C
S315000008509DF800F0F9F83E49421E00F10A0312F82D
S31500000860010F01F8010B9342F9D14FF47A7164201C
S3150000087001F002FB364800F0A1FA3060FFF7DEFE19
S3150000088022E700F023FA00F02DFA01233B601BE774
S3150000089040F6D7200021FFF78FFE00F0B7F9044697
S315000008A000F0FCF9204600F005FA00F027FA00F007
S315000008B031FA1DE702464FF44371404600F052FEFE
S315000008C002E73C60FFF778FE00F0A0F900F0F2F9CD
S315000008D000F03AFA012828D11C4BC3F8009000F02A
S315000008E0F3F800F053F800F0AFF8019A12490191BD
S315000008F00023C2E90033C2F80730421E00F10A03A2
S3150000090012F8010F01F8010B9342F9D14FF47A71F5
S31500000910642001F0B1FA084800F050FA3060FFF7A1
S315000009208DFED1E600F0D2F98FE700F0F3F9D3E7B8
S315000009300401FE1FF400FE1F1401FE1F0000FE1F2F
S315000009401400FE1F0001FE1FFC00FE1F1000FE1F0C
S315000009500801FE1FF800FE1F0C00FE1F6801FE1FA7
S3150000096031B1002A04DD0A4412F8013C032B01D000
S3150000097000207047002311F801CB914283EA0C0353
S31500000980F9D1C01AB0FA80F0400970471A4B70B519
S315000009901E681A4D002102238E42C5F80510C5F8BF
S315000009A00110A9602B7005F1010417DD32461449C8
S315000009B0204601F02BFF06F1010C032305F80C304D
S315000009C00236104A002112F8010BA31A6344002BC9
S315000009D081EA0001F7DCA955084870BD06F1010C53
S315000009E00323BCF1010F05F80C3006F10206E8D02E
S315000009F0A955024870BD00BF4401FE1F1800FE1F26
S31500000A003C01FE1F1900FE1F094B30B41C68094D3E
S31500000A10012C08DD611E2B46014410F8012F03F856
S31500000A20012F8842F9D103232B55024830BC704769
S31500000A303001FE1F3000FE1F435C032B06BF40182B
S31500000A4040780120704700BF10B5094C09490023C2
S31500000A502360421E00F10B0E134612F801CF01F877
S31500000A6001CB02331B1A72452360F5D1014810BD34
S31500000A702C01FE1F2001FE1F084A0023C2E9003395
S31500000A804378032B07D0013A013002F8013F10F8F2
S31500000A90013F032BF9D10148704700BF3C01FE1FFF
S31500000AA0074A08490020C2E900001346101D11F844
S31500000AB0012B1AB103F8012B8342F8D10048704785
S31500000AC03401FE1F4001FE1F30B40B4B0B4D0022BC
S31500000AD014462A6003F10801104613F8012F0AB1E3
S31500000AE0013001248B42F8D114B1286030BC704724
S31500000AF0204630BC704700BF3B01FE1F4401FE1F6D
S31500000B008378512B11D0522B06D1C378512B14BFA9
S31500000B104FF0FF3001207047452B10D1C3784B2B87
S31500000B2014BF4FF0FF3002207047C378B3F1310095
S31500000B3018BF4FF0FF30322B08BF032070474FF02D
S31500000B40FF3070478378512B05D1C078313818BFF4
S31500000B504FF0FF3070474FF0FF3070478378512BCE
S31500000B6005D1C078323818BF4FF0FF3070474FF0CC
S31500000B70FF30704760B10378022B09D1034600208D
S31500000B8003E013F8012F032A05D001300B28F8D112
S31500000B904FF0FF307047704710B40C4C002300290B
S31500000BA023600DDD421E184603E0013088422060B6
S31500000BB006D012F8013F032BF7D15DF8044B7047BE
S31500000BC04FF0FF305DF8044B704700BF3001FE1F49
S31500000BD010B400290C4C4278017861700CBF3023A8
S31500000BE03123A270637204F10A00631C002201E043
S31500000BF013F8011F834282EA0102F9D10248E27228
S31500000C005DF8044B704700BF2400FE1F0B4A0C4BD7
S31500000C10126A1B6810B50B4CC2F3026194F808C047
S31500000C208B4002F00701CB4023FA0CF1064A002361
S31500000C30A1FB000101F024FC10BD00BF00E0014053
S31500000C40AC03FE1FC83D000040420F0038B5064DFC
S31500000C500649074C284600F0C9FE0346284623608D
S31500000C6000F038FE206038BD7001FE1FC83D000050
S31500000C704801FE1F38B5064D0649074C284600F0C8
S31500000C80B5FE03462846236000F024FE206038BDEA
S31500000C909001FE1F183E00004801FE1F08B50146E0
S31500000CA0024800F01DFE024B186008BD7001FE1FD1
S31500000CB04801FE1F08B50146024800F011FE024B2E
S31500000CC0186008BD9001FE1F4801FE1F08B50348C5
S31500000CD000F0FAFD024B186008BD00BF7001FE1F50
S31500000CE04801FE1F08B5034800F0EEFD024B1860F0
S31500000CF008BD00BF9001FE1F4801FE1F08B503484E
S31500000D0000F0E8FD024B186008BD00BF7001FE1F31
S31500000D104801FE1F08B5034800F0DCFD024B1860D1
S31500000D2008BD00BF9001FE1F4801FE1F10B5044C10
S31500000D300448216800F0ECFD2368187910BD00BF57
S31500000D404C01FE1F7001FE1F10B5044C04482168BB
S31500000D5000F0DEFD2368187910BD00BF5001FE1FAC
S31500000D609001FE1F08B50349034800F02DF9034B17
S31500000D70186008BD683E0000B001FE1F6401FE1F3A
S31500000D8008B5044904480E2200F04EF8034B1860DB
S31500000D9008BD00BF3C00FE1FB001FE1F6401FE1F20
S31500000DA010B5044C04480C22214600F039F82046C0
S31500000DB010BD00BF5801FE1FB001FE1F08B5014659
S31500000DC00C22034800F030F8024B186008BD00BF43
S31500000DD0B001FE1F6401FE1F30B40C4B0C4D002207
S31500000DE014462A6003F10C01104613F8012B1AB1C0
S31500000DF00A2A1CBF013001249942F6D114B1286099
S31500000E0030BC7047204630BC704700BF5801FE1FFB
S31500000E105401FE1F08B5FFF71FFC002008BD00BFE8
S31500000E20C0E905120020704770B5C369DB699C7B79
S31500000E30F4B9046AA37803F07B03A370837803F004
S31500000E400303D21A0B440261A278C360837803F0CD
S31500000E50030342F08002022BA27003D00B78E370EA
S31500000E60002070BD0B8843F47E43E381002070BDF3
S31500000E70EFF3108C012484F310881C4C25681DB9EF
S31500000E801B4EF5704025F5702568013525608CF3FD
S31500000E901088B3F810C093F80FE0164D4FEA1C23E4
S31500000EA01B0153FA8CFC55F82C3023F0011323F464
S31500000EB04043BEF1000F08BF43F0010343F00403B3
S31500000EC045F82C30EFF31085012383F3108823684F
S31500000ED013B12368013B236023681BB9044CE370FC
S31500000EE08023E37085F31088A3E700BF2002FE1F6E
S31500000EF0000D044000080440F0B5846A85B005463C
S31500000F000F4694466E46B4B194E80F0086E80F008B
S31500000F10EB691B7884F804C02360EB6A2046C4E9B9
S31500000F2002736B6A9847AC6A1CB196E80F0084E8B6
S31500000F300F0005B0F0BD3446EAE700BFC3699A7BEF
S31500000F4002B9704710B4EFF31080012282F31088C3
S31500000F501A4A116819B91A4CE1704021E1701168FA
S31500000F600131116080F31088198A164C080A0001B5
S31500000F7050FA81F1D87B54F8213023F0011323F481
S31500000F804043002818BF43F0010343F0040344F82C
S31500000F902130EFF31081012383F31088136813B116
S31500000FA01368013B136013681BB9054A8020D37090
S31500000FB0D07081F310885DF8044B70472002FE1F45
S31500000FC0000D044000080440F8B50B7800220270BA
S31500000FD00D4603F100734969416203F56053A9693F
S31500000FE05B01C0E9075304468378C4E90A2101205E
S31500000FF060F30103A3706B7823B9A378022262F32E
S315000010000103A37095F90B10C24AA87A4B09203345
S3150000101001F01F07012606FA07F742F82370BFF30F
S315000010204F8FBFF36F8FBC4B01F1C00753F827C03A
S315000010306FF3104C43F827C053F827705718000178
S31500001040C0B287F80003B54F47F8214095F905105F
S3150000105028794FEA511C0CF1200C01F01F0E06FAFC
S315000010600EFE42F82CE0BFF34F8FBFF36F8F01F1F6
S31500001070C00C53F82CE06FF3104E43F82CE053F8F5
S315000010802CC002EB010C0001C0B28CF8000347F83B
S31500001090214095F90710A8794FEA511C0CF1200C54
S315000010A001F01F0E06FA0EFE42F82CE0BFF34F8F3A
S315000010B0BFF36F8F01F1C00C53F82CE06FF3104EA5
S315000010C043F82CE053F82CC002EB010C0001C0B22F
S315000010D08CF8000347F8214095F90910287A4FEA61
S315000010E0511C0CF1200C01F01F0E06FA0EFE42F800
S315000010F02CE0BFF34F8FBFF36F8F01F1C00C53F895
S315000011002CE06FF3104E43F82CE053F82C300A44D1
S315000011100301DBB282F8003347F82140E069FFF7AC
S315000011200DFFEFF3108086F310887D4B2E78D3F8F1
S3150000113000214FF00041F14022EA0102C3F80021EC
S31500001140D3F8003180F31088236A00229A701A714E
S315000011505A729A72DA725A83297840F2FF32CA407A
S31500001160D60744BF4022DA7406221A772A786E78A8
S31500001170AF78E96940F2FF30D040EA78C50744BF4E
S315000011804FF478409882D200032E42EA071200F00C
S31500001190BC80002E14BFF220E220D2B21A709871E1
S315000011A00A7B520002F002025A734A788878D2010A
S315000011B0400100F02000D2B20243002018720D78E0
S315000011C0A81E012840F29880D2B2DA714A68907857
S315000011D058701878567866F301001870D0789874AD
S315000011E01278D87902F05C0200F0A3000243DA71AB
S315000011F00020E3692061A061E060606193F9056009
S31500001200454B06F1C00253F8227060F3104743F8CD
S31500001210227053F82220BFF35F8F7209920002F109
S31500001220604202F561424FF0010E06F01F060EFA0B
S3150000123006F6C2F880611660E26992F90B6006F163
S31500001240C00253F8227060F3104743F8227053F837
S315000012502220BFF35F8F7209920002F1604202F50D
S31500001260614206F01F060EFA06F6C2F880611660A5
S31500001270E26992F907C00CF1C00253F8226060F3EC
S31500001280104643F8226053F82220BFF35F8F4FEADF
S315000012905C12920002F160420CF01F0C02F56142F2
S315000012A00EFA0CF6C2F880611660E26992F909201E
S315000012B002F1C00653F8267060F3104743F8267013
S315000012C053F82630BFF35F8F53099B0003F1604349
S315000012D003F5614302F01F020EFA02F2C3F8802101
S315000012E01A60236A4A8905F0030545F070059D706A
S315000012F00C4B22816360F8BD022D08BF42F010023C
S31500001300FF20D2B25870DA7172E742F04002F22042
S3150000131043E700BF00E100E0006000402402FE1F3A
S31500001320006F04405549435330B4EFF30383103B39
S315000013305BB203F1C0011E4A52F821006FF3104060
S3150000134042F8210052F821201A4A52F82300C369B4
S315000013501B691BB103691BB130BC704703697BB9BC
S31500001360D0E90824937803F07F03002143F00403B7
S315000013709370C160002CEFD030BC8022FFF7BCBD5B
S31500001380827802F003010229C1680BD0046A91F841
S3150000139000C084F803C002F003029B1A0A44C0E9A5
S315000013A00323D8E70C88056A44F47E44EC81F2E70F
S315000013B0006000402402FE1F10B582B0EFF30383E5
S315000013C0103B5BB203F1C0011D4A52F821006FF3D6
S315000013D0104042F8210052F821201A4A52F82340C0
S315000013E0A27802F00303022B236A0CBF198A5979EB
S315000013F0A3690CBFC1F30801C9B2019143B9636A7D
S31500001400B3B10422204602B0BDE81040FFF774BD18
S3150000141002F0030201A9606901F0F8F9D4E9052197
S31500001420A37803F003031A44C91AC4E9052109B1D4
S3150000143002B010BD636A002BFAD00122E2E700BFBA
S31500001440006000402402FE1F38B5EFF30383103B13
S315000014505CB20F4B53F82450D5E90702937803F09A
S315000014607B039370FFF76AFD6B6A23B102220021AA
S315000014702846FFF741FD074A04F1C00352F823103E
S315000014806FF3104142F8231052F8233038BD00BFE5
S315000014902402FE1F00600040F8B5EFF30383103B03
S315000014A05CB2194A52F82450AB7803F00303022BBE
S315000014B02B6A0CBF1E8A5E7919790CBFC6F3080623
S315000014C0F6B201F03807C90604D51A7FD20758BF0D
S315000014D047F04007187900F0C7001871E869FFF770
S315000014E02DFD6B6A23B13A4631462846FFF704FDC7
S315000014F0064A04F1C00352F823106FF3104142F874
S31500001500231052F82330F8BD2402FE1F006000406D
S3150000151000230360184670470B0A1B01044853FA60
S3150000152081F150F82130C3F3400300201370704757
S3150000153000080440090A490101F1804101F58021B2
S3150000154000204B6813807047090A490101F1804168
S3150000155023EA020001F580211A4042EA00428A602D
S3150000156000207047C8B2012383404AB91A040B0A07
S315000015705B0103F1804303F5802300209A607047E6
S315000015809AB2F4E7090A490101F1804101F5802187
S3150000159010B40C6802EA0300204362EA0302024028
S315000015A05DF8044B0A600020704700BF090A490134
S315000015B001F1804101F5802100204B68C3F30F4300
S315000015C01380704710B40B0A5B0103F1804303F5E7
S315000015D08023C8B25C68012181408BB201EA1441C4
S315000015E0C91AB1FA81F1490900205DF8044B11705E
S315000015F0704700BF090A490101F1804123EA020050
S3150000160001F580211A4042EA0042CA600020704774
S315000016100B0A5B0103F18043012A03F580230AD0FC
S31500001620D868C9B24FF480328A400243120C1204C1
S31500001630DA6000207047C8B2D96882400A4392B285
S31500001640DA600020704700BF0388002B79D02DE9AF
S31500001650F04FDFF8F490DFF8F4B083B007464FF0B0
S3150000166000087B68374E4FEAC805591940F2024216
S31500001670898891424FF000044FF0010A09D00134E5
S31500001680032C26D07B6836F8022B5919898891429B
S31500001690F5D15B5999F8BB2403F0B853B3F1807FB9
S315000016A00AFA04F3D9B21CD013423BD104F1200349
S315000016B01BF81320D209E2D01BF813206FF3C712D0
S315000016C00BF813200121C820013400F0D5FB032CB0
S315000016D0D8D13B8808F101084345C2D803B0BDE81C
S315000016E0F08F134210D004F120031BF81320D20907
S315000016F0C5D11BF8132042F080020BF813200121FC
S31500001700C82000F0B9FBBAE70120019100F042FCC5
S3150000171099F8BB340199194389F8BB14012000F0EC
S3150000172009FCE0E70120019100F034FC99F8BB3494
S31500001730019923EA010189F8BB14012000F0FAFBA4
S31500001740B4E770477240000000E0014000400440EA
S31500001750F8B50446FFF778FFEFF31082012383F311
S315000017601088234E33681BB92249CB704023CB70B7
S3150000177033680133336082F3108825882DB362689D
S315000017801D4C013DADB202F1080101EBC50500E0BB
S3150000179008311068928810F4803F4FEA12235FFAEE
S315000017A082FC0CEB031E09D054F82E7020F4803214
S315000017B06FF3104744F82E7044F82E201B01634443
S315000017C08D4244F823000A46E2D1EFF3108201234A
S315000017D083F31088336813B13368013B3360336891
S315000017E01BB904498020CB70C87082F31088F8BDFD
S315000017F02002FE1F000D04400008044008B5034601
S31500001800034A1A600846FFF7A3FF002008BD00BF81
S3150000181054524F5008B50846FFF79AFF002008BDFE
S3150000182070B584B002AB012668460C461546ADF885
S315000018300C100292ADF800600193FFF705FFEFF37D
S31500001840108286F310881D490B681BB91C48C370AB
S315000018504023C3700B6801330B6082F31088EA03E0
S315000018604FEA1423E4B219D41B01164A234442F862
S315000018702350EFF31082012383F310880B6813B112
S315000018800B68013B0B600B681BB90D498020CB70C0
S31500001890C87082F31088002004B070BD04EB0310FA
S315000018A0084A52F820606FF3104642F8206025F48B
S315000018B0803642F820601B01D7E700BF2002FE1FDA
S315000018C0000D0440000804400346D3E9022300202B
S315000018D0936070470346D3E90223002053607047A4
S315000018E010B4D0E901434A1E9A6624781CB9490807
S315000018F0013959659965D96AC90705D4C1685A6617
S315000019004FF4AA001864D96000205DF8044B7047B4
S315000019108268D36AC3F300030B71936C0B600020DB
S31500001920704700BF30B44C6E01342AB1944203D9DB
S31500001930013A30BC1A607047029D496B0078ED078A
S3150000194054BF01F01F01C1F30441032808D9090956
S3150000195081F001016AB9A1B9022230BC5A60704710
S3150000196001F00C01A1F10401B1FA81F14909002A43
S31500001970F1D0944201D80029EED1032230BC5A603E
S315000019807047002CE8D0F8E7002800DA704710B45A
S3150000199000F16043134C03F561430901C9B283F8B2
S315000019A0001300F1C001104B44F8202053F8212009
S315000019B06FF3104243F8212053F82130BFF35F8FB5
S315000019C043099B0003F16043012203F5614300F0E4
S315000019D01F0002FA00F0C3F8800118605DF8044B9E
S315000019E0704700BF2402FE1F006000402DE9F04151
S315000019F00B7C0D46012101FA03F2C260C2F30D020F
S31500001A0084B004464560002A40F0FE80017403F568
S31500001A108003D5E9051203F5F0631B02A3600023DA
S31500001A20EE696161C4E90632EFF31080012181F3AA
S31500001A301088954B2A7C082AD3F8082134BF6FF00A
S31500001A4020076FF040073A40C3F80821D3F8083161
S31500001A5080F31088E3681B070CD0EFF3108081F346
S31500001A6010888A4AE16853889BB223EA01035380AF
S31500001A7080F31088A36868684FF425421A60002234
S31500001A80DA62DA639A64297A95F800C04908BCF1EB
S31500001A90030F4FEA016100F1FF3700F0B880D6E985
S31500001AA0068ED9624FF000411961596199614FF074
S31500001AB0FF315A6203929A620291C3F81C80C3F8FE
S31500001AC020E09F665F66F76ABCF1000F40F0D080A9
S31500001AD0410801390291BC460122032059659965E6
S31500001AE0BCF1000F5BD13178002972D195F800C0A6
S31500001AF0B178D1B196F803E0BCF1020F4FEA0E11AE
S31500001B0041EA8E1100F0AE80BCF1030F00F0B980FF
S31500001B10BEF1000F14BF4FF0090E4FF0060E41EA5A
S31500001B200E0147EA014747F0807795F810E0FF215C
S31500001B3021FA0EF111F0010101D0002159649963D7
S31500001B40C3F8881096F8211096F820E0490741EA74
S31500001B504E310F43BCF1010F4FF4AA01196431D085
S31500001B60E168D9605F6318631A63697C95F91200AE
S31500001B702246FFF709FF96F8221096F9240022461E
S31500001B80FFF702FF96F9250096F823102246FFF785
S31500001B90FBFE3F4B2360002004B0BDE8F08195F8C2
S31500001BA010C0FF2121FA0CF111F001010ED1996349
S31500001BB0C3F8881095F800C04FF4AA01BCF1010FD4
S31500001BC01964CDD10021D9641965C9E7002159648A
S31500001BD0EDE796F801E095F800C04FEA0E11BCF16A
S31500001BE0020F41EA8E1140D0BCF1030F47D0BEF17F
S31500001BF0000F14BF4FF0090E4FF0060E41EA0E011A
S31500001C000F4347F4807773E700220274FFE6D6E9B4
S31500001C1006C041F48031D9624FF000411961039248
S31500001C20596199615A629A62C3F81CC04FF0FF323B
S31500001C3018629F665F66F76A029219460023009350
S31500001C40EA68606802ABFFF76DFEDDE90210020686
S31500001C5042EA004242F00300A368D6F82CC042F0E4
S31500001C6001023BE74FF0090E59E74FF0090EC5E7B1
S31500001C70BCF1010FE1D162460320BC462EE7E646E1
S31500001C80BCE7E6464BE700BF006F044000B00740E4
S31500001C9054504700064B074993F826001A6A51F834
S31500001CA020300549C2F30262D3400B60704700BF83
S31500001CB000E00140BC00FE1FAC03FE1F38B53B4BE5
S31500001CC03B493C4C3C4A3D4D4AF20350A3F8FE03C7
S31500001CD00020A1F800013A4993F8260061603949CD
S31500001CE022604FF40042C4E902213749C4E90421C5
S31500001CF0196A54F82020C1F30261CA402A602021E3
S31500001D00092283F8131483F8A22093F88024002A6A
S31500001D1044D0264A0023062182F8813482F8803492
S31500001D2082F8A51082F8323092F83C301907FBD5BC
S31500001D3000234FF41C51118582F82A301B4B93F86F
S31500001D403C209206FBD51A4A022182F81C111F4933
S31500001D501962052183F8261093F8261054F82100FD
S31500001D601C6AC4F30264E0402860012160244FF439
S31500001D70254083F8301083F8521083F8531083F807
S31500001D802440A3F8FE03A2F80411B2F804319BB272
S31500001D90002BFAD10123A2F8003138BD012183F8C6
S31500001DA0801440F2C44000F067F8B2E700E001405A
S31500001DB000C00140BC00FE1F002D3101AC03FE1F18
S31500001DC000127A00001BB700001C4E0E21120121E2
S31500001DD038B5244C002584F828500121C82000F08D
S31500001DE04BF884F8245094F82430002BFBD194F857
S31500001DF024301C4A43F0020384F8243092F824303D
S31500001E00C3F340009B07F9D482F8220092F84030D1
S31500001E10144960F3C71382F8403091F84030DB096B
S31500001E20FBD191F842000F4A63F3C71081F84200D4
S31500001E3092F84230DB09FBD192F84400094963F37A
S31500001E40C71082F8440091F84430DC09FBD1012028
S31500001E5000F0A0F8044B012083F8BB44BDE83840ED
S31500001E6000F068B80040044000E00140A0F1010025
S31500001E700028FBD1704700BF30B5144D144A00FB53
S31500001E8001F14FF47A732868B2FBF0F2A1FB03C4A8
S31500001E904FF0FF304FF0000E60457EEB040407D391
S31500001EA0BCFBF2F0800878B1BDE83040FFF7DEBF3A
S31500001EB09200B1FBF2F1A1FB031388427EEB030310
S31500001EC0F2D308460028EFD130BD00BFAC03FE1F99
S31500001ED000CA9A3B0B4B70B5B3F840510A4E00242A
S31500001EE0ADB225FA04F3DB07E0B203D556F8243089
S31500001EF003B198470134102CF3D1024BA3F83051AB
S31500001F0070BD00BF00600040E001FE1F10B4074A2C
S31500001F10074C002303F1C001013332F8020F44F8E5
S31500001F202100602BF6D15DF8044B70477A3F000024
S31500001F3000600040EFF31081012383F31088124BF9
S31500001F4033F8102092B22AB133F81020013A92B237
S31500001F5023F8102033F810309BB293B90B4A10B413
S31500001F60B2F8FE330A4C9BB234F8100043F4254312
S31500001F7023EA0003A2F8FE3381F310885DF8044BD0
S31500001F80704781F310887047A403FE1F00E00140EC
S31500001F907840000030B4EFF31081012383F31088FA
S31500001FA00E4A32F810309BB26BB90D4C0D4DB4F899
S31500001FB0FE3335F810C09BB243EA0C0343F42543C5
S31500001FC09BB2A4F8FE3332F8103001339BB222F8EC
S31500001FD0103081F3108830BC704700BFA403FE1F89
S31500001FE000E001407840000000BE704708B500F0F0
S31500001FF003F8FEF70FFFFEE7234B70B54FF47002B0
S31500002000224DC3F8882000209D60FEF709FBFFF7EC
S3150000201055FE0120FEF704FB1D4B29681D481E4D89
S3150000202000244FF425429C801A80A1F580629A60B4
S315000020301A4AD9604FF480560121A5F82061121A78
S315000020409980214600F0F0FB1548164A1649174DAF
S31500002050121A00F0DBFB164B5B1BA34206DD9E103B
S3150000206055F8043B01349847A642F9DCFFF712FE07
S31500002070FFF7AEFE0220FEF7D3FAFFF747FFBDE8F3
S315000020807040002000F016B800ED00E000000000EF
S31500002090000D0040D800FE1F00600040B003FE1F88
S315000020A00000FE1FBC00FE1FEC400000B400FE1F37
S315000020B0B800FE1F704700BF81F0004102E000BF7C
S315000020C083F0004330B54FEA41044FEA430594EAF2
S315000020D0050F08BF90EA020F1FBF54EA000C55EA2D
S315000020E0020C7FEA645C7FEA655C00F0E2804FEAFE
S315000020F05454D4EB5555B8BF6D420CDD2C4480EAE0
S31500002100020281EA030382EA000083EA010180EA0F
S31500002110020281EA0303362D88BF30BD11F0004F5D
S315000021204FEA01314FF4801C4CEA113102D0404293
S3150000213061EB410113F0004F4FEA03334CEA1333CE
S3150000214002D0524263EB430394EA050F00F0A780E6
S31500002150A4F10104D5F1200E0DDB02FA0EFC22FAE1
S3150000216005F2801841F1000103FA0EF2801843FAD5
S3150000217005F359410EE0A5F120050EF1200E012AC6
S3150000218003FA0EFC28BF4CF0020C43FA05F3C01804
S3150000219051EBE37101F0004507D54FF0000EDCF17D
S315000021A0000C7EEB00006EEB0101B1F5801F1BD326
S315000021B0B1F5001F0CD349085FEA30004FEA3C0C2A
S315000021C004F101044FEA445212F5800F80F09A8020
S315000021D0BCF1004F08BF5FEA500C50F1000041EB24
S315000021E0045141EA050130BD5FEA4C0C404141EB28
S315000021F00101013C28BFB1F5801FE9D291F0000F23
S3150000220004BF01460020B1FA81F308BF2033A3F1D1
S315000022100B03B3F120020CDA0C3208DD02F1140CC8
S31500002220C2F10C0201FA0CF021FA02F10CE002F103
S315000022301402D8BFC2F1200C01FA02F120FA0CFCFC
S31500002240DCBF41EA0C019040E41AA2BF01EB045145
S31500002250294330BD6FEA04041F3C1CDA0C340EDC43
S3150000226004F11404C4F1200220FA04F001FA02F386
S3150000227040EA030021FA04F345EA030130BDC4F144
S315000022800C04C4F1200220FA02F001FA04F340EA39
S315000022900300294630BD21FA04F0294630BD94F0EA
S315000022A0000F83F4801306BF81F480110134013DD1
S315000022B04EE77FEA645C18BF7FEA655C29D094EA42
S315000022C0050F08BF90EA020F05D054EA000C04BFC0
S315000022D01946104630BD91EA030F1EBF00210020AB
S315000022E030BD5FEA545C05D14000494128BF41F04A
S315000022F0004130BD14F580043CBF01F5801130BDAE
S3150000230001F0004545F0FE4141F470014FF0000038
S3150000231030BD7FEA645C1ABF194610467FEA655CE9
S315000023201CBF0B46024650EA013406BF52EA03358B
S3150000233091EA030F41F4002130BD00BF90F0000F79
S3150000234004BF0021704730B54FF4806404F13204B5
S315000023504FF000054FF0000150E700BF90F0000F6E
S3150000236004BF0021704730B54FF4806404F1320495
S3150000237010F0004548BF40424FF000013EE700BF65
S3150000238042004FEAE2014FEA31014FEA02701FBFF5
S3150000239012F07F4393F07F4F81F06051704732F027
S315000023A07F4208BF704793F07F4F04BF41F400217E
S315000023B0704730B54FF4607401F0004521F00041DC
S315000023C01CE700BF50EA010208BF704730B54FF066
S315000023D000050AE050EA010208BF704730B511F067
S315000023E0004502D5404261EB41014FF4806404F19F
S315000023F032045FEA915C3FF4D8AE4FF003025FEA25
S31500002400DC0C18BF03325FEADC0C18BF033202EBA8
S31500002410DC02C2F1200300FA03FC20FA02F001FA02
S3150000242003FE40EA0E0021FA02F11444BDE600BFA5
S315000024304FEA410212F5001215D211D56FF47873E6
S31500002440B3EB625212D94FEAC12343F0004343EA89
S31500002450505311F0004F23FA02F018BF4042704764
S315000024604FF00000704750EA013005D111F00040EE
S3150000247008BF6FF0004070474FF00000704700BF84
S3150000248053B94AB9002908BF00281CBF4FF0FF31D5
S315000024904FF0FF3000F092B9ADF1080C6DE904CEB3
S315000024A000F024F8DDF804E0DDE9022304B070470B
S315000024B0D0B50C4B002206460F4601F09BF900F002
S315000024C07FF90446FFF73AFF074B002201F092F925
S315000024D002460B4630463946FFF7F2FD00F070F92A
S315000024E02146D0BD0000F03D0000F0412DE9F04747
S315000024F0089D04468E46002B4DD18A42944669D9E2
S31500002500B2FA82F252B101FA02F3C2F1200120FAC4
S3150000251001F10CFA02FC41EA030E94404FEA1C4812
S31500002520210CBEFBF8F61FFA8CF708FB16E341EA0E
S31500002530034306FB07F199420AD91CEB030306F194
S31500002540FF3080F01F81994240F21C81023E6344B5
S315000025505B1AA4B2B3FBF8F008FB103344EA034459
S3150000256000FB07F7A7420AD91CEB040400F1FF336E
S3150000257080F00A81A74240F207816444023840EAAB
S315000025800640E41B00261DB1D4400023C5E90043E4
S315000025903146BDE8F0878B4209D9002D00F0EF8067
S315000025A00026C5E9000130463146BDE8F087B3FA9A
S315000025B083F6002E4AD18B4202D3824200F2F98082
S315000025C0841A61EB030301209E46002DE0D0C5E985
S315000025D0004EDDE702B9FFDEB2FA82F2002A40F0D1
S315000025E09280A1EB0C014FEA1C471FFA8CFE0126D4
S315000025F0200CB1FBF7F307FB131140EA01410EFB78
S3150000260003F0884208D91CEB010103F1FF3802D21E
S31500002610884200F2CB804346091AA4B2B1FBF7F018
S3150000262007FB101144EA01440EFB00FEA64508D93B
S315000026301CEB040400F1FF3102D2A64500F2BB8078
S315000026400846A4EB0E0440EA03409CE7C6F12007C7
S31500002650B34022FA07FC4CEA030C20FA07F401FA0D
S3150000266006F31C43F9404FEA1C4900FA06F3B1FB96
S31500002670F9F8200C1FFA8CFE09FB181140EA0141FB
S3150000268008FB0EF0884202FA06F20BD91CEB010198
S3150000269008F1FF3A80F08880884240F28580A8F1F0
S315000026A002086144091AA4B2B1FBF9F009FB101142
S315000026B044EA014100FB0EFE8E4508D91CEB0101E0
S315000026C000F1FF346CD28E456AD90238614440EA83
S315000026D00840A0FB0294A1EB0E01A142C846A64603
S315000026E056D353D05DB1B3EB080261EB0E0101FA8C
S315000026F007F722FA06F3F1401F43C5E900710026E9
S315000027003146BDE8F087C2F12003D8400CFA02FC3E
S3150000271021FA03F3914001434FEA1C471FFA8CFE4E
S31500002720B3FBF7F007FB10360B0C43EA064300FB3E
S315000027300EF69E4204FA02F408D91CEB030300F1DC
S31500002740FF382FD29E422DD9023863449B1B89B293
S31500002750B3FBF7F607FB163341EA034106FB0EF31C
S315000027608B4208D91CEB010106F1FF3816D28B42C9
S3150000277014D9023E6144C91A46EA004638E72E4695
S31500002780284605E70646E3E61846F8E64B45A9D28D
S31500002790B9EB020864EB0C0E0138A3E74646EAE7FC
S315000027A0204694E74046D1E7D0467BE7023B6144AA
S315000027B032E7304609E76444023842E7704700BF13
S315000027C04A0011D212F5001211D20DD56FF47873AA
S315000027D0B3EB62520ED44FEAC12343F0004343EAFF
S315000027E0505323FA02F070474FF00000704750EA4A
S315000027F0013002D14FF0FF3070474FF000007047B4
S31500002800014B1868704700BF5000FE1F0A449142F2
S3150000281000F1FF3300D1704710B511F8014B03F8F2
S31500002820014F9142F9D110BD02440346934200D1B3
S31500002830704703F8011BF9E7F8B52DED028B55EC4F
S31500002840114B57EC106B00F06FF822462B462046D2
S315000028502946B0EE408AF0EE608A01F065FA78B952
S31500002860002200233046394601F02CFAF0B100224E
S3150000287000232046294601F025FA40B19FED288B1A
S31500002880B0EE480AF0EE680ABDEC028BF8BD45ECE6
S31500002890104B00F00FFF0028F2D0204629460022F8
S315000028A0002301F019FA0028EAD02EE0B0EE480A1B
S315000028B0F0EE680A00F0FEFEA0B151EC180B002203
S315000028C0002301F0FFF90028DAD047EC106B00F086
S315000028D0F1FE0028D4D045EC104B00F0EBFE0028AA
S315000028E0CED012E047EC106B00F0E4FE0028E4D0F6
S315000028F045EC104B00F0DEFE0028DED053EC182B22
S3150000290051EC180B01F010FA20B9FFF779FF2223DA
S315000029100360B5E7FFF774FF21230360B0E700BF4C
S31500002920000000000000F03F2DE9F04F55EC114B80
S315000029302DED0C8B25F0004A5AEA040157EC106B7A
S3150000294087B015D1B3197E4887F4002252419942C7
S3150000295070EB020324D222462B4630463946FFF757
S31500002960B1FB41EC100B07B0BDEC0C8BBDE8F08F52
S31500002970744927F00049894510EE102AB84616DD3D
S3150000298008F1404808F5801858EA0208E3D12319EF
S315000029906B4985F400225241984571EB0203DAD364
S315000029A09FED650B07B0BDEC0C8BBDE8F08F11EE0B
S315000029B0103AAB4642D063498A45E1DC00F0948088
S315000029C0B8F1000F73DB002100917BB95D4B9A458E
S315000029D000F08E805C4B9A4500F0A280BBF1804FE0
S315000029E000F0C284594B9B4500F0D78347EC106B2F
S315000029F0029200F055FE029A62B3009A4FEAD8732B
S31500002A00013B0493134300F09280514B9A4540F3E7
S31500002A10A58003F104739A454E4B40F33F849945D4
S31500002A2040F3B484BBF1000F40F3B484002007B038
S31500002A30BDEC0C8BBDE8F04F00F028BE002E8AD10D
S31500002A40B9E747EC106B009200F02AFE009A002AC4
S31500002A506DD10092B9F1000F04D03B4B28F04042F3
S31500002A609A42CAD1BBF1000F07DA53EC102B364954
S31500002A70002000F0E9FF41EC100BB8F1000FBFF6A3
S31500002A8072AF009B09F1404909F5801959EA030321
S31500002A9040F0908453EC102B10461946FFF710FBBC
S31500002AA002460B4600F0D0FF41EC100B5BE72A49CB
S31500002AB08A452FDCA1F154718A450FDD4FEA2A5170
S31500002AC0A1F2FF31142940F36784C1F1340123FADE
S31500002AD001F000FA01F1994200F0A584002100916D
S31500002AE0002B3FF477AF81E7002B3FF469AF47E750
S31500002AF009F1404303F5801313433FF451AF154BDF
S31500002B00994540F38483BBF1000FC0F2618445EC24
S31500002B10104B28E702210091002B3FF457AF65E7E1
S31500002B20BBF1000FC0F2168447EC106B1BE7324670
S31500002B303B46B1E7AFF30080000000000000F03F25
S31500002B400000F0FF0000F07F0000F03F0000E03FD3
S31500002B500000E041FFFFEF3FFFFF3F43E44B08EA81
S31500002B600303002253B951EC100BE24B00F042FE76
S31500002B7041EC100B10EE909A6FF034024FEA295395
S31500002B80A3F2FF339A18DC4B0592C9F3130949F0F7
S31500002B907F56994546F4401607DDD84B994540F3D4
S31500002BA01B8401320592A6F580169FEDB96B9FED49
S31500002BB0BA7B53EC162BB0EE47CAF0EE67CA002775
S31500002BC0B0EE47DAF0EE67DA5BEC10ABB346504690
S31500002BD0594643EC1A2BFFF773FA53EC1A2B80462F
S31500002BE0894650465946FFF76DFA02460B460020C5
S31500002BF0C34900F029FF41EC1B0B404653EC1B2B4D
S31500002C00494600F0F7FD41EC180B0A460146CDE9AE
S31500002C1002120021029176104BEC19AB46F00056D9
S31500002C20DDE902AB06F500230020D91906460F465A
S31500002C3002460B465046594600F0DCFD02460B465E
S31500002C4040464946FFF73CFA53EC1A2B8046894624
S31500002C5030463946FFF734FA02460B4651EC190B5B
S31500002C60FFF72EFA52465B4600F0C4FD02460B46BD
S31500002C7040464946FFF724FA53EC1B2B00F0BAFDF9
S31500002C8053EC182B41EC1B0B51EC180B00F0B2FD6A
S31500002C9083A3D3E9002306460F4600F0ABFD82A3CB
S31500002CA0D3E90023FFF70EFA32463B4600F0A2FDB9
S31500002CB07FA3D3E90023FFF705FA32463B4600F02F
S31500002CC099FD7DA3D3E90023FFF7FCF932463B4685
S31500002CD000F090FD7AA3D3E90023FFF7F3F932461B
S31500002CE03B4600F087FD78A3D3E90023FFF7EAF916
S31500002CF03246804689463B463046394600F07AFDE4
S31500002D0002460B464046494600F074FD52460646CA
S31500002D100F465B4651EC180BFFF7D4F953EC1B2B0F
S31500002D2000F068FD32463B46FFF7CCF9524641ECCF
S31500002D301A0B5B465046594600F05CFD714B00226B
S31500002D4080468946FFF7BEF953EC1A2BFFF7BAF90E
S31500002D5050460F465946DDE902AB3B46524600F067
S31500002D6049FD684B41EC190B002250463946FFF7E6
S31500002D70A7F942464B46FFF7A3F902460B4651EC2C
S31500002D801A0BFFF79DF953EC182B00F033FD524652
S31500002D903B4606460F4651EC1B0B00F02BFD024648
S31500002DA00B4630463946FFF78DF98046894642463E
S31500002DB04B4651EC190BFFF785F945A3D3E90023E0
S31500002DC050460F4600F016FD53EC192B41EC190B3B
S31500002DD050463946FFF774F902460B4640464946C7
S31500002DE0FFF76EF93CA3D3E9002300F003FD02468A
S31500002DF00B461646504639461F4639A3D3E90023EB
S31500002E0000F0F8FC02460B4630463946FFF75AF901
S31500002E1053EC1D2BFFF756F9804605988946FFF7B8
S31500002E209DFA424682468B464B4651EC190BFFF7FC
S31500002E3049F953EC1C2BFFF745F952465B46FFF761
S31500002E4041F952465B46002006460F46FFF738F921
S31500002E5053EC1C2BFFF734F953EC192BFFF730F921
S31500002E6002460B4640464946FFF72AF9009B049A5C
S31500002E70013B134382468B4640F0C2819FED1A7B8D
S31500002E80B0EE478AF0EE678A3EE000BFAFF30080FF
S31500002E90000000000000F03F0000000000000000FD
S31500002EA0EF4E454A287ECA3F65DBC9934A86CD3F29
S31500002EB001411DA96074D13F4D268F515555D53F0F
S31500002EC0FFAB6FDBB66DDB3F033333333333E33FA7
S31500002ED0000000E009C7EE3FFD033ADC09C7EE3FFC
S31500002EE0F5015B14E02F3EBE000000000000F0BFBD
S31500002EF00000F07F000040438E98030079B60B0077
S31500002F000000F03F000008400023CDE90045009393
S31500002F10DDE90089204642464B462946FFF7D0F8B0
S31500002F2032463B4600F066FC22462B4604460D46DA
S31500002F305046594600F05EFC02460B46204629469E
S31500002F40FFF7C0F8424604460D464B463046394622
S31500002F5000F050FC26462F4604460D462B463046CA
S31500002F6039462246FFF7AEF8C74B99428046894656
S31500002F708A4640F31F8101F13F4303F5E003034313
S31500002F8040F03E82AAA3D3E9002330463946FFF734
S31500002F9099F802460B4640464946904699462246CF
S31500002FA02B46FFF78DF802460B464046494600F091
S31500002FB0B1FE002840F02482CAF30A534FF480126F
S31500002FC0A3F2FE3342FA03F35344B049C3F30A5261
S31500002FD0A2F2FF3241FA02FCC3F3130141F480115D
S31500002FE0C2F1140241FA02F2002023EA0C01BAF1FE
S31500002FF0000F00920B46024602DA00994942009100
S3150000300020462946FFF75CF8009B1B050293024603
S315000030100B4604460D4630463946FFF753F88946B7
S315000030204FF0000884A3D3E900234046494600F048
S31500003030E1FB22462B4682468B4640464946FFF731
S315000030403FF802460B4630463946FFF739F87CA36F
S31500003050D3E9002300F0CEFB7BA3D3E9002304468B
S315000030600D464046494600F0C5FB02460B46204643
S315000030702946FFF727F806460F4632463B46504696
S315000030805946FFF71FF852465B4604460D46FFF7C2
S3150000309017F802460B4630463946FFF711F8224626
S315000030A0804689462B462046294600F0A3FB68A3A6
S315000030B0D3E9002306460F4600F09CFB66A3D3E93E
S315000030C00023FEF7FDFF32463B4600F093FB64A368
S315000030D0D3E90023FEF7F6FF32463B4600F08AFBB3
S315000030E061A3D3E90023FEF7EBFF32463B4600F02F
S315000030F081FB5FA3D3E90023FEF7E4FF32463B469C
S3150000310000F078FB02460B4620462946FEF7D8FF1C
S3150000311006460F4632463B462046294600F06AFBE5
S3150000312002460B463046394616461F4600224FF0E9
S315000031308043FEF7C5FF02460B463046394600F08F
S3150000314083FC424606460F464B462046294600F07B
S3150000315051FB42464B46FEF7B5FF02460B4630464C
S315000031603946FEF7ADFF22462B46FEF7A9FF02467B
S315000031700B4600204649FEF7A3FF029A0B4613446E
S31500003180B3F5801FC0F24781194653EC182B00F0A7
S3150000319031FB41EC100BFFF7E6BBB8F1000FFFF671
S315000031A025AC47EC106B07B0BDEC0C8BBDE8F04FBF
S315000031B000F074B9DFF8E0C021F00043634540F346
S315000031C0DD80344B0B4403430AD122462B46FEF7DF
S315000031D077FF32463B4600F093FD00283FF4ECAE05
S315000031E051EC180B0022002300F076FD003818BFC2
S315000031F0012007B0BDEC0C8BBDE8F04F00F03CBAE7
S315000032009FED1D7BB0EE478AF0EE678A7CE6BBF148
S31500003210000F9FED1B0BBFF6A6AB05F1004300EEBA
S31500003220104A00EE903AFFF79EBB00BFAFF3008056
S31500003230FE822B654715973C00000000432EE63FB3
S31500003240EF39FAFE422EE63F396CA80C615C20BECF
S31500003250D0A4BE726937663EF16BD2C541BDBB3E96
S315000032602CDE25AF6A56113F93BDBE166CC1663F74
S315000032703E5555555555C53F000000000000F03F2E
S315000032800000000000000000FFFF8F40FFFF0F005E
S315000032900000F03F00346F3FFFCB9040994575DB4F
S315000032A07B4B99453FF7BEAB51EC100B784B002298
S315000032B0FEF706FF66A3D3E9002306460F4600F095
S315000032C099FA65A3D3E9002382468B4630463946F0
S315000032D000F090FA6F4B41EC180B0022304639464D
S315000032E000F088FA02460B465DA1D1E90001FEF71F
S315000032F0E7FE32463B4600F07DFA02460B460020CA
S315000033006549FEF7DDFE3246804689463B46304635
S31500003310394600F06FFA02460B464046494600F031
S3150000332069FA51A3D3E9002300F064FA02460B467A
S3150000333051EC180BFEF7C4FE8046894642464B46C2
S3150000334050465946FEF7BEFE002052465B460646EC
S315000033500F4683E54E49002032463B4600F074FB9B
S3150000336041EC100BFFF7FFBA32463B463046394672
S3150000337000F040FA41EC100BFFF7F5BA464A9342CB
S3150000338062DCDDE900120291009149E6BBF1000F13
S31500003390FFF64CAB00202CE7002B7FF452ABC1F1BB
S315000033A014014AFA01F000FA01F1514545D00093A3
S315000033B0FFF710BB009B012B7FF4D5AA10EE901AE5
S315000033C010EE102A01F1004343EC102BFFF7CBBAA5
S315000033D09FED270BFFF7C7BA9FED277BB0EE47CAD5
S315000033E0F0EE67CA9FED267BB0EE47DAF0EE67DABD
S315000033F09FED257B4FF4802753EC172BFFF7E4BB9B
S3150000340051EC180B0022002300F066FC003818BFB0
S315000034100120FFF70CBB41EC100B009800F058F9A7
S3150000342051EC100BB1E600F00100C0F10201009171
S31500003430002B3FF4CFAAFFF7D9BA00F00100C0F184
S3150000344002030093FFF7C6BA1B15B7E5AFF300807A
S31500003450000000604715F73F44DF5DF80BAE543EB1
S31500003460555555555555D53FFE822B654715F73FA2
S3150000347000000000000000000000004003B8E23F2A
S3150000348006D0CF43EBFD4C3E000000000000F83FA5
S315000034900000F03F0000D03F0000E03F2DE9F04182
S315000034A0634A55EC104BAA4300F09F80002D10EEA6
S315000034B010CA2B4654DD291563D0C3F31303A1F2BA
S315000034C0FF37C90743F4801304D45B0003EBDC73B6
S315000034D04FEA4C0C4FEADC72002602EB43037F10E6
S315000034E04FEA4C0C4FF0160E34464FF40012A1185A
S315000034F0994202DC5B1A8C1816445B00BEF1010E81
S3150000350003EBDC734FEA52024FEA4C0CEFD17546DF
S3150000351020204FF000420AE044D04FEADC71013827
S3150000352001EB43034FEA4C0C4FEA520243D0A3424D
S3150000353002EB0E01F0DD002901EB020E0ADBA046CC
S315000035401B1B614588BF03F1FF33ACEB010C15442F
S315000035504446E2E7BEF1000FF1DB04F10108EFE7B4
S3150000356025F00042224338D0002D4ED129464FEA9D
S31500003570DC22153913464FEA4C5C002AF7D0D602F6
S3150000358050D400205B00DD02044600F10100F9D5AD
S315000035901A4663460CFA00FCC0F12000C340091B22
S315000035A013438AE76145B8D8002901EB020ED1DB47
S315000035B098460023C9E753EA0C0310D16808711036
S315000035C0F30701F17F5101F5001148BF40F00040BB
S315000035D001EB0753024643EC102BBDE8F0816A1C51
S315000035E016BF681C01364008E9E710EE102A10EEF7
S315000035F0100A2B46294600F0FDF822462B46FEF718
S3150000360061FD41EC100BBDE8F08110EE102A20465A
S315000036102946FEF755FD02460B4600F015FA41EC29
S31500003620100BDAE7634620204FF0FF34B6E700BF01
S315000036300000F07FD0B506460F461446FFF7E0F8C7
S315000036400346394630461C60D0BD00BF30B514462F
S3150000365083B01D4608B103F10043CDE90023DDE93F
S3150000366000232046294600F0C5F8222203B0BDE813
S315000036703040FFF7DFBF00BF08B500224FF0805390
S31500003680FFF7E4FF41EC100B08BD00BF08B50022B0
S315000036904FF0E043FFF7DAFF41EC100B08BD00BF27
S315000036A051EC100B10EE102A21F0004343EC102BC6
S315000036B0704700BF82B08DED000B019840F00040CE
S315000036C000F58010C00F02B0704700BFFFFFFFFF7C
S315000036D038B553EC102BC3F30A5104469C4689BBFC
S315000036E010EE101A23F0004C5CEA010129D01946AD
S315000036F000223D4B3D4D10EE100A00F07BF8AC4227
S3150000370002460B4616DB8C46C1F30A513639214474
S3150000371040F2FE70814221DC002947DC11F1350FB1
S3150000372034DA4CF250318C4218DC002B26A1D1E958
S31500003730000144DB24A3D3E9002300F05BF841EC4D
S31500003740100B38BD40F2FF708142E0D110EE100A36
S315000037501946FEF7B7FC41EC100B38BD002B1CA137
S31500003760D1E9000107DB1AA3D3E9002300F042F8F0
S3150000377041EC100B38BD18A1D1E9000114A3D3E91F
S31500003780002300F037F841EC100BF3E72CF0FF4C68
S315000037902CF4E00C36314CEA01531046194600224F
S315000037A0134B00F027F841EC100B38BD2CF0FF4C02
S315000037B02CF4E00C4CEA015343EC102B38BD08A165
S315000037C0D1E90001B6E700BF59F3F8C21F6EA501A3
S315000037D09C7500883CE4377E9C7500883CE437FE87
S315000037E059F3F8C21F6EA58100005043B03CFFFF9D
S315000037F00000903C70B54FF0FF0C4CF4E06C1CEAF6
S3150000380011541DBF1CEA135594EA0C0F95EA0C0FD0
S3150000381000F0DEF82C4481EA030621EA4C5123EA43
S315000038204C5350EA013518BF52EA033541F4801172
S3150000383043F4801338D0A0FB02CE4FF00005E1FB25
S3150000384002E506F00042E0FB03E54FF00006E1FB6F
S3150000385003569CF0000F18BF4EF0010EA4F1FF04B2
S31500003860B6F5007F64F5407404D25FEA4E0E6D41F2
S3150000387046EB060642EAC62141EA55514FEAC52003
S3150000388040EA5E504FEACE2EB4F1FD0C88BFBCF57F
S31500003890E06F1ED8BEF1004F08BF5FEA500E50F130
S315000038A0000041EB045170BD06F0004646EA0101F6
S315000038B040EA020081EA0301B4EB5C04C2BFD4EB28
S315000038C00C0541EA045170BD41F480114FF0000E21
S315000038D0013C00F3AB8014F1360FDEBF002001F08F
S315000038E0004170BDC4F10004203C35DA0C341BDC09
S315000038F004F11404C4F1200500FA05F320FA04F0DB
S3150000390001FA05F240EA020001F0004221F000410E
S3150000391010EBD37021FA04F642EB06015EEA430E81
S3150000392008BF20EAD37070BDC4F10C04C4F12005B1
S3150000393000FA04F320FA05F001FA04F240EA020064
S3150000394001F0004110EBD37041F100015EEA430E35
S3150000395008BF20EAD37070BDC4F1200500FA05F255
S315000039604EEA020E20FA04F301FA05F243EA0203D4
S3150000397021FA04F001F0004121FA04F220EA0200E3
S3150000398000EBD3705EEA430E08BF20EAD37070BD29
S3150000399094F0000F0FD101F00046400041EB010109
S315000039A011F4801F08BF013CF7D041EA060195F0EB
S315000039B0000F18BF704703F00046520043EB0303A5
S315000039C013F4801F08BF013DF7D043EA0603704792
S315000039D094EA0C0F0CEA135518BF95EA0C0F0CD09D
S315000039E050EA410618BF52EA4306D1D181EA0301E3
S315000039F001F000414FF0000070BD50EA410606BFDD
S31500003A001046194652EA430619D094EA0C0F02D121
S31500003A1050EA013613D195EA0C0F05D152EA033666
S31500003A201CBF104619460AD181EA030101F0004184
S31500003A3041F0FE4141F470014FF0000070BD41F0CD
S31500003A40FE4141F4780170BD70B54FF0FF0C4CF4A7
S31500003A50E06C1CEA11541DBF1CEA135594EA0C0FC6
S31500003A6095EA0C0F00F0A7F8A4EB050481EA030E13
S31500003A7052EA03354FEA013100F088804FEA0333FA
S31500003A804FF0805545EA131343EA12634FEA0222C8
S31500003A9045EA111545EA10654FEA00260EF0004189
S31500003AA09D4208BF964244F1FD0404F5407402D2DB
S31500003AB05B084FEA3202B61A65EB03055B084FEA6C
S31500003AC032024FF480104FF4002CB6EB020E75EB69
S31500003AD0030E22BFB61A754640EA0C005B084FEA91
S31500003AE03202B6EB020E75EB030E22BFB61A75460E
S31500003AF040EA5C005B084FEA3202B6EB020E75EB59
S31500003B00030E22BFB61A754640EA9C005B084FEAD0
S31500003B103202B6EB020E75EB030E22BFB61A7546DD
S31500003B2040EADC0055EA060E18D04FEA051545EACC
S31500003B3016754FEA06164FEAC30343EA52734FEA75
S31500003B40C2025FEA1C1CC0D111F4801F0BD141EAEE
S31500003B5000014FF000004FF0004CB6E711F4801F53
S31500003B6004BF01430020B4F1FD0C88BFBCF5E06F33
S31500003B703FF6AFAEB5EB030C04BFB6EB020C5FEA43
S31500003B80500C50F1000041EB045170BD0EF0004E98
S31500003B904EEA113114EB5C04C2BFD4EB0C0541EACA
S31500003BA0045170BD41F480114FF0000E013C90E6C7
S31500003BB045EA060E8DE60CEA135594EA0C0F08BF8B
S31500003BC095EA0C0F3FF43BAF94EA0C0F0AD150EA8A
S31500003BD001347FF434AF95EA0C0F7FF425AF10461D
S31500003BE019462CE795EA0C0F06D152EA03353FF445
S31500003BF0FDAE1046194622E750EA410618BF52EAC2
S31500003C0043067FF4C5AE50EA41047FF40DAF52EA95
S31500003C1043057FF4EBAE12E74FF0FF3C06E000BF32
S31500003C204FF0010C02E000BF4FF0010C4DF804CD3F
S31500003C304FEA410C7FEA6C5C4FEA430C18BF7FEAFF
S31500003C406C5C1BD001B050EA410C0CBF52EA430C2D
S31500003C5091EA030F02BF90EA020F0020704710F1AD
S31500003C60000F91EA030F58BF994208BF90422CBF3C
S31500003C70D8176FEAE37040F0010070474FEA410C35
S31500003C807FEA6C5C02D150EA013C07D14FEA430C53
S31500003C907FEA6C5CD6D152EA033CD3D05DF8040BC4
S31500003CA0704700BF8446104662468C4619466346F6
S31500003CB000E000BF01B5FFF7B7FF002848BF10F1CD
S31500003CC0000F01BD4DF808EDFFF7F4FF0CBF012012
S31500003CD000205DF808FB00BF4DF808EDFFF7EAFF8E
S31500003CE034BF012000205DF808FB00BF4DF808ED49
S31500003CF0FFF7E0FF94BF012000205DF808FB00BF3E
S31500003D004DF808EDFFF7CEFF94BF012000205DF8C7
S31500003D1008FB00BF4DF808EDFFF7C4FF34BF0120D4
S31500003D2000205DF808FB00BF4FEA410C7FEA6C5C9F
S31500003D3002D150EA013C0AD14FEA430C7FEA6C5C9F
S31500003D4002D152EA033C02D14FF0000070474FF017
S31500003D50010070474275696C742077697468205257
S31500003D60656E6573617320416476616E6365642078
S31500003D70466C657869626C6520536F66747761720C
S31500003D8065205061636B6167652076657273696F44
S31500003D906E20342E332E3000342E332E30000000A9
S31500003DA000000304F8B500BFF8BC08BC9E46704787
S31500003DB0F8B500BFF8BC08BC9E4670476801FE1FF8
S31500003DC09C3E00003C40000000000000008793037A
S31500003DD00000000080C3C90102FFDF0000000000F0
S31500003DE000000000E83D00000100000000000000A7
S31500003DF000000000000000000000000000000000BD
S31500003E0000000000000000000000FFFFDFDF0000F0
S31500003E10000000000000000000000000008793037F
S31500003E200000000080C3C90105FFDF00000000009C
S31500003E3000000000383E0000000001000000000005
S31500003E40000000000000000000000000000000006C
S31500003E5000000000000000000000FFFFDFDF0000A0
S31500003E600000000000000000000200000C000C0131
S31500003E700C020C03000000000000000039060000E0
S31500003E8000000000883E0000000100004C00FE1FFC
S31500003E900F00FFFF000001000A0300001B000000E6
S31500003EA0A43E00000080000004000000000001069F
S31500003EB000010000000001060101000000000106EB
S31500003EC0020100000000010603010000004000009E
S31500003ED005010000040000000601000000000100CA
S31500003EE008010000000001000901000000000100B7
S31500003EF00A010000000000000B01000000000103A1
S31500003F000D0100000000010C050200000000010C7C
S31500003F100702000000000100000300000000010489
S31500003F200103000000000104020300000400000079
S31500003F300A030000040000000C0300000400000057
S31500003F400004000000000105010400000000010556
S31500003F500204000000000103050400000000011334
S31500003F6007040000000001040A0400000000010428
S31500003F700B04000000000103010700007401750135
S31500003F80760177010000000000000000000000003C
S31500003F90000000000000000000000000000000001B
S31500003FA0000000000000000000000000000000000B
S31500003FB000000000000000000000000000000000FB
S31500003FC000000000000000000000000000000000EB
S31500003FD000000000000000000000000000000000DB
S31500003FE000000000000000000000000000000000CB
S31500003FF000000000000000000000000000000000BB
S3150000400000000000000000000000000000000000AA
S31500004010000000000000000000000000000000009A
S31500004020000000000000000000000000000000008A
S31500004030000000000000000000000000FD17000066
S31500004040111500001518000021180000C515000004
S3150000405011160000191500006515000085150000F1
S31500004060AD150000F51500003515000049150000D6
S31500004070020403040404FFFF01000200080010000C
S31500004080000000000000000000000000000000002A
S31500004090000000000000000000000000000000001A
S315000040A0000000000000000000000000000000000A
S315000040B000000000000000000000000000000000FA
S315000040C000000000000000000000000000000000EA
S315000040D000000000000000000000000000000000DA
S309000040E000000000D6
S30D000040E408E4FF7F0100000063
S315000040EC020000000000000000000000F4010000C7
S315000040FCF4010000010000000200000000000000B6
S3150000410C0003000002000030303030303000030075
S3150000411C0200000000000000000000004D45474171
S3150000412C20454E445553545249000000400040006F
S3150000413C5400FE1F00000000A0400000C04000001C
S3150000414C804000000000000000000000000000009D
S3150000415C000000000000000000000000000000004D
S3150000416C000000000000000000000000000000003D
S3150000417C000000000000000000000000000000002D
S3150000418C000000000000000000000000000000001D
S3110000419C000000002505000001050000E1
S3150100A150FFFFFFFFFFFFFFFFFFFFFFFFFFFFFFFF08
S70500001FEDEE
