S0190000555345525F4556454E545F44454E454D452E73726563DE
S315000000002806FE1F990D0000810C0000950D0000CA
S31500000010950D0000950D0000950D0000950D000052
S31500000020000000000000000000000000950D000028
S31500000030950D000000000000950D0000950D0000D4
S315000000408105000000000000000000000000000024
S31500000050000000000000000000000000000000009A
S31500000060000000000000000000000000000000008A
S31500000070000000000000000000000000000000007A
S31500000080000000000000000000000000000000006A
S31500000400FFFFFFFFFFFDFFFFFCFFFFFFFFFFFFFFFB
S31500000410FCFFFFFFFFFFFFFFFCFFFF00FFFFFF00EA
S31500000420FCFF0F20FFFF0F20FCFF7F40FFFF7F40F8
S31500000430FCFF0D40FFFF0D40FFFFFFFFFFFFFFFF2B
S31500000440FFFFFFFFFFFFFFFFFFFFFFFFFFFFFFFFB6
S31500000450FFFFFFFFFFFFFFFFFFFFFFFFFFFFFFFFA6
S31500000460FFFFFFFFFFFFFFFFFFFFFFFFFFFFFFFF96
S31500000470FFFFFFFFFFFFFFFFFFFFFFFFFFFFFFFF86
S31500000480FFFFFFFFFFFFFFFFFFFFFFFFFFFFFFFF76
S31500000490FFFFFFFFFFFFFFFFFFFFFFFFFFFFFFFF66
S315000004A0FFFFFFFFFFFFFFFFFFFFFFFFFFFFFFFF56
S315000004B0FFFFFFFFFFFFFFFFFFFFFFFFFFFFFFFF46
S315000004C0FFFFFFFFFFFFFFFFFFFFFFFFFFFFFFFF36
S315000004D0FFFFFFFFFFFFFFFFFFFFFFFFFFFFFFFF26
S315000004E0FFFFFFFFFFFFFFFFFFFFFFFFFFFFFFFF16
S315000004F0FFFFFFFFFFFFFFFFFFFFFFFFFFFFFFFF06
S3150000050010B5054C237833B9044B13B10448AFF347
S3150000051000800123237010BD2000FE1F0000000094
S31500000520BC10000008B5034B1BB103490348AFF3E9
S31500000530008008BD000000002400FE1FBC10000063
S31500000540022800D07047024B0248596800F0B0B943
S315000005500C0F00004C00FE1F10B5054C0549204647
S3150000056000F00CFA2046BDE8104000F047BA00BF84
S315000005703C00FE1FF80E000008B5FFF7EDFFFEE792
S3150000058010B50C4C01224FF44371204600F044F89C
S315000005904FF47A71962000F045FB4FF443712046E4
S315000005A0002200F039F8BDE810404FF47A71962029
S315000005B000F038BB4C00FE1F08B5FFF7DDFF00203A
S315000005C008BD00BF00230360184670470B0A1B01D5
S315000005D0044853FA81F150F82130C3F34003002058
S315000005E01370704700080440090A490101F180416F
S315000005F001F5802100204B6813807047090A4901E4
S3150000060001F1804123EA020001F580211A4042EA05
S3150000061000428A6000207047C8B2012383404AB96D
S315000006201A040B0A5B0103F1804303F580230020C3
S315000006309A6070479AB2F4E7090A490101F18041CC
S3150000064001F5802110B40C6802EA0300204362EA37
S31500000650030202405DF8044B0A600020704700BFA9
S31500000660090A490101F1804101F5802100204B680A
S31500000670C3F30F431380704710B40B0A5B0103F1F9
S31500000680804303F58023C8B25C68012181408BB2A8
S3150000069001EA1441C91AB1FA81F1490900205DF84D
S315000006A0044B1170704700BF090A490101F18041EE
S315000006B023EA020001F580211A4042EA0042CA609C
S315000006C0002070470B0A5B0103F18043012A03F502
S315000006D080230AD0D868C9B24FF480328A400243D8
S315000006E0120C1204DA6000207047C8B2D968824042
S315000006F00A4392B2DA600020704700BF0388002BDD
S3150000070079D02DE9F04FDFF8F490DFF8F4B083B03C
S3150000071007464FF000087B68374E4FEAC80559195F
S3150000072040F20242898891424FF000044FF0010ADC
S3150000073009D00134032C26D07B6836F8022B5919D0
S3150000074089889142F5D15B5999F8BB2403F0B853D7
S31500000750B3F1807F0AFA04F3D9B21CD013423BD11D
S3150000076004F120031BF81320D209E2D01BF8132052
S315000007706FF3C7120BF813200121C820013400F0D3
S3150000078051FA032CD8D13B8808F101084345C2D859
S3150000079003B0BDE8F08F134210D004F120031BF81C
S315000007A01320D209C5D11BF8132042F080020BF8A2
S315000007B013200121C82000F035FABAE70120019183
S315000007C000F0BEFA99F8BB340199194389F8BB14B5
S315000007D0012000F085FAE0E70120019100F0B0FA6F
S315000007E099F8BB34019923EA010189F8BB14012069
S315000007F000F076FAB4E77047AE10000000E0014062
S3150000080000400440F8B50446FFF778FFEFF3108286
S31500000810012383F31088234E33681BB92249CB701A
S315000008204023CB7033680133336082F31088258808
S315000008302DB362681D4C013DADB202F1080101EB1A
S31500000840C50500E008311068928810F4803F4FEA31
S3150000085012235FFA82FC0CEB031E09D054F82E70AB
S3150000086020F480326FF3104744F82E7044F82E209F
S315000008701B0163448D4244F823000A46E2D1EFF39C
S315000008801082012383F31088336813B13368013B68
S31500000890336033681BB904498020CB70C87082F37B
S315000008A01088F8BD9400FE1F000D044000080440A7
S315000008B008B50346034A1A600846FFF7A3FF00205F
S315000008C008BD00BF54524F5008B50846FFF79AFFBF
S315000008D0002008BD70B584B002AB012668460C4600
S315000008E01546ADF80C100292ADF800600193FFF7C3
S315000008F005FFEFF3108286F310881D490B681BB9BC
S315000009001C48C3704023C3700B6801330B6082F32D
S315000009101088EA034FEA1423E4B219D41B01164ADD
S31500000920234442F82350EFF31082012383F3108807
S315000009300B6813B10B68013B0B600B681BB90D49C3
S315000009408020CB70C87082F31088002004B070BD80
S3150000095004EB0310084A52F820606FF3104642F881
S31500000960206025F4803642F820601B01D7E700BFDF
S315000009709400FE1F000D044000080440F0B591F9F4
S3150000098002C080F804C04FEA8C03D1E9026403F187
S31500000990804303F5C0430022D3F80053C3F8002375
S315000009A0C0E90264124C91F800E080F805E004F812
S315000009B00E200F79CA784E7942EA071242EAC61229
S315000009C0D2B2BCF1000F04F80E20C3F800530BDBC3
S315000009D04B7808490CF160421B0102F56142DBB21B
S315000009E082F8003341F82C00034B03600020F0BD71
S315000009F0006000409800FE1F5543490090F904200E
S31500000A000E4B02F1C00153F821006FF3104043F87A
S31500000A10210053F82130BFF35F8F53099B0003F188
S31500000A206043012103F5614302F01F0201FA02F25D
S31500000A30C3F880211A600020704700BF00600040A4
S31500000A40064B074993F826001A6A51F820300549E3
S31500000A50C2F30262D3400B60704700BF00E0014062
S31500000A600800FE1F2002FE1F38B53B4B3B493C4C9D
S31500000A703C4A3D4D4AF20350A3F8FE030020A1F87C
S31500000A8000013A4993F826006160394922604FF423
S31500000A900042C4E902213749C4E90421196A54F81D
S31500000AA02020C1F30261CA402A602021092283F86E
S31500000AB0131483F8A22093F88024002A44D0264AEF
S31500000AC00023062182F8813482F8803482F8A5104A
S31500000AD082F8323092F83C301907FBD500234FF4E8
S31500000AE01C51118582F82A301B4B93F83C20920644
S31500000AF0FBD51A4A022182F81C111F4919620521E9
S31500000B0083F8261093F8261054F821001C6AC4F3C3
S31500000B100264E0402860012160244FF4254083F8F8
S31500000B20301083F8521083F8531083F82440A3F84A
S31500000B30FE03A2F80411B2F804319BB2002BFAD1DD
S31500000B400123A2F8003138BD012183F8801440F258
S31500000B50C44000F067F8B2E700E0014000C0014081
S31500000B600800FE1F002D31012002FE1F00127A0030
S31500000B70001BB700001C4E0E2112012138B5244C73
S31500000B80002584F828500121C82000F04BF884F88D
S31500000B90245094F82430002BFBD194F824301C4ABE
S31500000BA043F0020384F8243092F82430C3F3400063
S31500000BB09B07F9D482F8220092F84030144960F37A
S31500000BC0C71382F8403091F84030DB09FBD191F829
S31500000BD042000F4A63F3C71081F8420092F8423090
S31500000BE0DB09FBD192F84400094963F3C71082F888
S31500000BF0440091F84430DC09FBD1012000F0A0F854
S31500000C00044B012083F8BB44BDE8384000F068B8C7
S31500000C100040044000E00140A0F101000028FBD1A3
S31500000C20704700BF30B5144D144A00FB01F14FF474
S31500000C307A732868B2FBF0F2A1FB03C44FF0FF30D1
S31500000C404FF0000E60457EEB040407D3BCFBF2F0C8
S31500000C50800878B1BDE83040FFF7DEBF9200B1FBF7
S31500000C60F2F1A1FB031388427EEB0303F2D308469D
S31500000C700028EFD130BD00BF2002FE1F00CA9A3BFC
S31500000C800B4B70B5B3F840510A4E0024ADB225FAAD
S31500000C9004F3DB07E0B203D556F8243003B19847D6
S31500000CA00134102CF3D1024BA3F8305170BD00BFB4
S31500000CB0006000405400FE1F10B4074A074C002392
S31500000CC003F1C001013332F8020F44F82100602B12
S31500000CD0F6D15DF8044B7047B60F00000060004087
S31500000CE0EFF31081012383F31088124B33F81020A1
S31500000CF092B22AB133F81020013A92B223F81020AA
S31500000D0033F810309BB293B90B4A10B4B2F8FE33E5
S31500000D100A4C9BB234F8100043F4254323EA00033F
S31500000D20A2F8FE3381F310885DF8044B704781F317
S31500000D30108870471802FE1F00E00140B410000042
S31500000D4030B4EFF31081012383F310880E4A32F892
S31500000D5010309BB26BB90D4C0D4DB4F8FE3335F81F
S31500000D6010C09BB243EA0C0343F425439BB2A4F89C
S31500000D70FE3332F8103001339BB222F8103081F383
S31500000D80108830BC704700BF1802FE1F00E001400B
S31500000D90B410000000BE704708B500F003F8FFF776
S31500000DA00BFCFEE7234B70B54FF47002224DC3F8DF
S31500000DB0882000209D60FFF7C3FBFFF755FE01204A
S31500000DC0FFF7BEFB1D4B29681D481E4D00244FF43E
S31500000DD025429C801A80A1F580629A601A4AD960E1
S31500000DE04FF480560121A5F82061121A99802146F8
S31500000DF000F046F81548164A1649174D121A00F023
S31500000E0031F8164B5B1BA34206DD9E1055F8043BDA
S31500000E1001349847A642F9DCFFF712FEFFF7AEFE53
S31500000E200220FFF78DFBFFF747FFBDE8704000206B
S31500000E3000F016B800ED00E000000000000D0040D4
S31500000E402000FE1F006000402402FE1F0000FE1F5F
S31500000E500800FE1FC01000000000FE1F0400FE1F59
S31500000E60704700BF0A44914200F1FF3300D170473A
S31500000E7010B511F8014B03F8014F9142F9D110BD9D
S31500000E8002440346934200D1704703F8011BF9E779
S31500000E904275696C7420776974682052656E657353
S31500000EA0617320416476616E63656420466C657883
S31500000EB069626C6520536F66747761726520506154
S31500000EC0636B6167652076657273696F6E20342E79
S31500000ED0332E3000342E332E300000000000030481
S31500000EE0F8B500BFF8BC08BC9E467047F8B500BF11
S31500000EF0F8BC08BC9E4670470303000303000000CD
S31500000F000000000000000000000000004C00FE1F72
S31500000F10180F00007810000013000000200F0000DA
S31500000F20008000000400000000000106000100002F
S31500000F300000010601010000000001060201000098
S31500000F40000001060301000000400000050100004A
S31500000F500400000006010000000001000801000076
S31500000F600000010009010000000001000A01000064
S31500000F7010400000020200000000010C0502000003
S31500000F800000010C07020000000001000003000041
S31500000F90040000000C030000040000000004000030
S31500000FA00000010501040000000001050204000024
S31500000FB00000011307040000040000000000000008
S31500000FC0000000000000000000000000000000001B
S31500000FD0000000000000000000000000000000000B
S31500000FE000000000000000000000000000000000FB
S31500000FF000000000000000000000000000000000EB
S3150000100000000000000000000000000000000000DA
S3150000101000000000000000000000000000000000CA
S3150000102000000000000000000000000000000000BA
S3150000103000000000000000000000000000000000AA
S31500001040000000000000000000000000000000009A
S31500001050000000000000000000000000000000008A
S31500001060000000000000000000000000000000007A
S315000010700000000000000000B1080000C5050000E7
S31500001080C9080000D508000079060000C506000062
S31500001090CD050000190600003906000061060000B3
S315000010A0A9060000E9050000FD050000020403048E
S315000010B00404FFFF01000200080010000000000009
S30D000010C02505000001050000F2
S3150100A150FFFFFFFFFFFFFFFFFFFFFFFFFFFFFFFF08
S70500000D9954
