S01900004D4F444255535F5254555F44454E454D452E73726563DA
S315000000009006FE1FA1140000891300009D14000035
S315000000109D1400009D1400009D1400009D14000016
S315000000200000000000000000000000009D14000019
S315000000309D140000000000009D1400009D140000A7
S31500000040390C0000A90B0000C90C0000190D0000B6
S31500000050000000000000000000000000000000009A
S31500000060000000000000000000000000000000008A
S31500000070000000000000000000000000000000007A
S31500000080000000000000000000000000000000006A
S31500000400FFFFFFFFFFFDFFFFFCFFFFFFFFFFFFFFFB
S31500000410FCFFFFFFFFFFFFFFFCFFFF00FFFFFF00EA
S31500000420FCFF0F20FFFF0F20FCFF7F40FFFF7F40F8
S31500000430FCFF0D40FFFF0D40FFFFFFFFFFFFFFFF2B
S31500000440FFFFFFFFFFFFFFFFFFFFFFFFFFFFFFFFB6
S31500000450FFFFFFFFFFFFFFFFFFFFFFFFFFFFFFFFA6
S31500000460FFFFFFFFFFFFFFFFFFFFFFFFFFFFFFFF96
S31500000470FFFFFFFFFFFFFFFFFFFFFFFFFFFFFFFF86
S31500000480FFFFFFFFFFFFFFFFFFFFFFFFFFFFFFFF76
S31500000490FFFFFFFFFFFFFFFFFFFFFFFFFFFFFFFF66
S315000004A0FFFFFFFFFFFFFFFFFFFFFFFFFFFFFFFF56
S315000004B0FFFFFFFFFFFFFFFFFFFFFFFFFFFFFFFF46
S315000004C0FFFFFFFFFFFFFFFFFFFFFFFFFFFFFFFF36
S315000004D0FFFFFFFFFFFFFFFFFFFFFFFFFFFFFFFF26
S315000004E0FFFFFFFFFFFFFFFFFFFFFFFFFFFFFFFF16
S315000004F0FFFFFFFFFFFFFFFFFFFFFFFFFFFFFFFF06
S3150000050010B5054C237833B9044B13B10448AFF347
S3150000051000800123237010BD2800FE1F000000008C
S31500000520E419000008B5034B1BB103490348AFF3B8
S31500000530008008BD000000002C00FE1FE41900002A
S3150000054008B500F06BF800F087F84FF47A71642074
S3150000055000F0ECFE00F070F84FF47A7142F2107081
S3150000056000F0E4FEEFE700BF022800D07047024B20
S315000005700248596800F082BD001800008400FE1F82
S3150000058099B130B4FF220A4D0A4C00EB010C11461A
S3150000059010F8013B53406045EA5C82EA0102E15CE7
S315000005A0F6D142EA012030BC70474FF6FF70704723
S315000005B0001600000017000010B50379042B18D0B0
S315000005C0012B20D0134A144BB2F80510B2F80340A1
S315000005D0B2F8070049BA5980B2F80910B2F80B20F0
S315000005E064BA40BA49BA52BA1C809880D9801A8136
S315000005F010BD04464FF47A7142F2107000F096FE78
S315000006002379012BDED14FF47A7142F2107000F09B
S315000006108DFED7E74400FE1F6400FE1F08B50349A0
S31500000620034800F011F9034B186008BD0C180000D0
S315000006308C00FE1F7800FE1F08B5044904482022DE
S3150000064000F02EF8034B186008BD00BF4400FE1FE3
S315000006508C00FE1F7800FE1F10B50A4C0A4A226065
S315000006604FF4A06306212046A380FFF789FF0822E6
S31500000670034621460548E38000F016F8044B18604F
S3150000068010BD00BF7C00FE1F050300048C00FE1F8A
S315000006907800FE1F08B5FFF753FF002008BD00BF16
S315000006A0C0E905120020704770B5C369DB699C7B01
S315000006B0F4B9046AA37803F07B03A370837803F08C
S315000006C00303D21A0B440261A278C360837803F055
S315000006D0030342F08002022BA27003D00B78E37072
S315000006E0002070BD0B8843F47E43E381002070BD7B
S315000006F0EFF3108C012484F310881C4C25681DB977
S315000007001B4EF5704025F5702568013525608CF384
S315000007101088B3F810C093F80FE0164D4FEA1C236B
S315000007201B0153FA8CFC55F82C3023F0011323F4EB
S315000007304043BEF1000F08BF43F0010343F004033A
S3150000074045F82C30EFF31085012383F310882368D6
S3150000075013B12368013B236023681BB9044CE37083
S315000007608023E37085F31088A3E700BFFC00FE1F1B
S31500000770000D044000080440F0B5846A85B00546C3
S315000007800F4694466E46B4B194E80F0086E80F0013
S31500000790EB691B7884F804C02360EB6A2046C4E941
S315000007A002736B6A9847AC6A1CB196E80F0084E83E
S315000007B00F0005B0F0BD3446EAE700BFC3699A7B77
S315000007C002B9704710B4EFF31080012282F310884B
S315000007D01A4A116819B91A4CE1704021E170116882
S315000007E00131116080F31088198A164C080A00013D
S315000007F050FA81F1D87B54F8213023F0011323F409
S315000008004043002818BF43F0010343F0040344F8B3
S315000008102130EFF31081012383F31088136813B19D
S315000008201368013B136013681BB9054A8020D37017
S31500000830D07081F310885DF8044B7047FC00FE1FF2
S31500000840000D044000080440F8B50B780022027041
S315000008500D4603F100734969416203F56053A969C6
S315000008605B01C0E9075304468378C4E90A210120E5
S3150000087060F30103A3706B7823B9A378022262F3B5
S315000008800103A37095F90B10C24AA87A4B092033CD
S3150000089001F01F07012606FA07F742F82370BFF397
S315000008A04F8FBFF36F8FBC4B01F1C00753F827C0C2
S315000008B06FF3104C43F827C053F827705718000100
S315000008C0C0B287F80003B54F47F8214095F90510E7
S315000008D028794FEA511C0CF1200C01F01F0E06FA84
S315000008E00EFE42F82CE0BFF34F8FBFF36F8F01F17E
S315000008F0C00C53F82CE06FF3104E43F82CE053F87D
S315000009002CC002EB010C0001C0B28CF8000347F8C2
S31500000910214095F90710A8794FEA511C0CF1200CDB
S3150000092001F01F0E06FA0EFE42F82CE0BFF34F8FC1
S31500000930BFF36F8F01F1C00C53F82CE06FF3104E2C
S3150000094043F82CE053F82CC002EB010C0001C0B2B6
S315000009508CF8000347F8214095F90910287A4FEAE8
S31500000960511C0CF1200C01F01F0E06FA0EFE42F887
S315000009702CE0BFF34F8FBFF36F8F01F1C00C53F81C
S315000009802CE06FF3104E43F82CE053F82C300A4459
S315000009900301DBB282F8003347F82140E069FFF734
S315000009A00DFFEFF3108086F310887D4B2E78D3F879
S315000009B000214FF00041F14022EA0102C3F8002174
S315000009C0D3F8003180F31088236A00229A701A71D6
S315000009D05A729A72DA725A83297840F2FF32CA4002
S315000009E0D60744BF4022DA7406221A772A786E7830
S315000009F0AF78E96940F2FF30D040EA78C50744BFD6
S31500000A004FF478409882D200032E42EA071200F093
S31500000A10BC80002E14BFF220E220D2B21A70987168
S31500000A200A7B520002F002025A734A788878D20191
S31500000A30400100F02000D2B20243002018720D7867
S31500000A40A81E012840F29880D2B2DA714A689078DE
S31500000A5058701878567866F301001870D078987434
S31500000A601278D87902F05C0200F0A3000243DA7132
S31500000A700020E3692061A061E060606193F9056090
S31500000A80454B06F1C00253F8227060F3104743F855
S31500000A90227053F82220BFF35F8F7209920002F191
S31500000AA0604202F561424FF0010E06F01F060EFA93
S31500000AB006F6C2F880611660E26992F90B6006F1EB
S31500000AC0C00253F8227060F3104743F8227053F8BF
S31500000AD02220BFF35F8F7209920002F1604202F595
S31500000AE0614206F01F060EFA06F6C2F8806116602D
S31500000AF0E26992F907C00CF1C00253F8226060F374
S31500000B00104643F8226053F82220BFF35F8F4FEA66
S31500000B105C12920002F160420CF01F0C02F5614279
S31500000B200EFA0CF6C2F880611660E26992F90920A5
S31500000B3002F1C00653F8267060F3104743F826709A
S31500000B4053F82630BFF35F8F53099B0003F16043D0
S31500000B5003F5614302F01F020EFA02F2C3F8802188
S31500000B601A60236A4A8905F0030545F070059D70F1
S31500000B700C4B22816360F8BD022D08BF42F01002C3
S31500000B80FF20D2B25870DA7172E742F04002F220CA
S31500000B9043E700BF00E100E0006000400001FE1FE7
S31500000BA0006F04405549435330B4EFF30383103BC1
S31500000BB05BB203F1C0011E4A52F821006FF31040E8
S31500000BC042F8210052F821201A4A52F82300C3693C
S31500000BD01B691BB103691BB130BC704703697BB944
S31500000BE0D0E90824937803F07F03002143F004033F
S31500000BF09370C160002CEFD030BC8022FFF7BCBDE3
S31500000C00827802F003010229C1680BD0046A91F8C8
S31500000C1000C084F803C002F003029B1A0A44C0E92C
S31500000C200323D8E70C88056A44F47E44EC81F2E796
S31500000C30006000400001FE1F10B582B0EFF3038391
S31500000C40103B5BB203F1C0011D4A52F821006FF35D
S31500000C50104042F8210052F821201A4A52F8234047
S31500000C60A27802F00303022B236A0CBF198A597972
S31500000C70A3690CBFC1F30801C9B2019143B9636A04
S31500000C80B3B10422204602B0BDE81040FFF774BDA0
S31500000C9002F0030201A9606900F068FCD4E90521AD
S31500000CA0A37803F003031A44C91AC4E9052109B15C
S31500000CB002B010BD636A002BFAD00122E2E700BF42
S31500000CC0006000400001FE1F38B5EFF30383103BC0
S31500000CD05CB20F4B53F82450D5E90702937803F022
S31500000CE07B039370FFF76AFD6B6A23B10222002132
S31500000CF02846FFF741FD074A04F1C00352F82310C6
S31500000D006FF3104142F8231052F8233038BD00BF6C
S31500000D100001FE1F00600040F8B5EFF30383103BAF
S31500000D205CB2194A52F82450AB7803F00303022B45
S31500000D302B6A0CBF1E8A5E7919790CBFC6F30806AA
S31500000D40F6B201F03807C90604D51A7FD20758BF94
S31500000D5047F04007187900F0C7001871E869FFF7F7
S31500000D602DFD6B6A23B13A4631462846FFF704FD4E
S31500000D70064A04F1C00352F823106FF3104142F8FB
S31500000D80231052F82330F8BD0001FE1F006000401A
S31500000D9000230360184670470B0A1B01044853FAE8
S31500000DA081F150F82130C3F34003002013707047DF
S31500000DB000080440090A490101F1804101F580213A
S31500000DC000204B6813807047090A490101F18041F0
S31500000DD023EA020001F580211A4042EA00428A60B5
S31500000DE000207047C8B2012383404AB91A040B0A8F
S31500000DF05B0103F1804303F5802300209A6070476E
S31500000E009AB2F4E7090A490101F1804101F580210E
S31500000E1010B40C6802EA0300204362EA03020240AF
S31500000E205DF8044B0A600020704700BF090A4901BB
S31500000E3001F1804101F5802100204B68C3F30F4387
S31500000E401380704710B40B0A5B0103F1804303F56E
S31500000E508023C8B25C68012181408BB201EA14414B
S31500000E60C91AB1FA81F1490900205DF8044B1170E5
S31500000E70704700BF090A490101F1804123EA0200D7
S31500000E8001F580211A4042EA0042CA6000207047FC
S31500000E900B0A5B0103F18043012A03F580230AD084
S31500000EA0D868C9B24FF480328A400243120C120449
S31500000EB0DA6000207047C8B2D96882400A4392B20D
S31500000EC0DA600020704700BF0388002B79D02DE937
S31500000ED0F04FDFF8F490DFF8F4B083B007464FF038
S31500000EE000087B68374E4FEAC805591940F202429E
S31500000EF0898891424FF000044FF0010A09D001346D
S31500000F00032C26D07B6836F8022B59198988914222
S31500000F10F5D15B5999F8BB2403F0B853B3F1807F40
S31500000F200AFA04F3D9B21CD013423BD104F12003D0
S31500000F301BF81320D209E2D01BF813206FF3C71257
S31500000F400BF813200121C820013400F0EFF9032C1F
S31500000F50D8D13B8808F101084345C2D803B0BDE8A3
S31500000F60F08F134210D004F120031BF81320D2098E
S31500000F70C5D11BF8132042F080020BF81320012183
S31500000F80C82000F0D3F9BAE70120019100F05CFA1D
S31500000F9099F8BB340199194389F8BB14012000F074
S31500000FA023FAE0E70120019100F04EFA99F8BB34EC
S31500000FB0019923EA010189F8BB14012000F014FA13
S31500000FC0B4E77047D619000000E001400040044035
S31500000FD0F8B50446FFF778FFEFF31082012383F399
S31500000FE01088234E33681BB92249CB704023CB703F
S31500000FF033680133336082F3108825882DB3626825
S315000010001D4C013DADB202F1080101EBC50500E042
S3150000101008311068928810F4803F4FEA12235FFA75
S3150000102082FC0CEB031E09D054F82E7020F480329B
S315000010306FF3104744F82E7044F82E201B016344CA
S315000010408D4244F823000A46E2D1EFF310820123D1
S3150000105083F31088336813B13368013B3360336818
S315000010601BB904498020CB70C87082F31088F8BD84
S31500001070FC00FE1F000D04400008044008B50346AE
S31500001080034A1A600846FFF7A3FF002008BD00BF09
S3150000109054524F5008B50846FFF79AFF002008BD86
S315000010A070B584B002AB012668460C461546ADF80D
S315000010B00C100292ADF800600193FFF705FFEFF305
S315000010C0108286F310881D490B681BB91C48C37033
S315000010D04023C3700B6801330B6082F31088EA0368
S315000010E04FEA1423E4B219D41B01164A234442F8EA
S315000010F02350EFF31082012383F310880B6813B19A
S315000011000B68013B0B600B681BB90D498020CB7047
S31500001110C87082F31088002004B070BD04EB031081
S31500001120084A52F820606FF3104642F8206025F412
S31500001130803642F820601B01D7E700BFFC00FE1F87
S31500001140000D044000080440064B074993F82600AA
S315000011501A6A51F820300549C2F30262D3400B6087
S31500001160704700BF00E001400C00FE1F8802FE1F12
S3150000117038B53B4B3B493C4C3C4A3D4D4AF203504B
S31500001180A3F8FE030020A1F800013A4993F82600CF
S315000011906160394922604FF40042C4E902213749AF
S315000011A0C4E90421196A54F82020C1F30261CA4037
S315000011B02A602021092283F8131483F8A22093F8C9
S315000011C08024002A44D0264A0023062182F881344E
S315000011D082F8803482F8A51082F8323092F83C30DA
S315000011E01907FBD500234FF41C51118582F82A30CC
S315000011F01B4B93F83C209206FBD51A4A022182F833
S315000012001C111F491962052183F8261093F8261030
S3150000121054F821001C6AC4F30264E04028600121EE
S3150000122060244FF4254083F8301083F8521083F879
S31500001230531083F82440A3F8FE03A2F80411B2F871
S3150000124004319BB2002BFAD10123A2F8003138BD3C
S31500001250012183F8801440F2C44000F067F8B2E739
S3150000126000E0014000C001400C00FE1F002D3101CE
S315000012708802FE1F00127A00001BB700001C4E0EEB
S315000012802112012138B5244C002584F8285001216B
S31500001290C82000F04BF884F8245094F82430002B32
S315000012A0FBD194F824301C4A43F0020384F824301E
S315000012B092F82430C3F340009B07F9D482F8220049
S315000012C092F84030144960F3C71382F8403091F821
S315000012D04030DB09FBD191F842000F4A63F3C71097
S315000012E081F8420092F84230DB09FBD192F84400C3
S315000012F0094963F3C71082F8440091F84430DC09C9
S31500001300FBD1012000F0A0F8044B012083F8BB4478
S31500001310BDE8384000F068B80040044000E00140F5
S31500001320A0F101000028FBD1704700BF30B5144D75
S31500001330144A00FB01F14FF47A732868B2FBF0F20D
S31500001340A1FB03C44FF0FF304FF0000E60457EEB6B
S31500001350040407D3BCFBF2F0800878B1BDE8304046
S31500001360FFF7DEBF9200B1FBF2F1A1FB0313884247
S315000013707EEB0303F2D308460028EFD130BD00BF51
S315000013808802FE1F00CA9A3B0B4B70B5B3F840515A
S315000013900A4E0024ADB225FA04F3DB07E0B203D50A
S315000013A056F8243003B198470134102CF3D1024B80
S315000013B0A3F8305170BD00BF00600040BC00FE1FA6
S315000013C010B4074A074C002303F1C001013332F879
S315000013D0020F44F82100602BF6D15DF8044B7047EC
S315000013E0DE18000000600040EFF31081012383F354
S315000013F01088124B33F8102092B22AB133F810201D
S31500001400013A92B223F8102033F810309BB293B908
S315000014100B4A10B4B2F8FE330A4C9BB234F81000F3
S3150000142043F4254323EA0003A2F8FE3381F3108830
S315000014305DF8044B704781F3108870478002FE1FE9
S3150000144000E00140DC19000030B4EFF31081012305
S3150000145083F310880E4A32F810309BB26BB90D4CEC
S315000014600D4DB4F8FE3335F810C09BB243EA0C03B9
S3150000147043F425439BB2A4F8FE3332F8103001330F
S315000014809BB222F8103081F3108830BC704700BF41
S315000014908002FE1F00E00140DC19000000BE70471C
S315000014A008B500F003F8FFF7F5F8FEE7234B70B533
S315000014B04FF47002224DC3F8882000209D60FFF78C
S315000014C053F8FFF755FE0120FFF74EF81D4B29682C
S315000014D01D481E4D00244FF425429C801A80A1F51C
S315000014E080629A601A4AD9604FF480560121A5F8A5
S315000014F02061121A9980214600F046F81548164ACE
S315000015001649174D121A00F031F8164B5B1BA34211
S3150000151006DD9E1055F8043B01349847A642F9DCD7
S31500001520FFF712FEFFF7AEFE0220FFF71DF8FFF7EA
S3150000153047FFBDE87040002000F016B800ED00E05F
S3150000154000000000000D00402800FE1F0060004063
S315000015508C02FE1F0000FE1F0C00FE1FE819000093
S315000015600400FE1F0800FE1F704700BF0A44914298
S3150000157000F1FF3300D1704710B511F8014B03F8A5
S31500001580014F9142F9D110BD02440346934200D166
S31500001590704703F8011BF9E74275696C7420776997
S315000015A074682052656E6573617320416476616E5E
S315000015B063656420466C657869626C6520536F6666
S315000015C07477617265205061636B6167652076652B
S315000015D07273696F6E20342E332E3000342E332E04
S315000015E03000000000000304F8B500BFF8BC08BCDA
S315000015F09E467047F8B500BFF8BC08BC9E467047CB
S3150000160000C1814001C0804101C0804100C18140CC
S3150000161001C0804100C1814000C1814001C08041BC
S3150000162001C0804100C1814000C1814001C08041AC
S3150000163000C1814001C0804101C0804100C181409C
S3150000164001C0804100C1814000C1814001C080418C
S3150000165000C1814001C0804101C0804100C181407C
S3150000166000C1814001C0804101C0804100C181406C
S3150000167001C0804100C1814000C1814001C080415C
S3150000168001C0804100C1814000C1814001C080414C
S3150000169000C1814001C0804101C0804100C181403C
S315000016A000C1814001C0804101C0804100C181402C
S315000016B001C0804100C1814000C1814001C080411C
S315000016C000C1814001C0804101C0804100C181400C
S315000016D001C0804100C1814000C1814001C08041FC
S315000016E001C0804100C1814000C1814001C08041EC
S315000016F000C1814001C0804101C0804100C18140DC
S3150000170000C0C101C30302C2C60607C705C5C4049B
S31500001710CC0C0DCD0FCFCE0E0ACACB0BC90908C80B
S31500001720D81819D91BDBDA1A1EDEDF1FDD1D1CDCFB
S3150000173014D4D515D71716D6D21213D311D1D0106B
S31500001740F03031F133F3F23236F6F737F53534F45B
S315000017503CFCFD3DFF3F3EFEFA3A3BFB39F9F838CB
S3150000176028E8E929EB2B2AEAEE2E2FEF2DEDEC2CBB
S31500001770E42425E527E7E62622E2E323E12120E02B
S31500001780A06061A163A3A26266A6A767A56564A41B
S315000017906CACAD6DAF6F6EAEAA6A6BAB69A9A8688B
S315000017A078B8B979BB7B7ABABE7E7FBF7DBDBC7C7B
S315000017B0B47475B577B7B67672B2B373B17170B0EB
S315000017C050909151935352929656579755959454DB
S315000017D09C5C5D9D5F9F9E5E5A9A9B5B995958984B
S315000017E0884849894B8B8A4A4E8E8F4F8D4D4C8C3B
S315000017F044848545874746868242438341818040AB
S315000018008400FE1F40180000A0190000000200001E
S3150000181005000C010C020C03000000000000000093
S31500001820B9050000000000002C18000000010100AE
S315000018300000FE1F0F00FFFF000001000A0300006A
S31500001840130000004818000000800000040000009B
S315000018500000010600010000000001060101000071
S31500001860000001060201000000000106030100005D
S315000018700040000005010000040000000601000011
S31500001880000001000801000000000100090100003D
S31500001890000001000A0100000000010C0502000022
S315000018A00000010C07020000000001000003000018
S315000018B0040000000004000000000105010400000F
S315000018C000000105020400000000011307040000E7
S315000018D0000001040A040000000001040B040000DB
S315000018E07401750176017701000000000000000018
S315000018F000000000000000000000000000000000E2
S3150000190000000000000000000000000000000000D1
S3150000191000000000000000000000000000000000C1
S3150000192000000000000000000000000000000000B1
S3150000193000000000000000000000000000000000A1
S315000019400000000000000000000000000000000091
S315000019500000000000000000000000000000000081
S315000019600000000000000000000000000000000071
S315000019700000000000000000000000000000000061
S315000019800000000000000000000000000000000051
S315000019900000000000000000000000000000000041
S315000019A07D100000910D000095100000A1100000B0
S315000019B0450E0000910E0000990D0000E50D000097
S315000019C0050E00002D0E0000750E0000B50D00007E
S315000019D0C90D0000020403040404FFFF0100020015
S30D000019E00800100000000000E1
S311000019E84000400025050000010500003D
S3150100A150FFFFFFFFFFFFFFFFFFFFFFFFFFFFFFFF08
S705000014A145
