S01100004A4C494E4B5F4144432E7372656374
S31500000000000BFE1F991800008117000095180000CC
S315000000109518000095180000951800009518000026
S31500000020000000000000000000000000951800001D
S3150000003095180000000000009518000095180000B3
S31500000040FFFFFFFFFFFFFFFFFFFFFFFFFFFFFFFFBA
S31500000050FFFFFFFFFFFFFFFFFFFFFFFFFFFFFFFFAA
S31500000060FFFFFFFFFFFFFFFFFFFFFFFFFFFFFFFF9A
S31500000070FFFFFFFFFFFFFFFFFFFFFFFFFFFFFFFF8A
S31500000400FFFFFFFFFFFDFFFFFCFFFFFFFFFFFFFFFB
S31500000410FCFFFFFFFFFFFFFFFCFFFF00FFFFFF00EA
S31500000420FCFF0F20FFFF0F20FCFF7F40FFFF7F40F8
S31500000430FCFF0D40FFFF0D40FFFFFFFFFFFFFFFF2B
S31500000440FFFFFFFFFFFFFFFFFFFFFFFFFFFFFFFFB6
S31500000450FFFFFFFFFFFFFFFFFFFFFFFFFFFFFFFFA6
S31500000460FFFFFFFFFFFFFFFFFFFFFFFFFFFFFFFF96
S31500000470FFFFFFFFFFFFFFFFFFFFFFFFFFFFFFFF86
S31500000480FFFFFFFFFFFFFFFFFFFFFFFFFFFFFFFF76
S31500000490FFFFFFFFFFFFFFFFFFFFFFFFFFFFFFFF66
S315000004A0FFFFFFFFFFFFFFFFFFFFFFFFFFFFFFFF56
S315000004B0FFFFFFFFFFFFFFFFFFFFFFFFFFFFFFFF46
S315000004C0FFFFFFFFFFFFFFFFFFFFFFFFFFFFFFFF36
S315000004D0FFFFFFFFFFFFFFFFFFFFFFFFFFFFFFFF26
S315000004E0FFFFFFFFFFFFFFFFFFFFFFFFFFFFFFFF16
S315000004F0FFFFFFFFFFFFFFFFFFFFFFFFFFFFFFFF06
S3150000050010B5054C237833B9044B13B10448AFF347
S3150000051000800123237010BD2000FE1F0000000094
S315000005205C1C000008B5034B1BB103490348AFF33D
S31500000530008008BD000000002400FE1F5C1C0000B7
S315000005402DE9F843C568D0F80890A9EB0508904551
S315000005500446164609D94068284401F003FABFF359
S315000005605F8F3544E560BDE8F8834068284435442C
S315000005700F464246A5EB090501F0F4F960682A46E4
S3150000058007EB080101F0EEF9BFF35F8FE560BDE808
S31500000590F88300BF2DE9F8430646D0E902048946F0
S315000005A017464FF0000833699C42A0EB040503F19F
S315000005B0FF3224BF03F1FF321218BD4228BF3D4669
S315000005C0121B9542706828BF1546494620442A46A4
S315000005D001F0C8F9B0682C44A844A9447F1BA04286
S315000005E008BF0024BFF35F8FF460002FDBD14046C5
S315000005F0BDE8F88310B5164CA8220021204601F06C
S31500000600BFF903212161134A61611348A2614FF4C6
S315000006108061E061002321621048A36210216362B9
S31500000620E36222666066A1662367E3666367BFF3DB
S315000006305F8F0B4B5321A3F10F0C184601E013F902
S315000006400119C21A6345A154F9D1BFF35F8F10BDDA
S315000006503C00FE1FF8190000F400FE1FE400FE1F18
S31500000660121A000038B5204B00EB400403EBC40E11
S315000006700130DEF82C4000EB4000012C8C4615467C
S3150000068003EBC00005D0022C29D0ACB100242046D3
S3150000069038BDDEF82830DEF8242093429CBFDEF811
S315000006A020401B19013B9C1AAC4228BF2C4622460F
S315000006B0FFF746FF204638BDDEF82830DEF8242056
S315000006C093429CBFDEF820105B18013B9B1A9D42AB
S315000006D0DDD82A466146FFF733FF2C46D7E7BDE84B
S315000006E03840FFF757BF00BF3C00FE1F30B50C4B2C
S315000006F01B7883B00C4663B1EFF311854FF02001F0
S3150000070081F311882146FFF7ADFF85F3118803B009
S3150000071030BDCDE90002FFF76DFFDDE90002EBE732
S315000007203C00FE1FD0E9012310B50446581C904238
S3150000073007D82268D154E3686268A0600133E36099
S3150000074003469A4200D010BD21682069FFF7CEFF0C
S31500000750A368984215BF4FF0FF330023E360A36000
S3150000076010BD00BF2DE9F84F1546A942DDF82890C7
S315000007700B9A0F4683461E4661D30B464FF001087F
S31500000780B3FBF5F39D4208F10108F9D9B04538BF2E
S31500000790B04612F0010A02D1B9F1000F36D1DBF8EA
S315000007A00C30002B30DB012402E0013E05FB04F493
S315000007B0012EFAD8B7FBF4F39D42F7D9214E06E095
S315000007C0AC42B4FBF5F30CD31C46B7FBF3F3F1567E
S315000007D0584604FB1377FFF7A5FFDBF80C30002B18
S315000007E0EEDABAF1000F0FD0B9F1000F0CD0C84500
S315000007F04FF02001584609F1FF3905D2FFF792FF65
S31500000800DBF80C30002BEFDABDE8F88F930711D434
S3150000081020240AE0FFF786FFDBF80C30002B09F1F5
S31500000820FF39F1DBB9F1000FBDD0C8452146584666
S31500000830F0D3B4E7002E0CBF30242024F5E74FF0A8
S315000008400108A3E7181A00002DE9F04F9BB04023DA
S315000008500DF1280ACDE905A30023CDE90830DFF81C
S31500000860CC92079380460D46174605E005A8FFF78C
S3150000087059FF0898002867DB15F9011B002966D087
S315000008802529F3D1294600260D4611F9013BA3F18E
S3150000089023020D2A08D8DFE802F0490707070707F1
S315000008A0070746074C070743A3F13002D2B2092ACD
S315000008B04FF000040CD804EB840403EB440415F950
S315000008C0013FA3F13002D2B2092AA4F13004F2D9D1
S315000008D02E2B00F0D28095F90010002301E015F9C7
S315000008E0011F21F00402682AF9D0252924D058399D
S315000008F0CAB2202A23D8202921D8DFE801F03320E4
S31500000900202020202020202020B46020202020200D
S3150000091020202020202052202042203F202033006B
S3150000092046F00206B0E746F00406ADE746F00806D4
S31500000930AAE746F00106A7E705A8FFF7F3FE089821
S31500000940002805F1010597DA1BB0BDE8F08F08987D
S315000009500028F9DD079A002A40F0A98010441BB050
S31500000960BDE8F08F3868102201680430CDE90046F2
S31500000970386005A8FFF7F6FE0898E1E738680A220E
S31500000980F2E73B681A1D3A601C6804E0FFF7CAFEEE
S3150000099008980028D4DB14F9011B05A80029F5D115
S315000009A0CDE73A68116804323A60082300220192C2
S315000009B005A800931022FFF7D5FE0898C0E73A680D
S315000009C0D2F800B004323A608BEAEB72A2EBEB721B
S315000009D0092A4FF0010008DD11466329A9FB02C26E
S315000009E000F101004FEAD202F6DC9842024638BF17
S315000009F01A46039284B3BBF1000F60DB72075ED424
S31500000A00B00700D543B3F10726D42CB3039AA2420C
S31500000A104FF0200105A81FD20293FFF783FEDDF8F1
S31500000A2020C0BCF1000F04F1FF34604688DB029B56
S31500000A30002CEBD1BBF1000F43DB720751D406F05B
S31500000A400301022954D005A8CDE9004659460A22D9
S31500000A50FFF788FE089873E7DDF820C0BCF1000FA9
S31500000A606046E7DA6CE73B681A1D05A893F90010A3
S31500000A703A60FFF757FE089862E795F90110A1F171
S31500000A803003DBB2092B05F101054FF000033FF6F9
S31500000A9028AF03EB830301EB430315F9011FA1F113
S31500000AA03002D2B2092AA3F13003F2D919E751462E
S31500000AB04046FFF71BFEDDE9072010444FE7013CE7
S31500000AC09EE72D2105A80293FFF72CFE029BCBF192
S31500000AD0000BDDF820C0BCF1000F6046FFF630AF1A
S31500000AE0ADE72B2105A80293FFF71CFE029BF0E75A
S31500000AF0002BA8D1C4B1039AA2424FF0300105A839
S31500000B000DD20293FFF70EFEDDF820C0BCF1000FF8
S31500000B1004F1FF346046FFF613AF029BEAE7604636
S31500000B200028FFF60DAF8EE700248CE7CDCCCCCCA9
S31500000B300EB400B582B003AB01AA53F8041B0193AF
S31500000B40FFF782FE02B05DF804EB03B0704700BF0A
S31500000B502DE9F0412A492B482B4F2C4EDFF8A48073
S31500000B6082B000F04DFA2A49274800F073FB294964
S31500000B70254800F0EFFB244800F02CFB2649002016
S31500000B80FFF7D6FF00250DF106021121384600F0C9
S31500000B9027FBBDF8062031460020FFF7C9FF4FF4BA
S31500000BA07A71642000F0BEFDBDF80640AC42EAD082
S31500000BB01A4922460020FFF7BBFF404600F084FAA0
S31500000BC0B4F5006F16484FF001024FF443710FD988
S31500000BD000F064F84FF47A71642000F0A3FD21461A
S31500000BE0404600F06BFA404600F088FA2546CAE710
S31500000BF000224FF443710A4800F050F8EFE700BFB7
S31500000C00981A00002005FE1FFC04FE1F3C1A000077
S31500000C10601A0000841A0000281A0000481A000012
S31500000C20F404FE1F022800D07047024B02485968A0
S31500000C3000F080B9541A0000F404FE1F08B5FFF74F
S31500000C4087FF002008BD00BF0023036018467047D9
S31500000C500B0A1B01044853FA81F150F82130C3F303
S31500000C60400300201370704700080440090A490138
S31500000C7001F1804101F5802100204B681380704707
S31500000C80090A490101F1804123EA020001F58021A8
S31500000C901A4042EA00428A6000207047C8B2012327
S31500000CA083404AB91A040B0A5B0103F1804303F53A
S31500000CB0802300209A6070479AB2F4E7090A490136
S31500000CC001F1804101F5802110B40C6802EA0300AD
S31500000CD0204362EA030202405DF8044B0A600020EA
S31500000CE0704700BF090A490101F1804101F58021E1
S31500000CF000204B68C3F30F431380704710B40B0AF0
S31500000D005B0103F1804303F58023C8B25C680121CF
S31500000D1081408BB201EA1441C91AB1FA81F149093D
S31500000D2000205DF8044B1170704700BF090A4901A5
S31500000D3001F1804123EA020001F580211A4042EACE
S31500000D400042CA60002070470B0A5B0103F1804332
S31500000D50012A03F580230AD0D868C9B24FF480323D
S31500000D608A400243120C1204DA6000207047C8B2AF
S31500000D70D96882400A4392B2DA600020704700BF09
S31500000D800388002B79D02DE9F04FDFF8F490DFF8D7
S31500000D90F4B083B007464FF000087B68374E4FEA41
S31500000DA0C805591940F20242898891424FF0000461
S31500000DB04FF0010A09D00134032C26D07B6836F89F
S31500000DC0022B591989889142F5D15B5999F8BB24B0
S31500000DD003F0B853B3F1807F0AFA04F3D9B21CD0FA
S31500000DE013423BD104F120031BF81320D209E2D0B1
S31500000DF01BF813206FF3C7120BF813200121C8202C
S31500000E00013400F08FFC032CD8D13B8808F101088F
S31500000E104345C2D803B0BDE8F08F134210D004F1A9
S31500000E2020031BF81320D209C5D11BF8132042F06A
S31500000E3080020BF813200121C82000F073FCBAE7EA
S31500000E400120019100F0FCFC99F8BB34019919438B
S31500000E5089F8BB14012000F0C3FCE0E701200191F2
S31500000E6000F0EEFC99F8BB34019923EA010189F8F8
S31500000E70BB14012000F0B4FCB4E77047821B0000ED
S31500000E8000E0014000400440F8B50446FFF778FF53
S31500000E90EFF31082012383F31088234E33681BB9C6
S31500000EA02249CB704023CB7033680133336082F321
S31500000EB0108825882DB362681D4C013DADB202F144
S31500000EC0080101EBC50500E008311068928810F4AE
S31500000ED0803F4FEA12235FFA82FC0CEB031E09D017
S31500000EE054F82E7020F480326FF3104744F82E70B9
S31500000EF044F82E201B0163448D4244F823000A4621
S31500000F00E2D1EFF31082012383F31088336813B123
S31500000F103368013B336033681BB904498020CB70CA
S31500000F20C87082F31088F8BD7005FE1F000D0440DE
S31500000F300008044008B50346034A1A600846FFF74E
S31500000F40A3FF002008BD00BF54524F5008B5084605
S31500000F50FFF79AFF002008BD70B584B002AB0126EA
S31500000F6068460C461546ADF80C100292ADF80060C6
S31500000F700193FFF705FFEFF3108286F310881D49F2
S31500000F800B681BB91C48C3704023C3700B68013340
S31500000F900B6082F31088EA034FEA1423E4B219D4F3
S31500000FA01B01164A234442F82350EFF31082012313
S31500000FB083F310880B6813B10B68013B0B600B6859
S31500000FC01BB90D498020CB70C87082F310880020B1
S31500000FD004B070BD04EB0310084A52F820606FF3AA
S31500000FE0104642F8206025F4803642F820601B0146
S31500000FF0D7E700BF7005FE1F000D0440000804403F
S315000010002B4B10B4C3600B7803F001034370EFF36E
S31500001010108C012484F31088264BD3F8082122F47F
S315000010208012C3F80821D3F808318CF31088EFF347
S31500001030108C84F310884278002A33D1C46823794F
S3150000104062F3861323718CF310884A68C468D378D8
S31500001050DB01DBB26371A379D3B94B78C3B1EFF38C
S31500001060108C012383F31088124BD3F8084124F423
S315000010700044C3F80841D3F808318CF31088C368DC
S3150000108003F580544FF0020C84F8C0C080249C7194
S31500001090537803720A780270074B43605DF8044B7D
S315000010A000207047C26813796FF3C7131371CAE73C
S315000010B000E00540006F044000434144C3684278A5
S315000010C0002023F812107047EFF31081012383F3F9
S315000010D01088427842B9C068037962F386130371B7
S315000010E081F3108800207047C26813796FF3C71325
S315000010F0137181F310880020704700BF38B5037A5A
S315000011000446002B3AD0C368427833F812500021C7
S3150000111023F81210ADB2EFF3108C012383F310887D
S31500001120E36840781A7900283DD061F3C7121A7136
S315000011301A7F42F080021A771A7A42F080021A72F7
S315000011401A7942F080021A718CF31088012104206A
S3150000115000F0E8FAEFF31081012383F31088627838
S315000011608ABBE068037F62F38613037781F31088F6
S31500001170E3686278002023F8125038BDEFF310833D
S31500001180012282F310884278C1683AB10A7942F0A6
S3150000119080020A7183F31088002038BD0A7942F074
S315000011A040020A71F6E760F386121A711A7F42F05E
S315000011B040021A771A7A42F040021A721A7942F0FD
S315000011C040021A71C0E7E268137F6FF3C713137703
S315000011D0CCE700BF034600201A689B8A138070473D
S315000011E003681031002033F811301380704700BFB8
S315000011F0002800DA704710B400F16043134C03F581
S3150000120061430901C9B283F8001300F1C001104B14
S3150000121044F8202053F821206FF3104243F8212090
S3150000122053F82130BFF35F8F43099B0003F16043FE
S31500001230012203F5614300F01F0002FA00F0C3F833
S31500001240800118605DF8044B704700BF7405FE1FEF
S31500001250006000400B882DE9F0410C465B022269D4
S31500001260C9686669026203F1804303F5B823002268
S31500001270036081614460C26105466079A178F278B5
S31500001280030243EA4133002A53D043F43073022861
S3150000129008BF2D499BB208BF31F82200AB8218BFA8
S315000012A000202279E17896F800C0D20342EA410292
S315000012B0717842EA4112EFF31088012181F3108818
S315000012C0B4F800E0214FCEF1100E01FA0EF1D7F876
S315000012D008E12EEA0101C7F80811D7F8081188F3CA
S315000012E0108847F6FF5729683B4092B20B80088268
S315000012F0CA8181F80CC0217A94F906002A46FFF7C4
S3150000130077FF617A94F907002A46FFF771FF317A71
S3150000131096F906002A46FFF76BFF96F90700717AE1
S315000013202A46FFF765FF0A4BAB6000202861BDE83F
S31500001330F08130B943F4004343F040039BB2AB82E3
S31500001340AFE743F04003A2E7881B0000006F0440AC
S315000013504344415243682DE9F041D1E901260C6826
S315000013605D6903681FFA84F8A3F804801FFA82F8FF
S31500001370A3F8148022F0405C1FFA86F824F0405E41
S3150000138026F040572243A3F808804FEA1C4C3F0C36
S315000013904FEA1E4812F0405FA3F80680A3F816C075
S315000013A05F815BD18A7CCE7CCF68120202F4E06258
S315000013B03243A3F86620002F00F0B180B7F808C0CA
S315000013C01CF4006F20D0D7E90062B7F80A80A3F8B2
S315000013D090C0A3F89C80B7F80C80A3F89E801FFAF3
S315000013E086F8A3F89480C6F30B48360FA3F89680C8
S315000013F083F8926096B2A3F89860C2F30B46120F78
S31500001400A3F89A6083F893201CF4007F1AD10A8A05
S31500001410A3F890C0A3F88020EA786AB11A88818A76
S3150000142092B222F01F02BEFA8EFE1F32A2EB0E020D
S3150000143092B211431A8081823A4BC0E903340020EC
S31500001440BDE8F081BA7CFE7C324383F8A620FA8997
S31500001450A3F8A8203A8AA3F8AA20D8E7324FD7F8EB
S315000014602080324F3F68C8F3026C07FA0CFCC8F3C1
S3150000147002182F4F2CFA08FCA7FB0C7C4FEA9C1C89
S315000014802C4F41F2360808FB0CFCA7FB0C7C4FEAFC
S315000014909C4C0CF1010CBCF1070F38BF4FF0070C48
S315000014A012F0805727D0EFF31086012383F31088BC
S315000014B0214BD3F8084124F48004C3F80841D3F83B
S315000014C0083186F310881D4F0C688E6803684FF04C
S315000014D0900814F0805F87F800805FFA8CF783F835
S315000014E0DE7014BF4FF480774FF4806716F0805F8C
S315000014F018BF47F0010792000ED5A20048BF47F477
S3150000150000775FFA8CFC58BF47F40067B20083F897
S31500001510DFC048BF47F00207BFB25F8242E7BC4662
S3150000152075E700BF4344415200E00140FC06FE1F40
S31500001530D34D621083DE1B43006F044000D005408C
S31500001540064B074993F826001A6A51F820300549D8
S31500001550C2F30262D3400B60704700BF00E0014057
S315000015600800FE1FFC06FE1F38B53B4B3B493C4CB2
S315000015703C4A3D4D4AF20350A3F8FE030020A1F871
S3150000158000013A4993F826006160394922604FF418
S315000015900042C4E902213749C4E90421196A54F812
S315000015A02020C1F30261CA402A602021092283F863
S315000015B0131483F8A22093F88024002A44D0264AE4
S315000015C00023062182F8813482F8803482F8A5103F
S315000015D082F8323092F83C301907FBD500234FF4DD
S315000015E01C51118582F82A301B4B93F83C20920639
S315000015F0FBD51A4A022182F81C111F4919620521DE
S3150000160083F8261093F8261054F821001C6AC4F3B8
S315000016100264E0402860012160244FF4254083F8ED
S31500001620301083F8521083F8531083F82440A3F83F
S31500001630FE03A2F80411B2F804319BB2002BFAD1D2
S315000016400123A2F8003138BD012183F8801440F24D
S31500001650C44000F067F8B2E700E0014000C0014076
S315000016600800FE1F002D3101FC06FE1F00127A0045
S31500001670001BB700001C4E0E2112012138B5244C68
S31500001680002584F828500121C82000F04BF884F882
S31500001690245094F82430002BFBD194F824301C4AB3
S315000016A043F0020384F8243092F82430C3F3400058
S315000016B09B07F9D482F8220092F84030144960F36F
S315000016C0C71382F8403091F84030DB09FBD191F81E
S315000016D042000F4A63F3C71081F8420092F8423085
S315000016E0DB09FBD192F84400094963F3C71082F87D
S315000016F0440091F84430DC09FBD1012000F0A0F849
S31500001700044B012083F8BB44BDE8384000F068B8BC
S315000017100040044000E00140A0F101000028FBD198
S31500001720704700BF30B5144D144A00FB01F14FF469
S315000017307A732868B2FBF0F2A1FB03C44FF0FF30C6
S315000017404FF0000E60457EEB040407D3BCFBF2F0BD
S31500001750800878B1BDE83040FFF7DEBF9200B1FBEC
S31500001760F2F1A1FB031388427EEB0303F2D3084692
S315000017700028EFD130BD00BFFC06FE1F00CA9A3B11
S315000017800B4B70B5B3F840510A4E0024ADB225FAA2
S3150000179004F3DB07E0B203D556F8243003B19847CB
S315000017A00134102CF3D1024BA3F8305170BD00BFA9
S315000017B0006000403005FE1F10B4074A074C0023A6
S315000017C003F1C001013332F8020F44F82100602B07
S315000017D0F6D15DF8044B7047921B00000060004094
S315000017E0EFF31081012383F31088124B33F8102096
S315000017F092B22AB133F81020013A92B223F810209F
S3150000180033F810309BB293B90B4A10B4B2F8FE33DA
S315000018100A4C9BB234F8100043F4254323EA000334
S31500001820A2F8FE3381F310885DF8044B704781F30C
S3150000183010887047F406FE1F00E00140541C0000AB
S3150000184030B4EFF31081012383F310880E4A32F887
S3150000185010309BB26BB90D4C0D4DB4F8FE3335F814
S3150000186010C09BB243EA0C0343F425439BB2A4F891
S31500001870FE3332F8103001339BB222F8103081F378
S31500001880108830BC704700BFF406FE1F00E0014020
S31500001890541C000000BE704708B500F003F8FFF7BF
S315000018A0CDF9FEE7234B70B54FF47002224DC3F815
S315000018B0882000209D60FFF7B5F9FFF755FE01204F
S315000018C0FFF7B0F91D4B29681D481E4D00244FF443
S315000018D025429C801A80A1F580629A601A4AD960D6
S315000018E04FF480560121A5F82061121A99802146ED
S315000018F000F046F81548164A1649174D121A00F018
S3150000190031F8164B5B1BA34206DD9E1055F8043BCF
S3150000191001349847A642F9DCFFF712FEFFF7AEFE48
S315000019200220FFF77FF9FFF747FFBDE87040002070
S3150000193000F016B800ED00E000000000000D0040C9
S315000019402000FE1F006000400007FE1F0000FE1F73
S315000019500800FE1F601C00000000FE1F0400FE1FA2
S31500001960704700BF0A44914200F1FF3300D170472F
S3150000197010B511F8014B03F8014F9142F9D110BD92
S3150000198002440346934200D1704703F8011BF9E76E
S315000019904275696C7420776974682052656E657348
S315000019A0617320416476616E63656420466C657878
S315000019B069626C6520536F66747761726520506149
S315000019C0636B6167652076657273696F6E20342E6E
S315000019D0332E3000342E332E300000000000030476
S315000019E0F8B500BFF8BC08BC9E467047F8B500BF06
S315000019F0F8BC08BC9E4670475465726D696E616C92
S31500001A0000FFFFFF00000000000054545220524522
S31500001A104747455300FFFFFF303132333435363701
S31500001A2038394142434445465374617274204170CB
S31500001A30706C69636174696F6E0D0A0041444320DE
S31500001A403A2025640D0A0000444143203A202564CB
S31500001A500D0A00FFF404FE1FA41A00004C1B000030
S31500001A60000002000000DFDFFFFF000000000000B2
S31500001A7000000000781A0000000102000000DFDF0D
S31500001A80FFFFFFFF00000200000000000000000052
S31500001A90000000000000001800000000A01A00006E
S31500001AA00000000014000000AC1A000000800000D6
S31500001AB00E000000008000000F000000000001067C
S31500001AC000010000000001060101000000000106FF
S31500001AD002010000000001060301000000400000B2
S31500001AE005010000040000000601000000000100DE
S31500001AF008010000000001000901000000000100CB
S31500001B000A0100000000010C050200000000010CA3
S31500001B1007020000000001000003000004000000AE
S31500001B200C03000004000000000400000000010592
S31500001B30010400000000010502040000000001137A
S31500001B40070400000080000002050000350F0000B9
S31500001B50490C00004D0F0000590F0000FD0C00005D
S31500001B60490D0000510C00009D0C0000BD0C00004A
S31500001B70E50C00002D0D00006D0C0000810C00002E
S31500001B80020403040404FFFF0A0900000A09000016
S31500001B903F0B0000000000000000000000000000F5
S31500001BA0000000000000000000000000000000002F
S31500001BB0000000000000000000000000000000001F
S31500001BC0000000000000000000000000000000000F
S31500001BD000000000000000000000000000000000FF
S31500001BE000000000000000000000000000000000EF
S31500001BF000000000000000000000000000000000DF
S31500001C0000000000000000000000000000000000CE
S31500001C1000000000000000000000000000000000BE
S31500001C2000000000000000000000000000000000AE
S31500001C30000000000000000000000000000000009E
S31500001C40000000000000000000000000000000008E
S31500001C500000000001000200080010000000000063
S30D00001C60250500000105000046
S3150100A150FFFFFFFFFFFFFFFFFFFFFFFFFFFFFFFF08
S7050000189949
